:100000000C94D0010C94FD250C94D6250C9404027C
:100010000C9404020C9404020C9404020C94040248
:100020000C9404020C9404020C9404020C94040238
:100030000C9404020C9404020C9404020C94040228
:100040000C9439290C9404020C9495260C946F2678
:100050000C9404020C9404020C9404020C94040208
:100060000C94C7260C9404026F04AC0983048D041D
:1000700091049B04AC09AC09AC09AC09AC09AC090E
:10008000AC09AC09AC09AC09AF04AC09B904AC09C2
:10009000C304A907AC09AC09BA07AC09BD07AC0990
:1000A000AC09AC09AC09AC09AC09AC09AC09AC09A8
:1000B000AC09AC09D307AC09E807070827083408DE
:1000C000480863087908AC09AC09AC09AC09AC096B
:1000D000AC09B708AC09AC09D008FF0821093E09F2
:1000E000AC09AC095409382E322E33005665722EF5
:1000F00020004F70656E204556534500000E111DBF
:10010000150E0000000E0C1F03060C0800080C0E54
:100110000C08000000000E0E0E000000000E151767
:10012000110E0000537663204C6576656C3A204CC6
:100130003200537663204C6576656C3A204C310072
:100140004175746F204465746563740053656C6613
:10015000205465737400506F776572204F6E0054A1
:10016000656D70657261747572652043686B0047D8
:1001700046492053656C662054657374005374754A
:10018000636B2052656C61792043686B0047726F26
:10019000756E6420436865636B0056656E7420520B
:1001A0006571276420436865636B0044696F64650B
:1001B00020436865636B00352E322E310045786927
:1001C000740052657374617274204E6F773F0053F0
:1001D000657420446174652F54696D653F004D6FEF
:1001E0006E746800446179005965617200486F75EA
:1001F00072004D696E7574650053746172742048A5
:100200006F75720053746F7020486F75720053746D
:10021000617274204D696E0053746F70204D696E69
:100220000000000000250028002B00000000002432
:100230000027002A00040404040404040402020247
:100240000202020303030303030102040810204017
:1002500080010204081020010204081020544553B4
:10026000542044495341424C4544005265737461E3
:100270007274696E672E2E2E0020202020304100DF
:10028000484947482054454D5000536C6565706996
:100290006E67004746434900544553542046414940
:1002A0004C45440044697361626C6564004F50457D
:1002B0004E2052454C415900535455434B20524512
:1002C0004C4159004E4F2047524F554E44004F5617
:1002D00045522054454D50455241545552450047D2
:1002E000464349204641554C5400534552564943D4
:1002F000452052455155495245440044494F4445D3
:1003000020434845434B0056454E542052455155D5
:10031000495245440045565345204552524F5200DC
:100320004368617267696E6700436F6E6E656374E0
:1003300065640052656164790000000008000201F4
:100340000000030407000000000000000053657473
:1003500075700053657474696E67730054696D65D8
:10036000204C696D697400436861726765204C694F
:100370006D69740044656C61792054696D65720023
:10038000446174652F54696D6500526573746172C0
:1003900074004D61782043757272656E7400D236B8
:1003A00011241FBECFEFD8E0DEBFCDBF14BE0FB605
:1003B000F894A89580916000886180936000109205
:1003C00060000FBE13E0A0E0B1E0ECEAF8E702C085
:1003D00005900D92AA37B107D9F726E0AAE7B3E056
:1003E00001C01D92AE37B207E1F711E0C0EDD1E0D8
:1003F00004C02197FE010E942B39CF3CD107C9F7D9
:100400000E9483290C94543C0C9400002F923F923C
:100410004F925F926F927F928F929F92AF92BF9214
:10042000CF92DF92EF92FF920F931F93CF93DF93C0
:10043000CDB7DEB72B970FB6F894DEBF0FBECDBF9A
:100440008BE194E00E940C253C01892B09F49FC0AC
:10045000212C312C7CE8C72E72E0D72EEAEBEE2E51
:10046000E4E0FE2E261437040CF091C08BE194E0FA
:100470000E94EA24082F8091F004882329F0602F3D
:1004800088EB94E00E94CC25043231F40093BA0446
:1004900081E08093DA0477C03091BA04343209F0F5
:1004A00072C08091DA0480320CF069C021E0280F1C
:1004B000082E000C990B2093DA04FC01E854FB4F42
:1004C0000D3009F05AC012824BEB54E05093DC041B
:1004D0004093DB0481E08093EF041091BB0404E2BD
:1004E000010F1327ECEBF4E03E2F2F2F819188238F
:1004F00009F434C1803221F59091EF049A3064F010
:100500001092EF041092BA041092DA041092F104DF
:1005100080E00E94A71D37C0005E1827DF011197F9
:100520001C92A091EF0481E08A0F8093EF04AA0F40
:10053000BB0BA854BB4F9496FC93EE939397D4CFE8
:100540008A3229F08E3581F462E0B62E02C0BB24D7
:10055000B394832F922FDC011D92CD010E94F428C9
:10056000B1E0BB1207C003C0080F1827BDCF0813A6
:10057000C7CFF4C01813C4CFF1C0028304C01092D7
:10058000BA041092DA049FEF291A390A6BCFA895A2
:10059000809113058823C1F08091110580620E942B
:1005A000292382E10E94C7130E94D1228091110564
:1005B000806261E070E090E00E9466158AE995E053
:1005C0000E94B40B80958F71982F917080FD12C09E
:1005D00080912F05823071F44091300550913105A2
:1005E0006091320570913305452B462B472B11F452
:1005F00010922F0510912F05112389F0113009F069
:100600005AC040913005509131056091320570918A
:100610003305452B462B472B09F042C04CC099238C
:1006200009F440C08091300590913105A0913205C8
:10063000B0913305892B8A2B8B2B51F40E94C82152
:1006400060933005709331058093320590933305A4
:100650000E94C8210091300510913105209132058A
:1006600030913305DC01CB01801B910BA20BB30B46
:1006700020912F05211107C0C297A105B10508F4EB
:1006800064C081E00AC0213009F05FC0843F91401E
:10069000A105B10508F459C082E080932F0555C02B
:1006A0009111D6CF1092300510923105109232057B
:1006B000109233054AC0992309F447C0809134054C
:1006C00090913505A0913605B0913705892B8A2B7D
:1006D0008B2BD9F11230C9F50E94C821C090340586
:1006E000D0903505E0903605F0903705DC01CB0160
:1006F0008C199D09AE09BF0980319742A105B1054A
:1007000020F11092340510923505109236051092A2
:1007100037051F921F931F9284E28F938AEA92E01B
:100720009F938F9385E893E09F938F930E946A39FC
:100730000E94171A65E873E088EB94E00E94D225C6
:100740000FB6F894DEBF0FBECDBF2091D505309116
:10075000D60580912F0537FF46C6A6C781E0809356
:1007600034061092F1041091EF0412309CF0E12F46
:10077000EE0FFF0BEA54FB4F83A194A1FC012081F3
:100780002A3341F401960E94F4288093F104115019
:100790001093EF041092DA04E091DB04F091DC0492
:1007A0008081873409F4C5C31CF4863441F0D4C574
:1007B000833509F42DC18A3509F484C5CDC58181FD
:1007C000853409F466C064F4813361F11CF480332C
:1007D000C1F0C2C5823499F1843409F43FC0BCC56C
:1007E000803509F4DEC024F4863409F455C0B4C55C
:1007F000823509F40AC1833509F0AEC50E94C61BD3
:10080000A5C58091EF04823009F0A6C5E091DD0412
:10081000F091DE04908180911605903309F0B5C502
:100820008064B4C59091D905945081E09B3008F064
:1008300080E00E946B1D81E00E94861587C5809133
:10084000EF04823009F088C58091DD049091DE04C8
:100850000E94CF28862F0E94BE2378C58091D9059B
:100860008F3F09F473C582E090E00E9444228FEF2D
:100870008093D9050E940D228091D7059091D805CB
:1008800097FF8BC581E00E94861580E00E94592861
:100890005DC50E94AE1B5AC58091EF04833009F0FC
:1008A0005BC5E091DF04F091E004808180538230E9
:1008B00008F052C5E091DD04F091DE04E0814E2F96
:1008C000EE0F550B660B770BFA01E254F109E53197
:1008D000F10508F041C5EC5CFF4F0C942B392091D9
:1008E000D5053091D605811102C0306801C03F772F
:1008F0003093D6052093D5058091D5059091D605E6
:100900000E94072823C52091D5053091D60588235C
:1009100011F02D7F41C022603FC081E08093F00440
:1009200015C52091D5053091D605882311F03D7F5E
:1009300033C0326031C02091D5053091D60588236F
:1009400011F0277F29C01092CC051092C805109293
:10095000C9051092CA051092CB0528601DC02091D0
:10096000D5053091D605882311F02F7E15C0206162
:1009700013C02091D5053091D605882311F03B7F17
:100980000BC0346009C02091D5053091D60588236D
:1009900011F02B7F01C024603093D6052093D5053C
:1009A00099C08091EF0484300CF4D6C48091D705AF
:1009B00081FDD2C48091DD049091DE040E94CF2895
:1009C0004B015C018091DF049091E0040E94CF28EC
:1009D000A3EEB4E044E050E010E29A014F5F5F4FB5
:1009E000E091EF040E2E000CFF0B2E173F072CF4A6
:1009F000ED91FD9131971083F0CF4091E10450913A
:100A0000E204C4010E940724A1C40E94251B9EC4C5
:100A10008181833409F4F9C08CF4833309F49AC0DA
:100A200034F48033A1F1813309F45BC095C485337C
:100A300009F49CC0813409F4C6C08EC48C3409F416
:100A40004EC1DCF4883409F43EC18B3409F084C40F
:100A50008091DD049091DE040E94CF28AB01BC019F
:100A600040932A0650932B0660932C0670932D0614
:100A70008DE090E00E94A83869C4863509F4A6C1CB
:100A8000893509F4B7C1843509F066C452C1809133
:100A9000EF04823009F060C4E091DD04F091DE04DF
:100AA000108180911605103311F08E7F01C0816096
:100AB0008093160581E00E9486158091D50590915E
:100AC000D605103311F4916001C09E7F9093D60536
:100AD0008093D5058091D5059091D6050E94072871
:100AE00035C48091EF04873009F036C48091E70463
:100AF0009091E8040E94CF28162F8091E5049091F0
:100B0000E6040E94CF28062F8091E3049091E4042C
:100B10000E94CF28B62E8091E1049091E2040E94B9
:100B2000CF28A62E8091DF049091E0040E94CF2868
:100B3000962E8091DD049091DE040E94CF28698377
:100B40009A82AB82BC820D831E83CE0101960E94E5
:100B5000611FFCC38091EF04823009F0FDC38091D6
:100B6000D9058250823008F0F7C31BC48091EF048E
:100B7000823009F0F1C3E091DD04F091DE04808160
:100B8000813399F03CF4803309F0E3C381E00E94A3
:100B90008B1BDCC3813469F08D3409F0DAC380919A
:100BA000D7059091D805906809C081E00E94461C45
:100BB000CDC38091D7059091D8059F779093D805A4
:100BC0008093D705C3C38091EF04833009F0C4C379
:100BD0008091DD049091DE040E94CF28709314066A
:100BE0006093130689E090E00E94B0388091DF04A2
:100BF0009091E0040E94CF28709312066093110632
:100C00008BE090E00E94B038A1C30091EF048EEF1A
:100C1000800F823008F0A0C38091DD049091DE0443
:100C20000E94CF28162F033061F5E091DF04F09188
:100C3000E00480818D3419F58AEF810F8B34C0F484
:100C40008FEF91E00E94863881508E3F88F0612FAF
:100C50008FEF91E00E949A381093E6058091E705A6
:100C6000181740F441E061E0812F0E94381E02C055
:100C700001E001C000E010E08091E60510C041E015
:100C800001C040E08091F20480FF95C38091E705A8
:100C9000811708F090C301E010E08091E7051F92F2
:100CA0008F9384E593E09F938F93FF92EF920E943E
:100CB0006A390F900F900F900F900F900F9081E076
:100CC0008093DA044BC38091EF04823009F044C36F
:100CD0008091D9058250823008F03EC372C3809162
:100CE000EF04823009F038C3E091DD04F091DE04B6
:100CF000808181330CF430C383331CF0813459F08C
:100D00002BC361E080530E94BE1E8091D505909157
:100D1000D605806209C00E946D24811124C3809190
:100D2000D5059091D6058F7D9093D6058093D505F6
:100D3000D5CE8091EF04853009F00EC38091DD049B
:100D40009091DE040E94CF28062F8091DF049091BD
:100D5000E0040E94CF28A62E8091E1049091E20445
:100D60000E94CF28162F8091E3049091E4040E9402
:100D7000CF28B62E011109C0A11007C0111105C05E
:100D8000611103C00E94A71EE1C20093FF04A0925C
:100D90000005602F85E090E00E949A386091000580
:100DA00086E090E00E949A3810930105B092020507
:100DB000612F87E090E00E949A386091020588E0F8
:100DC00090E00E949A380E948F1EC0C28091EF046A
:100DD000823009F0C1C28091DD049091DE040E944E
:100DE000CF2860931A0670931B0680931C0690937D
:100DF0001D06ACC28091EF048130A1F491E080E047
:100E000020912106223009F090E0092F182F0E942E
:100E1000C821609322067093230680932406909342
:100E200025066AC0833009F04BC08091DD049091A3
:100E3000DE040E94CF284B015C018091DF04909179
:100E4000E0040E94CF286B878114910441F48091C3
:100E50002106882321F00E94C5368C0102C000E0E3
:100E600010E090921F0680921E06FB85F0932006EC
:100E7000109221060E94C8216093220670932306D7
:100E8000809324069093250682E290E00E94943895
:100E900060911E0670911F068617970721F082E267
:100EA00090E00E94B03884E290E00E948638609121
:100EB0002006861709F184E290E00E949A381CC04F
:100EC0008230A9F48091DD049091DE040E94CF2845
:100ED000653A69F480912106823061F40E94C5363A
:100EE0008C01892B49F481E08093210605C001E043
:100EF00010E002C000E010E0809121061F928F9365
:100F0000809120061F928F9380911F068F9380916E
:100F10001E068F93DF92CF92FF92EF920E946A3962
:100F200081E08093DA040FB6F894DEBF0FBECDBF28
:100F300015C2E1818E2FEE0F990BAA0BBB0BFC01A2
:100F4000F097EA32F10508F007C2E75BFF4F0C9417
:100F50002B398091A6059091A705029739F00E9440
:100F6000D42191E0811103C090E001C092E01F9272
:100F70009F93ADC080910406A8C08091D705909141
:100F8000D80597FF02C08DE401C081E41F928F93C2
:100F90008091FC05282F082E000C330B3F938F9374
:100FA00089E592E00EC0809112068F938091110620
:100FB0008F93809114068F93809113068F938FE8FF
:100FC00092E09F938F93FF92EF920E946A391BC029
:100FD0008091D50580FD03C208E110E00E94E21B6C
:100FE0001F928F938091E7051F928F931F930F930A
:100FF0001F9286E08F9389E892E09F938F93FF92F0
:10100000EF920E946A3981E08093DA049AC180915C
:10101000FE04882361F04091FF048091000590E078
:101020002091010530E06091020570E007C040E0CA
:1010300060E070E020E030E080E090E07F936F932C
:101040003F932F939F938F931F924F93D4CF809171
:10105000D6058F938091D5058F938091E7051F92D8
:101060008F9381E793E0ADCF8091D2058F5F1F9280
:101070008F938091CD058F5F1F928F938091B605DE
:101080008F5F1F928F938FE592E09F938F9383C022
:1010900080911D068F9380911C068F9380911B0673
:1010A0008F9380911A068F93809110068F93809171
:1010B0000F068F9380910E068F9380910D068F936C
:1010C00088E692E09ACF809115061F928F9384E56F
:1010D00093E09F938F93FF92EF920E946A3981E091
:1010E0008093DA040F900F900F900F900F900F9055
:1010F0002DC1DE011196CD014EE050E031E2FA0142
:10110000309357002491FC012193CF014F5F5F4F33
:101110004831510599F780E28093BA04EBEBF4E093
:101120005E0127E0A20EB11C8D918193AA15BB052B
:10113000D9F700E010E0D5018D915D011F928F93EA
:10114000E2E2F3E0FF93EF93C8018F539B4F9F932D
:101150008F930E946A390E5F1F4F0F900F900F9070
:101160000F900F900F900830110529F799C08091CA
:10117000FD048F938091FC048F938091F9048F93E9
:101180008091F8048F938091FB048F938091FA04EF
:101190008F93DF92CF92FF92EF920E946A3933CF02
:1011A0008091D8058F938091D7058F938091DD052D
:1011B0001F928F934091F0055091F1056091F205D7
:1011C0007091F3058091F8059091F905A091FA05C9
:1011D000B091FB05840F951FA61FB71FBF93AF9358
:1011E0009F938F938091D9051F928F9380E792E010
:1011F0009F938F93FF92EF920E946A3904CF0E94CF
:10120000291429833A834B835C836D837E831F92E9
:101210007F938D811F928F938C811F928F938B81EF
:101220001F928F938A811F928F9389811F928F9330
:1012300023E832E03F932F93FF92EF920E946A39A6
:10124000E2CE80912D068F9380912C068F93809112
:101250002B068F9380912A068F93809131068F936E
:10126000809130068F9380912F068F9380912E0668
:101270008F93A5E9B2E0BF93AF93C1CE66EE70E065
:101280008AEB94E00E94703867E572E08AEB94E0A4
:101290000E94583967EB71E08AEB94E00E94653850
:1012A00081E08093DA0452C0809121061F928F93CF
:1012B000809120061F928F9380911F068F938091BB
:1012C0001E0666CF8181803309F046C08091EF040D
:1012D000833009F048C08091DD049091DE040E94C3
:1012E000CF28062F8091DF049091E0040E94CF2840
:1012F000162F0093D3056093D4051F926F931F920E
:101300000F938DE992E09F938F9385E893E09F93ED
:101310008F930E946A3965E873E08BE194E00E9444
:10132000242967EA72E08BE194E00E942429602F6F
:1013300085E290E00E949A38612F86E290E00E9458
:101340009A380FB6F894DEBF0FBECDBF00E010E0B4
:1013500005C001E010E002C00FEF1FEF8091DA043A
:101360008F3F19F408C000E010E081E0012B09F084
:1013700080E00E94A71D1092BA041092DA04109225
:10138000340680E00E945928FEC88F7B80931605A2
:101390008081803309F04FCAD9CF81E00E948B1B36
:1013A00071CA8091DD049091DE040E94CF28862FBF
:1013B0000E942C1F0FC061E0812F0E94381E8C01FB
:1013C0006CCC8091DD049091DE040E94CF28862FA2
:1013D0000E94F51E8091160586FDB8CF2CCA00919B
:1013E000E60510E0FBCD1091D90514508130C1F411
:1013F0008091300590913105A0913205B09133056F
:10140000892B8A2B8B2B09F0CDC010922F0581E000
:101410001B3008F080E00E946B1D811126C0C2C005
:10142000823009F0BFC08091300590913105A091C4
:101430003205B09133050097A105B10509F4B2C09A
:101440008093340590933505A0933605B093370506
:10145000109230051092310510923205109233052A
:101460008091F204877F8093F204809138059091F7
:101470003905009709F45CC0DC01ED91FC91048012
:10148000F581E02D099590933905809338050097F3
:1014900079F1B5E083399B0721F0E5E08D389E07AF
:1014A00021F4DC0114961C9101C010E0DC01ED91E7
:1014B000FC910190F081E02D099580913805909183
:1014C0003905B5E083399B0729F0E5E08D389E07A3
:1014D00009F068C0112309F465C01150DC011496AD
:1014E0001C931497ED91FC910280F381E02D59C07B
:1014F0000E94AE1B80911605982F9F7B20913A0584
:10150000213011F48E7B02C0892F816080931605F3
:1015100081E00E94861581E00E9486158091D705A2
:101520009091D805977F9093D8058093D7053AC0BE
:101530008091D7059091D80598609093D8058093B5
:10154000D7058091D905825091E0823008F090E073
:1015500081E09827909399059091160591708927BD
:1015600080933A0587E00E94BE238091160580642F
:10157000809316051B3018F48DE895E004C00E9496
:10158000C61B83E995E090933905809338058091D7
:10159000380590913905DC01ED91FC910190F081C5
:1015A000E02D09950E94C8216B017C018091F30414
:1015B0009091F404A091F504B091F604A70196016E
:1015C000281B390B4A0B5B0BDA01C901883E93409B
:1015D000A105B10508F49FC08091F7048823A9F004
:1015E00085E00E94D81C9C013F7194FD306F4AE059
:1015F000429FC001439F900D112497FD0F9654E028
:10160000959587955A95E1F702C080E096EF909303
:10161000F9048093F80488E60E9429238EE00E9452
:10162000C71380E20E94C7130E94D12288E60E945D
:10163000292381E10E94C7130E94D12262E070E059
:1016400088E690E00E9466158823F9F08AE995E023
:101650000E94B40B182F8AE995E00E94B40B512E1A
:10166000412C9201282B46E0359527954A95E1F7C4
:101670004AE0429FC001439F900D112497FD0396BD
:10168000959587959595879502C080E096EF909304
:10169000FB048093FA04C092F304D092F404E09225
:1016A000F504F092F60437C0813089F4809130055A
:1016B00090913105A0913205B0913305892B8A2B89
:1016C0008B2B09F06FCF10922F0580E021C0823064
:1016D00009F068CF8091300590913105A0913205D5
:1016E000B09133050097A105B10509F45BCF809354
:1016F000340590933505A0933605B09337051092C5
:10170000300510923105109232051092330581E0B8
:101710000E940C2847CF2B960FB6F894DEBF0FBE61
:10172000CDBFDF91CF911F910F91FF90EF90DF9090
:10173000CF90BF90AF909F908F907F906F905F9071
:101740004F903F902F9008950895E091A8038091C5
:10175000A703E81730F4F0E0EF54FC4F808190E0ED
:1017600008958FEF9FEF08959091A8038091A703AC
:10177000981750F4E92FF0E0EF54FC4F208130E04F
:101780009F5F9093A80302C02FEF3FEFC901089518
:101790008091A70390E02091A803821B91090895EE
:1017A00080E090E00895CF93DF93EC0164EF71E067
:1017B00080E090E00E948E218C81882329F0813086
:1017C00031F08FE495E005C089E595E002C084E53D
:1017D00095E0DF91CF910895CF93DF93EC0161E025
:1017E0000E9495208C810E942C1F64EF71E080E0A4
:1017F00090E00E948E218C81882319F080E090E097
:1018000002C083E995E0DF91CF910895FC019481B6
:10181000943010F49F5F05C09C3010F49E5F01C0AF
:101820009C5F94838481813208F0148261E094810A
:1018300080910406981360E0CF010C949520CF931B
:10184000DF93EC01809104068C836CE573E080E00B
:1018500090E00E944C2461E0CE01DF91CF910C9486
:101860009520FC0184818F5F84839581981708F40B
:101870001482E481E91758F4F0E0EE0FFF1FEE59EF
:10188000FE4F0190F081E02D6281738102C06DEB0B
:1018900071E081E090E00C944C24FC0114826281A0
:1018A000738180E090E00E944C24609188057091E3
:1018B000890581E090E00C944C24CF93DF93DC0108
:1018C00014968C9114978F5F14968C931497159699
:1018D0009C911597981718F414961C9214971696C5
:1018E0008C9116971496EC9114978823A1F0CE2F23
:1018F000D0E0CC0FDD1FCE58DE4F2881398145E086
:101900002034340719F02B53354029F4EF5F149637
:10191000EC931497E7CFE91758F4F0E0EE0FFF1FB0
:10192000EE58FE4F0190F081E02D6281738102C07C
:101930006DEB71E081E090E0DF91CF910C944C244D
:10194000CF93DF93EC011C829E81992399F08C81C7
:10195000E82FF0E0EE0FFF1FEE58FE4F208131819F
:1019600045E02034340719F02B53354019F48F5FCC
:101970008C83EBCF6A817B8180E090E00E944C24D5
:10198000EC81F0E0EE0FFF1FEE58FE4F0190F0816A
:10199000E02D6281738181E090E0DF91CF910C9422
:1019A0004C24CF93DF93EC0161E00E9469208C818D
:1019B0000E94F51E64EF71E080E090E00E948E21AD
:1019C0008C81882319F080E090E002C083E995E0E3
:1019D000DF91CF910895FC018481853010F48F5FF1
:1019E00001C08B5F84838481893208F0148261E0B6
:1019F000948180911506981360E0CF010C946920C2
:101A0000CF93DF93EC01809115068C8367E673E03A
:101A100080E090E00E944C2461E0CE01DF91CF9104
:101A20000C946920CF93DF93EC0144EB52E061E02A
:101A300070E080E090E00E940724EC81F0E0EE0F7F
:101A4000FF1FE65FFE4F6081718188E095E00E9494
:101A50006D2664EF71E080E090E00E948E218C8121
:101A6000811103C00E948F1E02C00E94A71E83E93D
:101A700095E0DF91CF910895CF93DF93EC0144EB94
:101A800052E061E070E080E090E00E940724EC8189
:101A9000F0E0EE0FFF1FE65FFE4F6081718188E08E
:101AA00095E00E946D2664EF71E080E090E00E9476
:101AB0008E218C81882319F08DE895E002C087E79C
:101AC00095E0DF91CF910895CF93DF93EC018C8166
:101AD0008F5F823010F48C8301C01C820E947015CD
:101AE0008C8190E021E030E04091FE04442311F02D
:101AF00020E030E082179307B1F444EB52E061E05C
:101B000070E080E090E00E940724EC81F0E0EE0FAE
:101B1000FF1FE65FFE4F6081718188E095E0DF91F5
:101B2000CF910C946D26880F991FFC01E65FFE4F44
:101B30004081518161E070E080E090E0DF91CF91E1
:101B40000C940724CF93DF93EC0181E09091FE0485
:101B5000911180E08C8364E773E080E090E00E9464
:101B60004C240E94701544EB52E061E070E080E08C
:101B700090E00E940724EC81F0E0EE0FFF1FE65F8B
:101B8000FE4F6081718188E095E0DF91CF910C94E8
:101B90006D26CF93DF93EC018C818F5F833010F43F
:101BA0008C8301C01C820E947015EC81F0E0EE0F66
:101BB000FF1FEC5FFE4F4081518161E070E080E0EB
:101BC00090E0DF91CF910C940724CF93DF93EC0149
:101BD0008C818F5F823010F48C8301C01C820E9444
:101BE0007015EC81F0E0EE0FFF1FE65FFE4F4081C5
:101BF000518161E070E080E090E0DF91CF910C9442
:101C00000724CF93DF93EC018C818F5F823010F437
:101C10008C8301C01C820E947015EC81F0E0EE0FF5
:101C2000FF1FE65FFE4F4081518161E070E080E080
:101C300090E0DF91CF910C940724FC01148264E7BB
:101C400073E080E090E00E944C2466EB72E081E05B
:101C500090E00C941724FC0114826FEC71E080E09A
:101C600090E00E944C246DEB72E081E090E00C94D7
:101C70001724FC01148262EC71E080E090E00E9485
:101C80004C246DEB72E081E090E00C941724CF932C
:101C9000DF93EC0144EB52E061E070E080E090E023
:101CA0000E940724EC81F0E0EE0FFF1FE65FFE4F7D
:101CB0006081718188E095E00E946D2664EF71E09B
:101CC00080E090E00E948E218C81811102C00E94F0
:101CD000251B80E090E0DF91CF910895DC01149600
:101CE000EC91149715962C91E21740F4F0E0EE0F6A
:101CF000FF1FEE59FE4F808191810895FC011482EF
:101D00000E94251B8DE895E00895CF93DF93EC01A9
:101D100044EB52E061E070E080E090E00E94072434
:101D20008C8190E00E940F2069ED72E088E095E0E0
:101D30000E946D2664EF71E080E090E00E948E21A9
:101D40006C818091D50580FD02C021E001C022E0B8
:101D500081E090E0213011F480E090E00E949A3818
:101D600040E060E08C810E94381E8DE895E0DF91B4
:101D7000CF910895CF93DF93EC018C818F5F8C839B
:101D80009E81981710F48D818C830E94701541E01C
:101D900060E088E095E00E9440239C818091E70507
:101DA000981306C064EB72E088E095E00E946D260F
:101DB0008C8190E00E940F2069ED72E088E095E050
:101DC000DF91CF910C946D26CF93DF93EC0180913E
:101DD000D50580FD02C081E001C082E096E09D83D0
:101DE000813029F488E18E8381EC92E005C08091F6
:101DF000E6058E8384EC92E09F938F9387EC92E0CC
:101E00009F938F9385E893E09F938F930E946A3905
:101E100065E873E080E090E00E9417249091E70568
:101E20009C838D810F900F900F900F900F900F90CB
:101E3000981708F48C838C811F928F9386ED92E023
:101E40009F938F9385E893E09F938F930E946A39C5
:101E50000F900F900F900F900F900F9065E873E028
:101E600081E090E0DF91CF910C941724DC0114966F
:101E7000EC91149715968C91E81740F4F0E0EE0F72
:101E8000FF1FEE58FE4F80819181089588E095E014
:101E90000E94332380E090E00895CF92DF92EF928A
:101EA000FF920F931F93CF93DF937C01CB018A01A5
:101EB0002091F803222389F0EB016B01C40ED51E9B
:101EC000CC15DD0569F06991D701ED91FC91019088
:101ED000F081E02DC7010995F3CF642F0E94EE2712
:101EE000C801DF91CF911F910F91FF90EF90DF908C
:101EF000CF900895CF93DF931F92CDB7DEB769835C
:101F00002091F8032223D1F020911A04203240F0CE
:101F100021E030E0FC013383228380E090E015C0B3
:101F20008091F903E82FF0E0E650FC4F998190830F
:101F30008F5F8093F90380931A0405C061E0CE019E
:101F400001960E94EE2781E090E00F90DF91CF9103
:101F500008958091AD05882321F081E08093AC0540
:101F600008958091D7059091D80580689093D80501
:101F70008093D7050E940D2280E090E00E944422C9
:101F800081E08093AB050895CF92DF92EF92FF92AC
:101F90001F93CF93DF93142F1092A603C6EAD3E0CA
:101FA0002AE0C22ED12CE12CF12CA70196010E942F
:101FB0000939605D6A93B901CA0111506115710553
:101FC0008105910591F7111684F3CE01DF91CF9130
:101FD0001F91FF90EF90DF90CF9008951F93CF93C4
:101FE000DF93D82FC62F142F10928503411106C0FE
:101FF00064EB72E085E893E00E9458396D2F70E041
:1020000080E090E042E00E94C40FBC0185E893E0CC
:102010000E9458396BED72E085E893E00E945839D0
:10202000113031F464EB72E085E893E00E94583996
:102030006C2F70E080E090E042E00E94C40FBC0191
:1020400085E893E00E94583965E873E081E090E00C
:10205000DF91CF911F910C9417240F931F93CF936F
:10206000DF93FC010481009384031091830341E01A
:10207000602F812F0E94EE0FCEEFD4E01B830C83E4
:10208000612F87E090E00E949A386C8188E090E0B0
:102090000E949A3864EF71E080E090E00E948E2107
:1020A00083E995E0DF91CF911F910F910895FC0195
:1020B00084818F5F8C3310F4848301C0148241E0EB
:1020C0006481809183030C94EE0FCF93DF93EC0136
:1020D00068E172E080E090E00E944C24609184030B
:1020E0006C8341E080918303DF91CF910C94EE0FDC
:1020F0000F931F93CF93DF93FC010481009384031C
:102100001091830341E0602F812F0E94EE0FCEEFEC
:10211000D4E019830A83612F85E090E00E949A3809
:102120006A8186E090E00E949A3864EF71E080E076
:1021300090E00E948E2183E995E0DF91CF911F917D
:102140000F910895FC0184818F5F8C3310F4848398
:1021500001C0148241E06481809183030C94EE0FEE
:10216000CF93DF93EC016EE072E080E090E00E949C
:102170004C24609184036C8341E080918303DF9160
:10218000CF910C94EE0FFC0184818093830340E097
:10219000609184030E94EE0F64EF71E080E090E0B4
:1021A0000E948E2185E495E00895FC0184818F5F73
:1021B000883110F4848301C0148240E0609184036C
:1021C00084810C94EE0FCF93DF93EC0164E072E016
:1021D00080E090E00E944C24EEEFF4E08381809355
:1021E00083036481609384038C8340E0DF91CF910B
:1021F0000C94EE0FFC0184818093830340E0609196
:1022000084030E94EE0F64EF71E080E090E00E9492
:102210008E218AE495E00895FC0184818F5F8831E6
:1022200010F4848301C0148240E0609184038481AF
:102230000C94EE0FCF93DF93EC0169EF71E080E037
:1022400090E00E944C24EEEFF4E0818180938303C0
:102250006281609384038C8340E0DF91CF910C9482
:10226000EE0FCF92DF92EF92FF920F931F93CF93D7
:10227000DF936C01F62E142FD22FCE2D10928503F2
:10228000E11006C064EB72E085E893E00E945839E3
:102290006F2D70E080E090E042E00E94C40FBC012E
:1022A00085E893E00E9458396DED72E085E893E08F
:1022B0000E945839C13031F464EB72E085E893E054
:1022C0000E945839612F70E080E090E042E00E9467
:1022D000C40FBC0185E893E00E9458396DED72E0AF
:1022E00085E893E00E945839C23031F464EB72E023
:1022F00085E893E00E945839B60180E090E042E022
:102300000E94C40FBC0185E893E00E94583967E53C
:1023100072E085E893E00E945839C33031F464EBF1
:1023200072E085E893E00E9458396D2F70E080E0FC
:1023300090E042E00E94C40FBC0185E893E00E9457
:1023400058396BED72E085E893E00E945839C4304B
:1023500031F464EB72E085E893E00E945839602F15
:1023600070E080E090E042E00E94C40FBC0185E88C
:1023700093E00E94583965E873E081E090E0DF91D6
:10238000CF911F910F91FF90EF90DF90CF900C9421
:102390001724AF92BF92CF92DF92EF92FF920F93EA
:1023A0001F93CF93DF9300D000D000D0CDB7DEB71E
:1023B000FC01148110938403F0908303B090820396
:1023C000A0908103C0907F03D090800384E0E82E2A
:1023D000012F2F2D4B2D6A2DC6010E943111F0EDDA
:1023E000CF16F7E0DF0620F080EDC81A87E0D80AA4
:1023F000C982AA82BB82FC821D831E82CE01019605
:102400000E94611F64EF71E080E090E00E948E21E5
:102410008DE895E026960FB6F894DEBF0FBECDBFCF
:10242000DF91CF911F910F91FF90EF90DF90CF90B0
:10243000BF90AF900895EF920F93CF93DF93EC018D
:102440008C818F5F8C3310F48C8301C01C820E94BE
:10245000701584E0E82E0C81209183034091820363
:102460006091810380917F03909180030E943111DC
:10247000DF91CF910F91EF900895EF920F93CF934B
:10248000DF93EC0162EF71E080E090E00E944C2469
:10249000009184030C8384E0E82E20918303409113
:1024A00082036091810380917F03909180030E9459
:1024B0003111DF91CF910F91EF900895EF920F932B
:1024C000FC0124812093830383E0E82E00918403A0
:1024D000409182036091810380917F0390918003FA
:1024E0000E94311164EF71E080E090E00E948E2143
:1024F00083E695E00F91EF900895EF920F93CF93BD
:10250000DF93EC018C818F5F883110F48C8301C0E4
:102510001C820E94701583E0E82E009184032C81B8
:10252000409182036091810380917F0390918003A9
:102530000E943111DF91CF910F91EF900895EF92AA
:102540000F93CF93DF93EC016DEE71E080E090E0AC
:102550000E944C24209183032C8383E0E82E009179
:102560008403409182036091810380917F03909165
:1025700080030E943111DF91CF910F91EF90089568
:10258000EF920F93FC01848190E0909380038093FD
:102590007F0322E0E22E0091840320918303409187
:1025A0008203609181030E94311164EF71E080E049
:1025B00090E00E948E2188E695E00F91EF900895BB
:1025C000EF920F93FC0184818F5F823208F087E1E4
:1025D0008483848192E0E92E009184032091830317
:1025E000409182036091810390E00E9431110F912C
:1025F000EF900895EF920F93CF93DF93EC0168EE85
:1026000071E080E090E00E944C2480917F0399EE7D
:10261000980F9B3010F48C8308C087E18C8387E18E
:1026200090E09093800380937F038C8192E0E92E69
:102630000091840320918303409182036091810380
:1026400090E00E943111DF91CF910F91EF900895AA
:10265000EF920F93FC01448140938203EE24E394B4
:1026600000918403209183036091810380917F0313
:10267000909180030E94311164EF71E080E090E05E
:102680000E948E218DE695E00F91EF900895EF92D4
:102690000F93CF93DF93EC018C818F5F803208F032
:1026A00081E08C830E947015EE24E39400918403F2
:1026B000209183034C816091810380917F039091ED
:1026C00080030E943111DF91CF910F91EF90089517
:1026D000EF920F93CF93DF93EC0164EE71E080E013
:1026E00090E00E944C24409182034C83EE24E394BA
:1026F00000918403209183036091810380917F0383
:10270000909180030E943111DF91CF910F91EF9052
:102710000895EF920F93FC01648160938103E12C93
:1027200000918403209183034091820380917F0371
:10273000909180030E94311164EF71E080E090E09D
:102740000E948E2182E795E00F91EF900895EF921D
:102750000F93CF93DF93EC018C818F5F8D3008F066
:1027600081E08C830E947015E12C009184032091FC
:102770008303409182036C8180917F039091800359
:102780000E943111DF91CF910F91EF900895682F42
:102790008AE995E00C947A0FCF92DF92EF92FF9244
:1027A0006B017C01A89584E0C816D104E104F10412
:1027B00060F063E070E080E090E00E948E2183E0B2
:1027C000C81AD108E108F108EDCFC701B601FF90A2
:1027D000EF90DF90CF900C948E21DC01ED91FC9175
:1027E0001197918112968C91892B81830895FC0118
:1027F00080818770806480937C0080917A008064FF
:1028000080937A0080917A0086FDFCCF80917800D9
:102810002091790090E0922B08956115710561F087
:1028200061307105A1F4DC01ED91FC9111973281C9
:1028300012962C91232B2283DC01ED91FC911197B0
:10284000218112968C9180958223818308950C9426
:10285000ED13CF92DF92EF92FF920F931F93CF93DE
:10286000DF9300D000D000D0CDB7DEB788E60E945D
:10287000292360E08AE995E00E947A0F0E94D12224
:1028800067E070E088E690E00E9466158AE995E0CE
:102890000E94B40B8F77982F92959F701AEF082F94
:1028A000919F000D11248AE995E00E94B40B9C01D0
:1028B000332794E0359527959A95E1F7F82E129FE6
:1028C000F00C11248AE995E00E94B40B9C01332797
:1028D00044E0359527954A95E1F7E82E129FE00CE4
:1028E00011248AE995E00E94B40B8AE995E00E94E0
:1028F000B40B9C01332754E0359527955A95E1F7A1
:10290000D82E129FD00C11248AE995E00E94B40BB6
:102910009C01332764E0359527956A95E1F7C82E29
:10292000129FC00C11248AE995E00E94B40B9C010F
:10293000332774E0359527957A95E1F7482F129F54
:10294000400D1124242F3C2D4D2D5E2D6F2D702F09
:1029500080E090E026960FB6F894DEBF0FBECDBFA4
:10296000DF91CF911F910F91FF90EF90DF90CF906B
:102970000895EF920F931F93CF93DF9300D000D071
:1029800000D0CDB7DEB78C016EED71E080E090E055
:102990000E944C240E942914822F252F30938103FA
:1029A0004093820390E09093800380937F03509341
:1029B000830360938403F8013483E12C062F632F93
:1029C0000E94311126960FB6F894DEBF0FBECDBF20
:1029D000DF91CF911F910F91EF900895CF93C62F64
:1029E000FC01818580620E94292383E10E94C71334
:1029F0008C2F0E94C7130E94D1228111FCCFCF914E
:102A00000895FF920F931F93CF93DF938C01D62FDE
:102A1000F42EFC016585D4FD6061D5FD6860D6FDAE
:102A20006460D7FD6260C62FFF2011F0C06A01C04C
:102A3000C0626C2FC8010E94EE146C2F6F7DC8011C
:102A40000E94EE14F8016585D0FD6061D1FD6860DB
:102A5000D2FD6460D3FD6260C62FFF2011F0C06A12
:102A600001C0C0626C2FC8010E94EE146C2F6F7DF4
:102A7000C801DF91CF911F910F91FF900C94EE143C
:102A8000FC012385222319F041E00E94011581E019
:102A900090E00895DC01ED91FC91119712968C91D4
:102AA0009281662311F0892B02C08095892382834D
:102AB0000895DC01ED91FC911197208112968C9183
:102AC000922F982381E009F480E00895613208F0A4
:102AD00060E20E9472241092A8038093A7030895D5
:102AE000CF9341E060E088E095E00E944023C0E1A0
:102AF00060E288E095E00E944015C150C9F741E0CE
:102B000060E088E095E0CF910C9440238F929F92F3
:102B1000AF92BF92CF92DF92EF92FF920F931F93EB
:102B2000CF93DF9300D000D000D0CDB7DEB7082F11
:102B3000809116051091D90586FF05C08CEF810F95
:102B40008B3008F061C48091D50580FD03C0DD2481
:102B5000D39402C032E0D32EC090E7050E94C82172
:102B60004B015C019091D9058091DA05981709F421
:102B700056C228EE820E23E0921EA11CB11C809149
:102B8000D70581FD02E01F92CF921F92DF9282E271
:102B900091E09F938F9325E8E22E23E0F22EFF929F
:102BA000EF920E946A390FB6F894DEBF0FBECDBF18
:102BB000173009F452C1A8F4133009F405C130F4F8
:102BC000113079F1123009F486C0A1C1153009F431
:102BD0002EC108F034C181E00E94BE2367E073E09B
:102BE0002BC11A3009F433C170F4183009F44DC107
:102BF000193009F08CC181E00E94BE2363E972E0C4
:102C000088E992E062C11E3F09F462C108F04DC13B
:102C10001E3009F07CC181E00E94BE236DEA72E0A3
:102C200041C188E095E00E94332340E060E088E005
:102C300095E00E94402382E00E94BE230E94E6238A
:102C400083E393E00E94F82345E853E060E070E0FE
:102C50008AE090E00E94072460912E0670912F0672
:102C6000809130069091310620E13EE040E050E056
:102C70000E9409395F934F933F932F9382EF92E025
:102C80009F938F93FF92EF920E946A3945E853E039
:102C900061E070E080E090E00E94072460912A06E5
:102CA00070912B0680912C0690912D0628EE33E032
:102CB00040E050E00E9409395F934F933F932F9378
:102CC00089EF92E09F938F93FF92EF920E946A396F
:102CD00045E853E06DC088E095E00E94332340E072
:102CE00060E088E095E00E94402383E00E94BE23DC
:102CF00080911506882329F063E088E095E00E9422
:102D0000401580910406882329F065E088E095E06D
:102D10000E9440150E94E62389E293E00E94F82376
:102D200045E853E060E070E08AE090E00E9407240C
:102D300060912E0670912F06809130069091310699
:102D400020E13EE040E050E00E9409395F934F935C
:102D50003F932F9382EF92E09F938F9395E8E92E14
:102D600093E0F92EFF92EF920E946A39A70161E089
:102D700070E080E090E00E94072460912A06709144
:102D80002B0680912C0690912D0628EE33E040E032
:102D900050E00E9409395F934F933F932F9389EF3F
:102DA00092E09F938F93FF92EF920E946A39A7015E
:102DB00061E070E087E090E00E9407240FB6F8948D
:102DC000DEBF0FBECDBFA3C086E00E94BE2388E059
:102DD00095E00E94332340E060E088E095E00E94A7
:102DE00040238091160690911706A0911806B09185
:102DF0001906892B8A2B8B2B29F063E088E095E05C
:102E00000E94401580910406882329F065E088E03F
:102E100095E00E9440150E94E62380E293E00E9424
:102E2000F8238091160580688093160570C081E0B4
:102E30000E94BE236BEF72E085E193E046C081E023
:102E40000E94BE236FED72E00230D1F42BC081E00E
:102E50000E94BE236EEC72E025C081E00E94BE237A
:102E6000023061F40E946D24811103C085E193E07A
:102E700002C08AEE92E064EC72E027C064EC72E07B
:102E800080E090E00E944C2442C081E00E94BE237A
:102E9000023019F085E193E002C08AEE92E068EB1F
:102EA00072E013C08AEE92E010C085E00E94BE235B
:102EB00088E095E00E94332340E060E088E095E000
:102EC0000E94402384EA92E018C00E945E241FC042
:102ED0000E94D421811102C085E001C087E00E94D8
:102EE000BE2388E095E00E94332340E060E088E064
:102EF00095E00E9440238AE892E00E94F82345E88A
:102F000053E060E070E08AE090E00E940724809146
:102F1000F204897069F08091D70581FD09C081E0D4
:102F20000E94BE2360E872E080E090E00E944C24A2
:102F30008091280590912905A0912A05B0912B0533
:102F4000A5019401281B390B4A0B5B0BDA01C9015F
:102F5000883E9340A105B10518F4013009F054C230
:102F60008092280590922905A0922A05B0922B05FF
:102F70008091D70581FD05C08AEF810F823008F46A
:102F800051C00E9429145C836D837E83133009F045
:102F90008BC18091160587FFAFC08F778093160590
:102FA00060910D0670910E0680910F0690911006AB
:102FB000683E53E075078105910510F128EE33E076
:102FC00040E050E00E940939122F032F24E630E040
:102FD00040E050E00E9409393F932F930F931F93D5
:102FE00081E093E09F938F9385E893E09F938F9385
:102FF0000E946A390FB6F894DEBF0FBECDBF06C07F
:1030000069E772E085E893E00E94703845E853E094
:1030100060E070E08AE090E00E9407246DC001113A
:10302000A8CD86CF68E171E085E893E00E9463391E
:103030008091D905863049F4C090B105D090B20591
:10304000E090B305F090B40508C0C090C805D090DA
:10305000C905E090CA05F090CB050E94C82140EE5A
:10306000C40E43E9D41E44E0E41EF11CA7019601FE
:10307000261B370B480B590BCA01B90128EE33E068
:1030800040E050E00E940939C90137FDBDC16CE341
:1030900070E00E94F5389F938F937F936F9387E141
:1030A00093E09F938F9381EA93E09F938F930E9485
:1030B0006A3961EA73E085E893E00E9458390FB6F7
:1030C000F894DEBF0FBECDBF65E873E081E090E00D
:1030D00026960FB6F894DEBF0FBECDBFDF91CF911D
:1030E0001F910F91FF90EF90DF90CF90BF90AF9026
:1030F0009F908F900C94172460912E0670912F064C
:10310000809130069091310620E13EE040E050E0B1
:103110000E9409395F934F933F932F9382EF92E080
:103120009F938F9305E813E01F930F930E946A39D2
:10313000A80161E070E080E090E00E9407246091C7
:103140002A0670912B0680912C0690912D0628EE70
:1031500033E040E050E00E9409395F934F933F9382
:103160002F9389EF92E09F938F931F930F930E9469
:103170006A39A80161E070E087E090E00E940724CE
:103180008091F2040FB6F894DEBF0FBECDBF80FF72
:1031900071C00E9470152091F8043091F904211536
:1031A00096EF390751F1C9016AE070E00E94F538E5
:1031B00097FF03C09195819591099F938F93C901C2
:1031C0006AE070E00E94F5387F936F9389E093E0A6
:1031D0009F938F9385E893E09F938F930E946A3922
:1031E00045E853E061E070E080E090E00E94072451
:1031F0000FB6F894DEBF0FBECDBF2091FA04309118
:10320000FB04211546EF340751F1C9016AE070E073
:103210000E94F53897FF03C09195819591099F937E
:103220008F93C9016AE070E00E94F5387F936F9335
:1032300089E093E09F938F9385E893E09F938F932A
:103240000E946A3945E853E061E070E085E090E073
:103250000E9407240FB6F894DEBF0FBECDBF809149
:10326000F204982F9670963029F48B7F8093F204A5
:1032700081E006C082FDC8C084608093F20486E0CD
:1032800026960FB6F894DEBF0FBECDBFDF91CF916B
:103290001F910F91FF90EF90DF90CF90BF90AF9074
:1032A0009F908F900C94BE231E3F09F0ADC040E06C
:1032B00060E088E095E00E9440230E94E6238AE8CF
:1032C00092E00E94F8238E811F928F938D811F922E
:1032D0008F938C811F928F9382E193E09F938F93C2
:1032E00005E813E01F930F930E946A39A80161E07B
:1032F00070E080E090E00E9407240FB6F894DEBFF3
:103300000FBECDBF8091FE04882309F452C040E077
:1033100069E088E095E00E94402362E088E095E063
:103320000E94401566E088E095E00E94401580917B
:1033300000051F928F938091FF041F928F9387E166
:10334000E82E83E0F82EFF92EF921F930F930E94D6
:103350006A39A80160E070E08BE090E00E940724E9
:1033600041E069E088E095E00E94402361E088E068
:1033700095E00E94401566E088E095E00E944015C7
:10338000809102051F928F93809101051F928F9368
:10339000FF92EF921F930F930E946A390FB6F89431
:1033A000DEBF0FBECDBFA80161E070E08BE090E012
:1033B00017C01F92CF921F92DF9282E291E09F93FB
:1033C0008F931F930F930E946A390FB6F894DEBF54
:1033D0000FBECDBF45E853E060E070E08AE090E0CA
:1033E00026960FB6F894DEBF0FBECDBFDF91CF910A
:1033F0001F910F91FF90EF90DF90CF90BF90AF9013
:103400009F908F900C94072426960FB6F894DEBFF9
:103410000FBECDBFDF91CF911F910F91FF90EF9025
:10342000DF90CF90BF90AF909F908F900895CF93F3
:10343000DF93E5E8F3E080E0EF019191992311F04B
:103440008927FACF1F928F9381E293E09F938F9306
:10345000DF93CF930E946A398DE08B831C820F909B
:103460000F900F900F900F900F90DF91CF910895D4
:103470002F923F924F925F926F927F928F929F9284
:10348000AF92BF92CF92DF92EF92FF920F931F9372
:10349000CF93DF9300D000D000D0CDB7DEB7A89592
:1034A0000E94C82169837A838B839C831E821D823C
:1034B00001E0412C512C320110E0C12CD12C7601BD
:1034C0000E94C8214B015C01DC01CB0129813A81BA
:1034D0004B815C81821B930BA40BB50B8397A105D9
:1034E000B10508F090C088EB95E00E94F713FC014D
:1034F00001111CC091E031E0231632E0330608F4DC
:1035000090E081E0E13042E0F40708F480E09817B1
:1035100069F0D501C40184199509A609B709069770
:10352000A105B10518F01F5F24013501113018F411
:1035300000E01F01C5CF1330A0F01330C9F78D8113
:103540009E819C0140E050E0C701B6010E9409390C
:10355000DA01C90189019A0140E050E060E070E4BD
:103560001DC0CF01A0E0B0E0BC01CD0172508109C7
:1035700091099B01AC010E94C538C60ED71EE81EFA
:10358000F91E8D819E8101969E838D83D1CFE2E0CD
:103590007695679557954795EA95D1F784179507DE
:1035A000A607B707A0F380E090E0DC011EC06A0127
:1035B0007B01C80ED91EEA1EFB1EB695A7959795EE
:1035C00087950C151D052E053F0540F00C191D09AA
:1035D0002E093F09840F951FA61FB71FE2E07695BD
:1035E000679557954795EA95D1F7411551056105BE
:1035F0007105E9F68093090690930A06A0930B06DD
:10360000B0930C0609C01092090610920A06109297
:103610000B0610920C06A89526960FB6F894DEBFFE
:103620000FBECDBFDF91CF911F910F91FF90EF9013
:10363000DF90CF90BF90AF909F908F907F906F90D2
:103640005F904F903F902F90089580E090E00E940F
:1036500044226BE672E081E090E00E944C2480916D
:10366000D70586FD10C09EE088E10FB6F894A895B6
:10367000809360000FBE909360006CED75E080E079
:1036800090E00C948E2168EB7BE080E090E00E945B
:10369000CC13E9CFBC018DE592E00E945E246CED75
:1036A00075E080E090E00C948E2190E0FC01E75BF7
:1036B000FD4F2491FC01EB5CFD4F8491882399F030
:1036C00090E0880F991FFC01E55DFD4FA591B49135
:1036D000FC01EF5DFD4F859194918FB7F894EC91CB
:1036E000E22BEC938FBF0895CF93DF93482F50E0E8
:1036F00060E070E02AE08BE194E00E942426EC0177
:1037000067EA72E08BE194E00E9424298C0F9D1FF0
:10371000DF91CF910895811104C08091FC05882329
:10372000E1F060E08DEF95E00E944A1561E080E0F5
:1037300096E00E944A156CE271E080E090E00E9401
:103740008E2160E08DEF95E00E944A1560E080E0F8
:1037500096E00E944A151092FC0508958091D905C3
:103760008E5F823090F48091D7059091D8058B7F41
:103770009093D8058093D7058FEF8093DA05109248
:10378000D90580E090E00C94442208958091D905F9
:103790008E3FB9F080E090E00E9444228EEF80934B
:1037A000D9050E94C8216093EC057093ED058093C4
:1037B000EE059093EF0581E00E94861580E00C9461
:1037C00059280895CF938091D50580FD02C0C1E0AE
:1037D00001C0C2E081E090E0C13011F480E090E0EF
:1037E0000E948638982F8FEF890F8E3F20F0C130CE
:1037F00039F098E10BC0963078F0C13011F006C076
:103800009CE0892F993148F088E107C08091E60556
:10381000981718F4892F01C086E0CF910895CF92B0
:10382000DF92EF92FF92CF93DF930E94C8216B014A
:103830007C01D1E0C2E0CC2339F082EC95E00E941B
:103840005915811101C0C0E0DD23E9F085EC95E058
:103850000E9459158823B1F0D1E00E94C821DC01F3
:10386000CB018C199D09AE09BF094497A105B1058B
:1038700010F38D2F8C2BDF91CF91FF90EF90DF9085
:10388000CF900895D0E0C111E8CFF3CF811104C0EB
:103890008091FC0581111DC061E08DEF95E00E94D3
:1038A0004A1560E080E096E00E944A156CE271E003
:1038B00080E090E00E948E2160E08DEF95E00E9414
:1038C0004A1560E080E096E00E944A1581E080930E
:1038D000FC050895AF92BF92CF92DF92EF92FF92D4
:1038E0000F931F93CF93DF937C016B0184E6A82E87
:1038F000B12C0FEF13E0C0E0D0E087EB95E00E9421
:10390000F713C817D90728F08017910718F48C010E
:1039100001C0EC0121E0A21AB10879F78091A60557
:103920009091A705029739F10E94D4212091D705E3
:103930003091D805882311F0346001C03B7F30936B
:10394000D8052093D7058091D7059091D805CB361F
:10395000E3E0DE0748F09E7F92609093D805809365
:10396000D70597FF12C007C091609093D805809348
:10397000D70597FF0EC0E114F10479F0F701118328
:103980000083F601D183C08308C080E00E948B1BB6
:10399000F2CF80E00E94461CEECFDF91CF911F91C5
:1039A0000F91FF90EF90DF90CF90BF90AF90089570
:1039B000CF93DF93C82F88E10E9429238C2F0E9488
:1039C000C7130E94D12262E088E10E947224109203
:1039D000A8038093A7038AE995E00E94B40BD82F2F
:1039E000CC278AE995E00E94B40B9E01282BC901DF
:1039F000DF91CF9108953FB7F8948091AD039091F6
:103A0000AE03A091AF03B091B00326B5A89B05C04B
:103A10002F3F19F00196A11DB11D3FBFBA2FA92F4D
:103A2000982F8827820F911DA11DB11DBC01CD01CA
:103A300042E0660F771F881F991F4A95D1F70895B6
:103A4000CF93DF9300D000D000D0CDB7DEB7809108
:103A5000FE04882361F10E94CA23882399F10E9401
:103A600029142091FF048091000590E03CE3239FFE
:103A7000800D911D1124409101052091020530E037
:103A80007CE3479F200D311D112470E04CE3549FCF
:103A9000600D711D11242817390758F4681779072C
:103AA00058F02617370768F08617970728F480E044
:103AB00009C068177907D8F381E06217730710F01F
:103AC000F6CF81E026960FB6F894DEBF0FBECDBFCD
:103AD000DF91CF9108959091F204977F9093F20433
:103AE000A0913805B0913905109749F0ED91FC91FE
:103AF00011970280F381E02DCD0109951CC0811141
:103B00001CC08091D9058E5F8230C8F40E94AE1B24
:103B10008091FE04882379F00E94201D9091D905A0
:103B20009E3F81F0811110C08091FE04882319F01E
:103B300081E08093030580E0089581E008950E946C
:103B4000C61BE6CF8111F0CF10920305F4CF81118F
:103B500003C08AE293E002C087E293E09F938F93D1
:103B60001F9284E28F938DE293E09F938F9385E879
:103B700093E09F938F930E946A398DB79EB7089602
:103B80000FB6F8949EBF0FBE8DBF8091DA048823D4
:103B900061F067E572E085E893E00E9458396AEBCE
:103BA00074E085E893E00E9458392091F1042223C3
:103BB000E1F0E5E8F3E001900020E9F71F922F9390
:103BC0001F922AE32F9322E333E03F932F93CF01F9
:103BD00001979F938F930E946A398DB79EB708967D
:103BE0000FB6F8949EBF0FBE8DBF0E94171A65E8EE
:103BF00073E088EB94E00E94D2258091F004882342
:103C000029F06AE088EB94E00C94CC2508959C019F
:103C1000265031092E32310538F445E8489F90018D
:103C2000499F300D112414C09C01245331092D31BA
:103C30003105D8F4092E000CAA0BBB0B80569F4F00
:103C4000AF4FBF4F9C0185E0220F331F8A95E1F7EC
:103C500030938B0020938A0081E090E09093A70539
:103C60008093A60580E090E0089581E090E00895BB
:103C7000EF92FF920F931F93CF93DF93C82F062FDE
:103C8000142F8091D5059091D6057C0121E0E22288
:103C9000FF2480FD39C088E111110E94E21BC6306B
:103CA00038F08C1758F0C093E705C0E0D0E00AC0A8
:103CB00086E08093E705C1E0D0E004C08093E7058B
:103CC000C2E0D0E011110FC06091E705EF2811F4B8
:103CD00021E001C022E081E090E0213011F480E099
:103CE00090E00E949A388091A6059091A7050197CF
:103CF00029F48091E70590E00E94071E002339F027
:103D000081E00E94861503C08091E605C5CFCE01F3
:103D1000DF91CF911F910F91FF90EF900895CF9376
:103D2000DF93CEEFD4E081E0888361E084E090E02F
:103D30000E949A381D82E6EAF5E081A992A9906175
:103D400092AB81AB81E0DF91CF910C948615CF933C
:103D5000DF93CEEFD4E0188260E084E090E00E9430
:103D60009A381D82E6EAF5E081A992A99F7E92AB7E
:103D700081AB81E0DF91CF910C948615CF93C62F54
:103D80002091D5053091D605823051F421603093D1
:103D9000D6052093D50580E899EAA3E0B0E009C0F4
:103DA0002E7F3093D6052093D50580EC94EDA1E0CD
:103DB000B0E080931A0690931B06A0931C06B09364
:103DC0001D068091D5059091D6050E9407280E9476
:103DD000E21B41E060E00E94381ECC2321F081E02C
:103DE000CF910C948615CF910895E091D705F0916D
:103DF000D8058823F9F080931506A82FB0E020E8B5
:103E00003EEE46E350E00E94403960931606709300
:103E1000170680931806909319068091FE04882354
:103E200019F081E080930305F062F093D805E093E8
:103E3000D7050895109216061092170610921806CC
:103E40001092190610921506FF7DF093D805E093A5
:103E5000D7051092030508954091D7055091D805D4
:103E60008823E9F080930406282F30E0A4E8B3E02B
:103E70000E94313960930506709306068093070609
:103E8000909308068091FE04882319F081E08093C6
:103E9000030540615093D8054093D70508951092CB
:103EA0000506109206061092070610920806109258
:103EB00004064F7E5093D8054093D7051092030512
:103EC00008950F931F93CF938C0188E60E942923B6
:103ED00060E08AE995E00E947A0FF8012581CAE046
:103EE000822F6C2F0E94D538682F660F860F880F9F
:103EF000682F620F8AE995E00E947A0FF801248109
:103F0000822F6C2F0E94D538682F660F860F880F7E
:103F1000682F620F8AE995E00E947A0FF8012381E9
:103F2000822F6C2F0E94D538682F660F860F880F5E
:103F3000682F620F8AE995E00E947A0F60E08AE9B3
:103F400095E00E947A0FF8012281822F6C2F0E9447
:103F5000D538682F660F860F880F682F620F8AE9A1
:103F600095E00E947A0FF8012181822F6C2F0E9428
:103F7000D538682F660F860F880F682F620F8AE981
:103F800095E00E947A0FF8012081822F6C2F0E9409
:103F9000D538682F660F860F880F682F620F8AE961
:103FA00095E00E947A0F60E08AE995E00E947A0F1E
:103FB000CF911F910F910C94D122CF93C82F809154
:103FC000D7059091D80582609093D8058093D70546
:103FD00082E00E94861580E00E9459280E94060215
:103FE0008091A6059091A7050297C1F360E070E06B
:103FF00080E090E00E946A1C0E94D4218111EECFE3
:10400000CC2361F31092D9058091D7059091D80502
:104010008D7F9093D8058093D705CF910895CF9247
:10402000DF92EF92FF92CF93DF936C01990FEE082E
:10403000FF08F7FE1BC06DE288E095E00E94401586
:10404000EC0144275527BA014C195D096E097F0917
:104050002AE088E095E00E9424268C0F9D1FDF91C6
:10406000CF91FF90EF90DF90CF9008952AE0B701B5
:10407000A60188E095E0DF91CF91FF90EF90DF906F
:10408000CF900C942426CF93DF93C82F48E050E0C4
:1040900085E893E00E945C38809113058823B1F095
:1040A000C77088E0C89FB0011124606440E088E0D8
:1040B00095E00E940115C5E8D3E0699188E095E09C
:1040C0000E94401583E0CD38D807B9F7DF91CF9132
:1040D0000895CF93DF93EC0110928503662331F0AE
:1040E00064EB72E085E893E00E9463396C816111B2
:1040F00003C06AE373E00DC070E080E090E040E050
:104100000E94C40FBC0185E893E00E9458396EE319
:1041100073E085E893E00E94583965E873E081E038
:1041200090E0DF91CF910C941724CF93DF93FC01A3
:10413000C481FFE0CF9FE001112410928503662324
:1041400031F064EB72E085E893E00E9463392097D8
:1041500019F46AE373E02BC0CC33D10574F4BE01CB
:1041600080E090E040E00E94C40FBC0185E893E04D
:104170000E94583963E473E01AC0CE016CE370E02A
:104180000E94E138EC0180E090E040E00E94C40F22
:10419000BC0185E893E00E945839CD2B31F068E4EA
:1041A00073E085E893E00E9458396BE473E085E89A
:1041B00093E00E94583965E873E081E090E0DF9178
:1041C000CF910C94172490E0FC01E75CFC4F249104
:1041D000FC01E75BFD4F3491FC01EB5CFD4FE4918A
:1041E000EE2309F43CC0222339F1233091F038F456
:1041F0002130A9F0223001F584B58F7D12C027301F
:1042000091F02830A1F02430B9F4809180008F7DA6
:1042100003C0809180008F77809380000DC084B5AB
:104220008F7784BD09C08091B0008F7703C08091E3
:10423000B0008F7D8093B000F0E0EE0FFF1FEF5DC8
:10424000FD4FA591B4919FB7F894611104C08C9172
:104250003095382302C0EC913E2B3C939FBF0895CC
:104260001F93CF93DF93182FEB010E94551B2097CC
:1042700011F460E004C0CF3FD10539F461E0812F33
:10428000DF91CF911F910C94E320E12FF0E0E75CE8
:10429000FC4FE491E330F9F048F4E130B9F0E2305A
:1042A000A1F584B5806284BDC8BD34C0E730E9F0B3
:1042B000E83019F1E43049F5809180008062809304
:1042C0008000D0938B00C0938A0024C084B580689E
:1042D00084BDC7BD1FC0809180008068809380002E
:1042E000D0938900C093880015C08091B000806889
:1042F0008093B000C093B3000DC08091B000806285
:104300008093B000C093B40005C0C038D1050CF054
:10431000B5CFAFCFDF91CF911F9108958F929F922C
:10432000AF92BF92CF92DF92EF92FF926B017C012E
:104330000E94FB1C4B015C01C114D104E104F10497
:10434000F1F00E94FB1CDC01CB0188199909AA0934
:10435000BB09883E9340A105B10570F321E0C21A64
:10436000D108E108F10888EE880E83E0981EA11CB0
:10437000B11CC114D104E104F10419F7DDCFFF90A1
:10438000EF90DF90CF90BF90AF909F908F90089567
:104390002FB7F8946091A9037091AA038091AB03A1
:1043A0009091AC032FBF08958091D8058170089536
:1043B0008091320680FF30C08E7F809332066091FC
:1043C0002E0670912F06809130069091310661156E
:1043D00071058105910501F120E13EE040E050E0EA
:1043E0000E94093980912A0690912B06A0912C06F3
:1043F000B0912D06BA01A901480F591F6A1F7B1FF2
:1044000040932A0650932B0660932C0670932D063A
:104410008DE090E00C94A83808958091030660E048
:10442000882341F085E00E94E32060E086E00E945E
:10443000E32009C089EB95E00E944A1560E08CEB0F
:1044400095E00E944A1560E08FEB95E00E944A15C6
:104450008091D7059091D8058F7B9093D805809354
:10446000D7050E94C8216093EC057093ED058093F9
:10447000EE059093EF0510920D0610920E06109225
:104480000F061092100608952FB7F894009739F48C
:1044900040E45FE150938B0040938A0004C0109287
:1044A0008B0010928A009093A7058093A6052FBFDA
:1044B0000895A8951092AD051092AC0588EA95E094
:1044C0000E945915882321F081E08093AB0508955F
:1044D0001092AB050895EF92FF920F931F93CF9325
:1044E000DF93C4E1D0E0A89588EA95E00E945915D1
:1044F000882351F062E370E080E090E00E948E211A
:10450000219789F782E046C081E08093AD05109243
:10451000AC05CDE3D0E08FE2E82E82E8F82E03E38D
:1045200012E88091AC05811113C0219789F061E0F8
:104530008EEA95E00E944A15C7010197F1F760E005
:104540008EEA95E00E944A15C8010197F1F7E9CF7C
:10455000C8E2D0E0A89588EA95E00E945915882322
:1045600051F062E370E080E090E00E948E2121979C
:1045700089F783E00FC068EE73E080E090E00E946E
:10458000CC131092AB051092AD0581E09091AC0573
:10459000911180E0DF91CF911F910F91FF90EF90EB
:1045A000089530911A04313208F047C08091F70322
:1045B0008111FCCF9091330622E02093F70321E094
:1045C0002093F6032FEF2093F5031092F40330931A
:1045D000F303EAEFF3E0A3EDB3E020E0321721F0BC
:1045E00041914D932F5FFACF1092D2032091D203C5
:1045F000990F922B9093D2039091D103913041F473
:104600001092D1039091D2039093BB0095EC01C01E
:1046100095EE9093BC009091F7039230E1F3909166
:10462000F5039F3F79F08091F503803241F080914E
:10463000F503803331F084E005C081E003C082E0FF
:1046400001C083E01092F90310921A041092F8034B
:10465000089591E09093F803809333061092F90344
:1046600010921A040895FC012385222341F040E0B2
:1046700061E00E9401158BE39FE10197F1F7089536
:10468000CF93DF93CDB7DEB728970FB6F894DEBF90
:104690000FBECDBF9C01FC018385882321F188E0FA
:1046A000EAE2F1E0DE01119601900D928A95E1F7C0
:1046B000F9018781841710F44FEF480FFE013196FE
:1046C000E40FF11DE40FF11D9081690F606840E077
:1046D000C90128960FB6F894DEBF0FBECDBFDF919B
:1046E000CF910C94011528960FB6F894DEBF0FBE3B
:1046F000CDBFDF91CF910895CF93DF9390911205B5
:10470000992311F097E0892780FD03C020EC31E068
:1047100002C020E831E0309315052093140581FF95
:1047200009C020911405309115052F773093150598
:104730002093140582FF09C08091140590911505FE
:104740009E7F9093150580931405D0911405C09118
:1047500015058091110580620E94292382E10E9443
:10476000C7138D2F0E94C7138C2F0E94C7130E945E
:10477000D1228111FCCFDF91CF9108959091160540
:1047800090FF02C0811187E09091130591110C9464
:104790007C2308952091FF049091010521110AC006
:1047A00080910005811106C0911104C0809102051D
:1047B000882359F081E0291308C0209100059091C9
:1047C0000205291302C080E0089508958091030531
:1047D00081110DC08091FE04882349F00E94CA23F4
:1047E000882329F066E088E095E00C944015089550
:1047F00040E150E0BC0187E195E00E9477381092DB
:10480000270567E175E088E095E00C946D26CF936D
:10481000DF93EA01462F682F88E095E00E9440234D
:10482000BE0188E095E0DF91CF910C946D26EF9268
:10483000FF920F931F93CF93DF937B01482F60E08C
:1048400088E095E00E944023F70101900020E9F7FD
:104850003197CE2FCE19C13108F0C0E1DE2D87018E
:10486000802F8D1B8C1740F4F80161918F0188E037
:1048700095E00E944015F4CFC03139F060E288E045
:1048800095E00E944015CF5FF7CFDF91CF911F9148
:104890000F91FF90EF900895CF93DF93EC0140E1EB
:1048A00050E087E195E00E9477381092270567E194
:1048B00075E0CE01DF91CF910C941724CF93DF9355
:1048C000EB01BC0180E090E00E944C24BE0181E03D
:1048D00090E0DF91CF910C944C248091D605829585
:1048E000817008959091F7039111FCCF91E090931E
:1048F000F7039093F6032FEF2093F5031092F40340
:10490000260F2093F3039093D2039091D203880F44
:10491000892B8093D2038091D103813041F410928E
:10492000D1038091D2038093BB0085EC01C085EE5A
:104930008093BC008091F7038130E1F38091F40310
:10494000861710F46091F403A3EDB3E0E1EBF3E01C
:1049500080E0861721F09D9191938F5FFACF0895A3
:104960000895CF92DF92EF92FF920F931F93CF9310
:10497000DF936C017A018B01C0E0D0E0CE15DF053A
:1049800081F0D8016D918D01D601ED91FC910190DE
:10499000F081E02DC6010995892B11F02196EECF0B
:1049A0007E01C701DF91CF911F910F91FF90EF9092
:1049B000DF90CF900895FC01538D448D252F30E07A
:1049C000842F90E0821B930B541710F0CF9608951C
:1049D00001970895FC01918D828D981761F0828D69
:1049E000DF01A80FB11D5D968C91928D9F5F9F7323
:1049F000928F90E008958FEF9FEF0895FC01918DC5
:104A0000828D981731F0828DE80FF11D858D90E031
:104A100008958FEF9FEF0895FC01918D228D892FCE
:104A200090E0805C9F4F821B91098F7399270895B6
:104A30008BE194E00E940C2521E0892B09F420E011
:104A4000822F0895FC01848DDF01A80FB11DA35AA8
:104A5000BF4F2C91848D90E001968F739927848F9E
:104A6000A689B7892C93A089B1898C9183708064C1
:104A70008C93938D848D981306C00288F389E02D62
:104A800080818F7D80830895EF92FF920F931F9313
:104A9000CF93DF93EC0181E0888F9B8D8C8D9813F1
:104AA00005C0E889F989808185FD26C0F62E0B8D29
:104AB00010E00F5F1F4F0F731127E02E8C8DE8124F
:104AC0000CC00FB607FCFACFE889F989808185FF11
:104AD000F5CFCE010E942225F1CF8B8DFE01E80F8C
:104AE000F11DE35AFF4FF0829FB7F8940B8FEA89CC
:104AF000FB89808180620AC09FB7F894EE89FF89A4
:104B00006083E889F98980818370806480839FBF96
:104B100081E090E0DF91CF911F910F91FF90EF9096
:104B20000895CF93DF93EC01888D8823C9F0EA893B
:104B3000FB89808185FD05C0A889B9898C9186FD96
:104B40000FC00FB607FCF5CF808185FFF2CFA88993
:104B5000B9898C9185FFEDCFCE010E942225E7CF48
:104B6000DF91CF91089580E090E0892B29F00E9499
:104B7000182581110C940000089585ED8093BC00E8
:104B80008091BC0084FDFCCF1092F7030895FC01D6
:104B900010AE128212A208958BE194E00C94442589
:104BA0000E9453398BE194E00C9424291F920F92B8
:104BB0000FB60F9211242F933F934F935F936F93F0
:104BC0007F938F939F93AF93BF93EF93FF93E09166
:104BD0000201F09103010995FF91EF91BF91AF910F
:104BE0009F918F917F916F915F914F913F912F9105
:104BF0000F900FBE0F901F9018951F920F920FB637
:104C00000F9211242F933F934F935F936F937F9352
:104C10008F939F93AF93BF93EF93FF93E091000126
:104C2000F09101010995FF91EF91BF91AF919F9193
:104C30008F917F916F915F914F913F912F910F9045
:104C40000FBE0F901F9018958F929F92AF92BF92B8
:104C5000EF92FF920F931F93CF93DF93CDB7DEB701
:104C6000A1970FB6F894DEBF0FBECDBF7C01FA014D
:104C7000CB0119A2223008F42AE08E010F5D1F4FEC
:104C8000822E912CA12CB12CBF01A50194010E9470
:104C90000939F901CA01015011096A3014F4605D43
:104CA00001C0695CD8016C93232B242B252B61F761
:104CB000B801C7010E942429A1960FB6F894DEBF5F
:104CC0000FBECDBFDF91CF911F910F91FF90EF905D
:104CD000BF90AF909F908F9008950C9424291F92BD
:104CE0000F920FB60F9211242F933F934F935F9320
:104CF0006F937F938F939F93AF93BF93EF93FF93A4
:104D00008BE194E00E942225FF91EF91BF91AF913A
:104D10009F918F917F916F915F914F913F912F91D3
:104D20000F900FBE0F901F9018951F920F920FB605
:104D30000F9211242F938F939F93EF93FF93E09102
:104D40002B04F0912C048081E0913104F091320425
:104D500082FD12C09081809134048F5F8F73209107
:104D60003504821751F0E0913404F0E0E55EFB4F2A
:104D7000958F8093340401C08081FF91EF919F91C2
:104D80008F912F910F900FBE0F901F9018951F922B
:104D90000F920FB60F9211242F933F934F935F936F
:104DA0006F937F938F939F93AF93BF93EF93FF93F3
:104DB0008091B900887F803609F49CC068F58832FC
:104DC00009F45BC090F4803109F454C038F48823AE
:104DD00009F4EFC0883009F44DC0EFC0883109F400
:104DE0004CC0803209F45DC0E8C0803409F468C06A
:104DF00048F4803309F455C0883309F0DEC080934D
:104E0000F503D1C0803509F44FC0883509F45DC081
:104E1000883409F0D2C0CFC0883909F4C0C0A8F4E2
:104E2000883709F467C038F4883609F463C08037DE
:104E300009F460C0C2C0883809F4B1C0803909F4EF
:104E40005FC0803809F0B9C05BC0803B09F481C005
:104E500038F4803A09F466C0883A09F47AC0ADC0E3
:104E6000803C09F4A0C0883C09F49DC0883B09F44B
:104E700083C0A3C08091D20310C09091F4038091AD
:104E8000F303981770F5E091F40381E08E0F80939F
:104E9000F403F0E0ED52FC4F80818093BB0085EC81
:104EA0007FC08093F50387C0E091F40381E08E0F0B
:104EB0008093F4038091BB00F0E0ED52FC4F8083BF
:104EC0009091F4038091F30367C0E091F40381E0D3
:104ED0008E0F8093F4038091BB00F0E0ED52FC4F05
:104EE00080838091F603811166C081E08093D103B5
:104EF00084EA5AC083E08093F70310927C06CFCFF8
:104F000080917C06803208F04AC0E0917C0681E006
:104F10008E0F80937C068091BB00F0E0E45AF94F3D
:104F20008083BDCF80917C06803230F4E0917C0696
:104F3000F0E0E45AF94F10820E94BD2560917C0692
:104F400070E08CE596E0E0E0F0E0099510927C06D8
:104F50002AC084E08093F70310925B0610925A06F1
:104F6000E0E0F0E0099580915A06811105C081E0EA
:104F700080935A0610923A06E0915B0681E08E0F0C
:104F800080935B06F0E0E65CF94F80818093BB0084
:104F900090915B0680915A06981708F480CF85E8B7
:104FA0008093BC000AC085EC8093BC001092F7038C
:104FB00004C01092F5030E94BD25FF91EF91BF91AF
:104FC000AF919F918F917F916F915F914F913F91A1
:104FD0002F910F900FBE0F901F901895613298F48B
:104FE0002091F703243089F460935A06282FAAE30E
:104FF000B6E0FC018E2F821B861718F481918D93E9
:10500000F9CF80E0089581E0089582E00895BC0121
:1050100082E090E00C94B0381F928F931F9284E24C
:105020008F938FE493E09F938F9385E893E09F9312
:105030008F930E946A390E94171A8DB79EB70896FF
:105040000FB6F8949EBF0FBE8DBF65E873E088EB86
:1050500094E00C94D225CF93DF938091D9051F92D1
:105060008F931F9284E28F9387E593E09F938F93B2
:10507000C5E8D3E0DF93CF930E946A3909900020FE
:10508000E9F766EE70E0CE0101970E9470380E9449
:10509000171A8DB79EB708960FB6F8949EBF0FBE2D
:1050A0008DBF65E873E088EB94E0DF91CF910C94BD
:1050B000D225EF92FF921F93CF93DF939091340606
:1050C000911163C0C091D9051091DD05D091E7051C
:1050D0002091D7053091D80579019AE1E92291E232
:1050E000F922811121C0CC2309F451C0C13019F437
:1050F00030FF07C04DC0C23011F0C33011F430FF93
:1051000046C080913906C8130FC080913806181325
:105110000BC080913706D81307C080913506909157
:105120003606E816F90699F13F932F931F92DF9305
:105130001F921F931F92CF931F9284E28F9382E658
:1051400093E09F938F9385E893E09F938F930E94C2
:105150006A390E94171A65E873E088EB94E00E94B0
:10516000D225C093390610933806D0933706F092B3
:105170003606E09235068DB79EB70E960FB6F894B8
:105180009EBF0FBE8DBFC0E003C0C2E001C0C1E042
:105190008C2FDF91CF911F91FF90EF9008950F9387
:1051A0001F93CF93DF93EC0160E070E0CB01E991B6
:1051B000EE23A9F0AAE0B0E09B01AC010E944039C7
:1051C0004E2FEE0F550B9A01205331098901330FF1
:1051D000220B330B600F711F821F931FE8CFDF91EB
:1051E000CF911F910F910895FC0140E050E090E0B5
:1051F00021912223B9F04130510511F49295907F0D
:1052000080ED820F8A3010F4980F0CC08FEB820F64
:10521000863010F4275305C08FE9820F863048F49A
:105220002755920F4F5F5F4F4230510509F7892F85
:10523000089580E0089508958BE194E00C94EA24A9
:105240008BE194E00C940C256115710579F0FB015C
:1052500001900020E9F73197AF01461B570BDC01A5
:10526000ED91FC910280F381E02D099480E090E0C3
:1052700008951F920F920FB60F9211242F933F9310
:105280008F939F93AF93BF938091A9039091AA03AB
:10529000A091AB03B091AC0330917D0623E0230FC6
:1052A0002D3720F40196A11DB11D05C026E8230F5E
:1052B0000296A11DB11D20937D068093A9039093B2
:1052C000AA03A093AB03B093AC038091AD0390917C
:1052D000AE03A091AF03B091B0030196A11DB11D23
:1052E0008093AD039093AE03A093AF03B093B0034C
:1052F000BF91AF919F918F913F912F910F900FBED2
:105300000F901F901895CF93DF9300D000D01F927D
:10531000CDB7DEB7789484B5826084BD84B58160F2
:1053200084BD85B5826085BD85B5816085BD809170
:105330006E00816080936E001092810080918100E8
:1053400082608093810080918100816080938100E0
:10535000809180008160809380008091B1008460A2
:105360008093B1008091B00081608093B000809103
:105370007A00846080937A0080917A0082608093C2
:105380007A0080917A00816080937A0080917A001F
:10539000806880937A001092C1000FB6F894A895A7
:1053A00080916000886180936000109260000FBE61
:1053B00060E971E080E090E00E948E21E0912B0492
:1053C000F0912C0482E08083E0912704F09128047E
:1053D0001082E0912904F0912A0480E180831092E8
:1053E0003304E0912F04F091300486E08083E09153
:1053F0002D04F0912E04808180618083E0912D0442
:10540000F0912E04808188608083E0912D04F091DA
:105410002E04808180688083E0912D04F0912E0419
:1054200080818F7D808386E290E090932D0580932C
:105430002C0588E080932E0561E070E08CE295E019
:105440000E940D141092A8031092A7031092F90362
:1054500010921A041092F70381E08093F6031092E1
:10546000D10388B1806388B98091B9008E7F809321
:10547000B9008091B9008D7F8093B9008CE0809352
:10548000B80085E48093BC00A89510921605809121
:10549000110580620E94292380E00E94C7138FE1DA
:1054A0000E94C7130E94D122882339F080911305EE
:1054B000823019F4109213058CC08091110580621E
:1054C0000E9429238CE00E94C7138FE10E94C7131A
:1054D0000E94D122882321F080911305823051F35C
:1054E0008091110580620E94292381E00E94C713E8
:1054F00080E00E94C7130E94D12290911305882357
:1055000011F09230B9F2923019F481E080931305D2
:1055100080910C05886080930C0582E080930F05D4
:1055200010921005109215051092140513E068E30F
:1055300088E095E00E94EE1468E188E095E00E9422
:10554000EE141150A1F768E288E095E00E94EE1495
:1055500068E088E095E00E94EE1465E070E080E08D
:1055600090E00E948E2160910C05606240E088E02E
:1055700095E00E94011565E070E080E090E00E94F7
:105580008E2160910C05606240E088E095E00E9409
:10559000011565E070E080E090E00E948E218CE0D3
:1055A00080930D0580911305882331F040E06CE075
:1055B00088E095E00E94011588E095E00E94332381
:1055C00082E080930E0540E066E088E095E00E946E
:1055D000011580911305882319F087E00E947C2330
:1055E00087E00E94BE236CE171E080E00E944320CE
:1055F00064E171E081E00E9443206CE071E082E0B0
:105600000E94432064E071E083E00E9443206CEF3D
:1056100070E085E00E94432088E095E00E943323FB
:1056200062EF70E080E090E00E944C2440E150E0A6
:105630006CEE70E087E195E00E94773810922705C4
:1056400041E060E088E095E00E94402367E175E07A
:1056500088E095E00E946D2686EE90E00E94F82397
:105660006CED75E080E090E00E94CC13A89510925C
:10567000F0041092BA041092DA0457984F9B04C0B9
:1056800081E08093030602C01092030603E210E05B
:105690001093FE050093FD0588E08093FF058DEFD4
:1056A00095E00E94ED13109301060093000680E13F
:1056B0008093020680E096E00E94ED1381E00E9454
:1056C0008B1B1092D9051092DA0582E090E00E94BF
:1056D00094388C018F3F2FEF920751F090FF08C054
:1056E0008091160581608093160581E00E948615E1
:1056F00085E290E00E948638F82E8093D30586E2FA
:1057000090E00E9486388093D4058FEF8F0D8E3FF6
:1057100030F084E68093D3058FEF8093D4056AE35D
:1057200072E08BE194E00E946D268091D3050E9487
:10573000741B6AE472E08BE194E00E946D26809114
:10574000D4050E94741B80910306882339F085E0FC
:105750000E94551B86E00E94551B1AC083E290E010
:105760009093BA058093B90581E08093BB0589EBDE
:1057700095E00E94ED1389E290E09093BD0580933F
:10578000BC0580E88093BE058CEB95E00E94ED138C
:1057900083E290E09093C0058093BF0582E0809300
:1057A000C1058FEB95E00E94ED1389E2E82EF12C04
:1057B000F092C305E092C20588E08093C40561E0E1
:1057C00070E082EC95E00E940D14F092C605E09224
:1057D000C50580E18093C70561E070E085EC95E048
:1057E0000E940D14D0900306F092A905E092A8053E
:1057F00084E08093AA0560E070E088EA95E00E946A
:105800000D1489EA9FE0909301018093000180913B
:105810006900836080936900E89A86E08D83DD20CB
:1058200021F01D8283E290E002C089E290E02D81A8
:105830009093AF058093AE0581E001C0880F2A9553
:10584000EAF78093B0058EEA95E00E94ED130E947E
:1058500059220E940D221092800080E49FE19093D3
:1058600087008093860081E180938100229A809155
:10587000800080628093800080E090E00E9444225B
:105880000F3F3FEF130729F41092D6051092D5056C
:1058900009C01093D6050093D50500FD03C0FF2471
:1058A000F39402C012E0F12E0E946D24882369F067
:1058B0008091D5059091D60585FD07C080629093B3
:1058C000D6058093D505B2E0FB2E8BE090E00E94D8
:1058D00094388C01909312068093110689E090E031
:1058E0000E94943890931406809313060F3F1F4F25
:1058F00021F41092120610921106019631F48CEDEB
:1059000090E090931406809313061092090610926B
:105910000A0610920B0610920C0610920D061092B9
:105920000E0610920F061092100680E092E09093FF
:10593000D8058093D7058FEF91E00E948638809339
:10594000E60581508E3F18F080E58093E6051092C1
:10595000B50581E190E00E9486388093B6051092EB
:10596000CC0582E190E00E9486388093CD051092AC
:10597000CE051092CF051092D0051092D10583E18B
:1059800090E00E9486388093D2051092C80510924C
:10599000C9051092CA051092CB0581E00E945928D2
:1059A0008091D5059091D6058E719670892BD1F195
:1059B00083E00E94BE238091D50581FF04C08BEA5D
:1059C00091E00E944A1B8091D50582FF04C08AE9BC
:1059D00091E00E944A1B8091D50583FF04C08DE8A9
:1059E00091E00E944A1B8091D50584FF04C08DE799
:1059F00091E00E944A1B8091D5059091D60591FFB8
:105A000004C08FE691E00E944A1B8091D5059091D9
:105A1000D60592FF04C08FE591E00E944A1B87E003
:105A20000E94BE23A89580E090E00E9444226CE48E
:105A300071E086E591E00E945E248091D50585FDA8
:105A4000ECC066E970E080E090E00E948E2187EB78
:105A500095E00E94F7138C0182E090E00E944422BE
:105A60000B36134008F4CEC00E940F1C182F8091F3
:105A7000030661E0882321F085E00E94E32004C052
:105A800089EB95E00E944A1561E08FEB95E00E945A
:105A90004A156AEF70E080E090E00E948E210E943B
:105AA0000F1CE82E8091030660E0882321F085E03A
:105AB0000E94E32004C089EB95E00E944A1560E053
:105AC0008FEB95E00E944A156AEF70E080E090E06D
:105AD0000E948E218091030661E0882321F086E0F8
