:100000000C9480010C945B250C9434250C94B40161
:100010000C94B4010C94B4010C94B4010C94B4018C
:100020000C94B4010C94B4010C94B4010C94B4017C
:100030000C94B4010C94B4010C94B4010C94B4016C
:100040000C94EA240C94B4010C94A8250C948225F9
:100050000C94B4010C94B4010C94B4010C94B4014C
:100060000C94DA250C94B4014578697400526573D8
:1000700074617274204E6F773F0053657420446141
:1000800074652F54696D653F004D6F6E7468004450
:100090006179005965617200486F7572004D696E33
:1000A00075746500537461727420486F75720053E3
:1000B000746F7020486F7572005374617274204DB4
:1000C000696E0053746F70204D696E00352E322EAC
:1000D00031005665722E20004F70656E20455653D4
:1000E0004500000E0C1F03060C0800080C0E0C083F
:1000F000000000000E0E0E000000000E1517110E7D
:10010000000053656C66205465737400506F77650A
:1001100072204F6E0054656D706572617475726502
:100120002043686B004746492053656C6620546540
:10013000737400537475636B2052656C617920434E
:10014000686B0047726F756E6420436865636B006F
:1001500056656E7420526571276420436865636B31
:100160000044696F646520436865636B00496E698C
:100170007469616C697A6174696F6E2E2E005761C3
:100180006974696E6720666F7200000000080002E3
:100190000100000304070000000000000000382EEA
:1001A000322E332E54320000000000250028002B90
:1001B0000000000000240027002A000404040404B6
:1001C0000404040202020202020303030303030104
:1001D00002040810204080010204081020010204DB
:1001E000081020544553542044495341424C45443F
:1001F0000052657374617274696E672E2E2E00480A
:100200004947482054454D5000536C656570696EF0
:100210006700474643490054455354204641494CE2
:1002200045440044697361626C6564004F50454EFB
:100230002052454C415900535455434B2052454C94
:100240004159004E4F2047524F554E44004F56459E
:100250005243555252454E54004F56455220544534
:100260004D5045524154555245004746434920465A
:1002700041554C540053455256494345205245512F
:1002800055495245440044494F444520434845435D
:100290004B0056454E542052455155495245440055
:1002A00045565345204552524F520043686172678C
:1002B000696E6700436F6E6E6563746564005265B6
:1002C0006164790053657475700053657474696E68
:1002D00067730044656C61792054696D65720044F0
:1002E0006174652F54696D65005265737461727431
:1002F000004D61782043757272656E7400003B2773
:1003000011241FBECFEFD8E0DEBFCDBF14BE0FB6A5
:10031000F894A895809160008861809360001092A5
:1003200060000FBE13E0A0E0B1E0E6E9F1E702C033
:1003300005900D92A236B107D9F726E0A2E6B3E008
:1003400001C01D92AD35B207E1F711E0C0E8D1E080
:1003500004C02197FE010E949C35CF37D107C9F711
:100360000E94B5280C94C9380C94000020915104C7
:1003700081E0213208F040C080912D048111FCCF32
:100380008091500492E090932D0491E090932C047E
:100390009FEF90932B0410922A0420932904A0E34A
:1003A000B4E0E9E0F4E090E029132DC010920804D5
:1003B00090910804880F892B80930804809107048A
:1003C000813029F510920704809108048093BB00C6
:1003D00085EC8093BC0080912D048230E1F3809104
:1003E0002B048F3FB1F080912B048032A1F08091DB
:1003F0002B04803391F084E010922F04109251046A
:1004000010922E0408953D9131939F5FCDCF85EEDC
:10041000E0CF80E0F1CF82E0EFCF83E0EDCF91E05D
:1004200090932E048093500410922F041092510444
:1004300008959091380580913A0591110BC0209153
:100440003905211107C0811110C080913B05811130
:1004500003C00895981309C081E020913905909157
:100460003B05291303C080E0089581E00895909131
:100470002D049111FCCF91E090932D0490932C04C6
:100480002FEF20932B0410922A04260F2093290487
:100490009093080490910804880F892B8093080496
:1004A000809107048130D9F41092070480910804E8
:1004B0008093BB0085EC8093BC0080912D0481303B
:1004C000E1F380912A04861710F460912A04A9E0D0
:1004D000B4E0E7EEF3E080E0861303C0089585EE14
:1004E000EACF9D9191938F5FF7CF0E9437021092D0
:1004F000E6038093E50308958091060681700895D0
:100500009C01265031092E32310598F445E8489F68
:100510009001499F300D112430938B0020938A0065
:1005200081E090E09093D5058093D40590E080E041
:1005300008959C01245331092D31310578F4092E99
:10054000000CAA0BBB0B80569F4FAF4FBF4F9C01B7
:1005500085E0220F331F8A95E1F7DECF81E090E03E
:1005600008952FB7F894009761F440E45FE1509349
:100570008B0040938A009093D5058093D4052FBFBC
:10058000089510928B0010928A00F5CF90E0FC0144
:10059000E153FE4F249185549E4FFC0184918823A2
:1005A00099F090E0880F991FFC01EF54FE4FA59140
:1005B000B491FC01E955FE4F859194918FB7F89461
:1005C000EC91E22BEC938FBF0895809107068E3F4C
:1005D00048F08FEF809308061092070690E080E0C5
:1005E0000C94B10208950895CF92DF92EF92FF929A
:1005F0001F93CF93DF931092E403C4EED3E012E095
:100600002AE0C22ED12CE12CF12CA70196010E94E8
:100610005B35605D6A93B901CA01115061157105BE
:100620008105910591F7111684F3CE01DF91CF91E9
:100630001F91FF90EF90DF90CF90089590E0FC0124
:10064000E657FE4F2491FC01E153FE4F3491FC012B
:10065000E554FE4FE491EE23C9F0222339F0233014
:1006600001F1A8F4213019F1223029F1F0E0EE0F68
:10067000FF1FE955FE4FA591B4918FB7F894EC9107
:10068000611126C030953E233C938FBF08952730DB
:10069000A9F02830C9F0243049F7809180008F7D7F
:1006A00003C0809180008F7780938000DFCF84B576
:1006B0008F7784BDDBCF84B58F7DFBCF8091B00079
:1006C0008F778093B000D2CF8091B0008F7DF9CF2B
:1006D0003E2BDACF1F93CF93DF93182FEB010E94AD
:1006E000C602209739F460E0812FDF91CF911F91EE
:1006F0000C941E03CF3FD10511F461E0F5CFE12F3B
:10070000F0E0E657FE4FE491E33031F140F4E130A0
:10071000B1F0E230E1F0C038D1057CF7E4CFE7304A
:1007200029F1E83059F1E430B1F78091800080621E
:1007300080938000D0938B00C0938A0004C084B55E
:10074000806884BDC7BDDF91CF911F91089584B5A6
:10075000806284BDC8BDF7CF80918000806880939F
:100760008000D0938900C0938800EDCF8091B000C5
:1007700080688093B000C093B300E5CF8091B00053
:1007800080628093B000C093B400DDCF3FB7F8948F
:100790008091BF039091C003A091C103B091C203A7
:1007A00026B5A89B05C02F3F19F00196A11DB11DCC
:1007B0003FBFBA2FA92F982F8827BC01CD01620F08
:1007C000711D811D911D42E0660F771F881F991FC3
:1007D0004A95D1F708958F929F92AF92BF92CF9290
:1007E000DF92EF92FF926B017C010E94C6034B01E6
:1007F0005C01C114D104E104F104B9F00E94C60304
:10080000681979098A099B09683E73408105910539
:1008100080F321E0C21AD108E108F10888EE880EC1
:1008200083E0981EA11CB11CE4CFFF90EF90DF90F5
:10083000CF90BF90AF909F908F9008952FB7F8946E
:100840006091BB037091BC038091BD039091BE0386
:100850002FBF08950895AF92BF92CF92DF92EF928B
:10086000FF920F931F93CF93DF936C017B018B015A
:10087000040F151FEB015E01AE18BF08C017D107AA
:1008800059F06991D601ED91FC910190F081E02D34
:10089000C6010995892B79F7C501DF91CF911F9189
:1008A0000F91FF90EF90DF90CF90BF90AF900895A1
:1008B000FC01538D448D252F30E0842F90E0821B66
:1008C000930B541710F0CF96089501970895FC01EB
:1008D000918D828D981761F0A28DAE0FBF2FB11D43
:1008E0005D968C91928D9F5F9F73928F90E008959B
:1008F0008FEF9FEF0895FC01918D828D981731F055
:10090000828DE80FF11D858D90E008958FEF9FEFA8
:100910000895FC01918D228D892F90E0805C9F4F7E
:10092000821B91098F739927089582E594E00E94B4
:10093000890421E0892B09F420E0822F089580E0CA
:1009400090E0892B29F00E94950481110C940000FD
:100950000895FC01A48DA80FB92FB11DA35ABF4F54
:100960002C91848D90E001968F739927848FA689AE
:10097000B7892C93A089B1898C91837080648C9302
:10098000938D848D981306C00288F389E02D8081B1
:100990008F7D80830895EF92FF920F931F93CF93E3
:1009A000DF93EC0181E0888F9B8D8C8D98131AC0AA
:1009B000E889F989808185FF15C09FB7F894EE8991
:1009C000FF896083E889F9898081837080648083EE
:1009D0009FBF81E090E0DF91CF911F910F91FF9039
:1009E000EF900895F62E0B8D10E00F5F1F4F0F73E1
:1009F0001127E02E8C8D8E110CC00FB607FCFACF9C
:100A0000E889F989808185FFF5CFCE010E94A9048C
:100A1000F1CFEB8DEC0FFD2FF11DE35AFF4FF0826C
:100A20009FB7F8940B8FEA89FB8980818062CFCFD2
:100A3000CF93DF93EC01888D8823B9F0AA89BB8915
:100A4000E889F9898C9185FD03C0808186FD0DC000
:100A50000FB607FCF7CF8C9185FFF2CF808185FF21
:100A6000EDCFCE010E94A904E9CFDF91CF91089587
:100A700085ED8093BC008091BC0084FDFCCF10927A
:100A80002D040895613298F420912D04243089F4C6
:100A900060938E03282FAEE6B3E0FC018E2F821BFD
:100AA000861710F080E0089581918D93F7CF81E053
:100AB000089582E00895FC0110AE128212A20895FA
:100AC000CF93DF93EC0120E030E0A901E991EE2320
:100AD00091F0AAE0B0E00E94A9352E2FEE0F330B63
:100AE00020533109032E000C440B550B260F371FE2
:100AF000481F591FEBCFCA01B901DF91CF9108956B
:100B0000FC0190819923D9F080ED890F8A3050F053
:100B10008FEB890F863088F08FE9890F8630F0F4EB
:100B200089EA890F91819923D1F08295807F20ED08
:100B3000290F2A3030F4820F089589ECF2CF80E03B
:100B4000F1CF2FEB290F263018F49753890F089512
:100B50002FE9290F263010F49755F8CF80E008953B
:100B600082E594E00C94CB0482E594E00C94670455
:100B700082E594E00C948904CF93DF93EC0164EF59
:100B800071E080E090E00E94EB038C81882339F0D3
:100B9000813041F08EE795E0DF91CF91089588E8AC
:100BA00095E0FACF83E895E0F7CFCF92DF92EF920E
:100BB000FF926B017C01A89584E0C816D104E10482
:100BC000F10460F063E070E080E090E00E94EB03ED
:100BD00083E0C81AD108E108F108EDCFC701B601DA
:100BE000FF90EF90DF90CF900C94EB03DC01ED9140
:100BF000FC911197918112968C91892B8183089594
:100C00006115710561F061307105A1F4DC01ED91B0
:100C1000FC911197228112963C91232B2283DC01B7
:100C2000ED91FC911197218112968C9180958223F0
:100C3000818308950C94F605FC018081877080649F
:100C400080937C0080917A00806480937A00809108
:100C50007A0086FDFCCF809178009091790008950C
:100C600089E295E00E941C06E6E1F1E030E020E038
:100C70004381548160817181DA01A61BB70BBD01EC
:100C800076956795461B570B4817590758F0F90199
:100C9000EE0FFF1FE20FF31FEA5EFE4F828180938B
:100CA0002A0508952F5F3F4F33962530310501F710
:100CB00080E0F5CF2F923F924F925F926F927F929A
:100CC0008F929F92AF92BF92CF92DF92EF92FF925C
:100CD0000F931F93CF93DF9300D000D000D0CDB7F8
:100CE000DEB7A8950E941E0469837A838B839C8358
:100CF0001E821D8201E0412C512C320110E0C12CDA
:100D0000D12C76010E941E044B015C01DC01CB0159
:100D100029813A814B815C81821B930BA40BB50B1B
:100D20008397A105B10508F0A3C086EE95E00E9467
:100D30001C06FC0101111CC091E031E0231632E0D9
:100D4000330608F490E081E0E13042E0F40708F473
:100D500080E0981769F0D501C40184199509A609A6
:100D6000B7090697A105B10518F01F5F24013501E9
:100D7000113020F0133028F01330B9F000E01F01DB
:100D8000C1CFBF0190E080E07250810991099B01C1
:100D9000AC010E942B35C60ED71EE81EF91E8D81B0
:100DA0009E8101969E838D83E9CF8D819E819C01DA
:100DB00050E040E0C701B6010E945B3549015A018D
:100DC00080E090E0A0E0B0E4281739074A075B070D
:100DD00040F462E0B695A795979587956A95D1F707
:100DE000F3CF40E050E0BA010097A105B105F9F05A
:100DF0006C017D01C40ED51EE61EF71E7695679523
:100E0000579547958C149D04AE04BF0440F08C1890
:100E10009D08AE08BF08480F591F6A1F7B1F22E0BC
:100E2000B695A795979587952A95D1F7DDCF4093ED
:100E300038065093390660933A0670933B0626961F
:100E40000FB6F894DEBF0FBECDBFDF91CF911F91DB
:100E50000F91FF90EF90DF90CF90BF90AF909F9059
:100E60008F907F906F905F904F903F902F9008955C
:100E7000109238061092390610923A0610923B06EC
:100E8000A895DDCF0895E091E6038091E503E8178A
:100E900030F4F0E0E951FC4F808190E008958FEF4D
:100EA0009FEF08959091E6038091E5032FEF3FEFC8
:100EB000981748F4E92FF0E0E951FC4F208130E029
:100EC0009F5F9093E603C90108958091E503909197
:100ED000E603891B990B0895CF92DF92EF92FF9260
:100EE0000F931F93CF93DF937C01CB018A01209155
:100EF0002E04222389F0EB016B01C40ED51ECC1504
:100F0000DD0569F06991D701ED91FC910190F081C7
:100F1000E02DC7010995F3CF642F0E944205C80157
:100F2000DF91CF911F910F91FF90EF90DF90CF90C5
:100F30000895CF93DF931F92CDB7DEB769832091D9
:100F40002E042223F9F020915104203258F021E0A0
:100F500030E0FC013383228390E080E00F90DF914A
:100F6000CF91089580912F04E82FF0E0E05DFB4FD2
:100F7000998190838F5F80932F048093510481E047
:100F800090E0ECCF61E0CE0101960E944205F7CFE0
:100F9000682F88EC95E00C949907CF93C82F88E1CF
:100FA0000E940F028C2F0E94C8070E94B60162E0C7
:100FB00088E10E9437021092E6038093E50388ECF3
:100FC00095E00E945207C82F88EC95E00E945207D6
:100FD00020E03C2FA901482BCA01CF910895CF935F
:100FE000DF9390914B05992311F097E0892720EC2E
:100FF00031E080FF02C020E831E030934E052093BD
:101000004D0581FF09C020914D0530914E052F7788
:1010100030934E0520934D0582FF09C080914D0508
:1010200090914E059E7F90934E0580934D05D091F3
:101030004D05C0914E0580914A0580620E940F02C5
:1010400082E10E94C8078D2F0E94C8078C2F0E9442
:10105000C8070E94B6018111FCCFDF91CF9108959E
:1010600090914F0590FF02C0811187E090914C054F
:1010700091110C94EF070895DF92EF92FF920F9376
:101080001F93CF93DF9300D000D000D0CDB7DEB751
:1010900088E60E940F0260E088EC95E00E949907C4
:1010A0000E94B60167E070E088E690E00E94750259
:1010B00088EC95E00E9452078F77282F30E094E06B
:1010C000359527959A95E1F7922F990F990F122F41
:1010D000191B110F180F88EC95E00E9452079C0114
:1010E00044E0359527954A95E1F72F703327922FE5
:1010F000990F990F022F091B000F080F88EC95E03C
:101100000E9452079C0154E0359527955A95E1F7C6
:101110002F703327922F990F990FF22EF91AFF0C87
:10112000F80E88EC95E00E94520788EC95E00E944A
:1011300052079C0164E0359527956A95E1F72F7079
:101140003327922F990F990FE22EE91AEE0CE80E31
:1011500088EC95E00E9452079C0174E03595279534
:101160007A95E1F72F703327922F990F990FD22E8E
:10117000D91ADD0CD80E88EC95E00E945207AC011C
:10118000E4E055954795EA95E1F74F705527942F80
:10119000990F990F242F291B220F280F3D2DA701EE
:1011A000B80180E090E026960FB6F894DEBF0FBE3F
:1011B000CDBFDF91CF911F910F91FF90EF90DF9006
:1011C0000895CF93DF9300D000D000D0CDB7DEB725
:1011D00080913705882371F10E941902882351F10B
:1011E0000E943C08209138054CE38091390590E03D
:1011F000249F800D911D112470913A0520913B058B
:1012000030E0749F200D311D112470E0549F600D5B
:10121000711D112428173907B0F46817790730F0C9
:1012200026173707A8F08617970780F081E0621726
:10123000730760F426960FB6F894DEBF0FBECDBFDD
:10124000DF91CF9108956817790780F780E0F2CF9A
:1012500081E0F0CF1F93CF93DF93EC0188E60E94EB
:101260000F0260E088EC95E00E9499072D811AE05A
:10127000822F612F0E943B35682F660F680F660F23
:10128000620F88EC95E00E9499072C81822F612FD4
:101290000E943B35682F660F680F660F620F88EC5F
:1012A00095E00E9499072B81822F612F0E943B3588
:1012B000682F660F680F660F620F88EC95E00E943A
:1012C000990760E088EC95E00E9499072A81822FB7
:1012D000612F0E943B35682F660F680F660F620F03
:1012E00088EC95E00E9499072981822F612F0E9446
:1012F0003B35682F660F680F660F620F88EC95E02C
:101300000E9499072881822F612F0E943B35682F08
:10131000660F680F660F620F88EC95E00E949907D0
:1013200060E088EC95E00E949907DF91CF911F91D2
:101330000C94B601CF93C62FFC01818580620E9478
:101340000F0283E10E94C8078C2F0E94C8070E94E9
:10135000B6018111FCCFCF910895FF920F931F9397
:10136000CF93DF938C01D62FF42EFC01C58564FD4D
:10137000C061D5FDC860D6FDC460D7FDC260FF2046
:1013800029F1C06A6C2FC8010E949A096C2F6F7DE9
:10139000C8010E949A09F801C585D0FDC061D1FD40
:1013A000C860D2FDC460D3FDC260FF2089F0C06A6E
:1013B0006C2FC8010E949A096C2F6F7DC801DF91C4
:1013C000CF911F910F91FF900C949A09C062DACFD0
:1013D000C062EECFFC012385222319F041E00E9478
:1013E000AD0981E090E0089580913C0581110DC028
:1013F00080913705882349F00E941902882329F03B
:1014000066E081E495E00C94EA090895CF93DF93B8
:10141000CDB7DEB728970FB6F894DEBF0FBECDBFAD
:10142000FC012385222339F128E0E4E0F1E0DE012C
:10143000119601900D922A95E1F7FC01278124175E
:1014400010F44FEF420F50E0440F551F21E030E001
:101450002C0F3D1F420F531FFA012081620F60685D
:1014600040E028960FB6F894DEBF0FBECDBFDF91E7
:10147000CF910C94AD0928960FB6F894DEBF0FBE3D
:10148000CDBFDF91CF910895CF9341E060E081E43B
:1014900095E00E94060AC0E160E281E495E00E94C6
:1014A000EA09C150C9F741E060E081E495E0CF91DD
:1014B0000C94060AFC012385222341F040E061E000
:1014C0000E94AD098BE39FE10197F1F70895DC01DC
:1014D0001496EC91149715968C91E81740F4F0E06F
:1014E000EE0FFF1FE658FE4F80819181089581E441
:1014F00095E00E945A0A90E080E0089590E080E034
:101500000895FC0192810190F081E02D8281662393
:1015100019F0982B9283089590959823FBCF809192
:10152000370660E0882341F185E00E941E0360E0F9
:1015300086E00E941E0360E08DEE95E00E94810A25
:1015400080910506909106068F7B90930606809306
:1015500005060E941E0460931A0670931B06809372
:101560001C0690931D0610923C0610923D061092A8
:101570003E0610923F06089587EE95E00E94810A8C
:1015800060E08AEE95E00E94810AD5CF8091DB056C
:10159000882321F081E08093DA0508958091050683
:1015A00090910606806890930606809305060E9437
:1015B0008F0A90E080E00E94B10281E08093D9051B
:1015C000089560E08DE296E00E94810A61E080E388
:1015D00096E00E94810A6CE271E080E090E00E9457
:1015E000EB0360E08DE296E00E94810A60E080E318
:1015F00096E00E94810A10922C06089561E08DE227
:1016000096E00E94810A60E080E396E00E94810AF1
:101610006CE271E080E090E00E94EB0360E08DE21C
:1016200096E00E94810A60E080E396E00E94810AD1
:1016300081E080932C060895AF92BF92CF92DF9203
:10164000EF92FF920F931F93CF93DF937C016B0177
:1016500084E6A82EB12C0FEF13E0D0E0C0E085EEB9
:1016600095E00E941C06C817D90708F444C08017EB
:10167000910708F48C0121E0A21AB10881F780914A
:10168000D4059091D505029711F10E947C0220911A
:10169000050630910606882381F1346030930606F2
:1016A000209305068091050690910606CB36E3E06F
:1016B000DE0728F19E7F92609093060680930506D0
:1016C00097FD05C080912C0681110E94E10AE1146A
:1016D000F10431F0F70111830083F601D183C08357
:1016E000DF91CF911F910F91FF90EF90DF90CF90FE
:1016F000BF90AF900895EC01BECF3B7FCFCF9160FC
:10170000909306068093050697FDE1CF80912C0605
:101710008111DDCF0E94FE0ADACFFC01A081B181E8
:101720009C918281982381E009F480E00895A89536
:101730001092DB051092DA0586ED95E00E948D0B84
:10174000882321F081E08093D90508951092D9056E
:101750000895EF92FF920F931F93CF93DF93C4E10D
:10176000D0E0A89586ED95E00E948D0B882319F1B5
:1017700062E370E080E090E00E94EB03219789F73C
:1017800082E012C0C8E2D0E0A89586ED95E00E9404
:101790008D0B8823A1F162E370E080E090E00E946D
:1017A000EB03219789F783E0DF91CF911F910F9190
:1017B000FF90EF90089581E08093DB051092DA05A9
:1017C000CDE3D0E08FE2E82E82E8F82E03E312E8C2
:1017D0008091DA058111D6CF2197A1F261E08CEDDD
:1017E00095E00E94810AC7010197F1F760E08CED56
:1017F00095E00E94810AC8010197F1F7E9CF68EEF0
:1018000073E080E090E00E94D5051092D905109217
:10181000DB0581E09091DA05992331F280E0C4CFB5
:10182000CF92DF92EF92FF92CF93DF930E941E043C
:101830006B017C01D1E0C2E0CC2371F080EF95E038
:101840000E948D0B882341F0DD2389F008C0C1116F
:101850000EC0D0E0C0E016C0DD23D9F3C0E083EFB6
:1018600095E00E948D0BD82F882389F3D1E00E9448
:101870001E046C197D098E099F096431710581056B
:101880009105D0F28C2F8D2BDF91CF91FF90EF90AF
:10189000DF90CF90089580915C0680FF30C08E7FEE
:1018A00080935C06609158067091590680915A06A3
:1018B00090915B06611571058105910501F120E1AB
:1018C0003EE040E050E00E945B35809154069091EC
:1018D0005506A0915606B0915706BA01A901480FC6
:1018E000591F6A1F7B1F40935406509355066093FF
:1018F0005606709357068DE090E00C940E350895CF
:10190000EF92FF920F931F93CF93DF937B01482FAA
:1019100060E081E495E00E94060AE701099000205A
:10192000E9F72197CE19C13108F0C0E1DE2D87011A
:10193000802F8D1B8C1740F4F80161918F0181E499
:1019400095E00E94EA09F4CFC03139F060E281E409
:1019500095E00E94EA09CF5FF7CFDF91CF911F9109
:101960000F91FF90EF900895CF93DF93EC0140E14A
:1019700050E080E595E00E94DD341092600560E55E
:1019800075E0CE01DF91CF910C94800CCF93DF9363
:10199000EB01BC0190E080E00E94B40CBE0181E04C
:1019A00090E0DF91CF910C94B40CBC0183EE91E0F8
:1019B0000E94C60C6CED75E080E090E00C94EB03A7
:1019C00090E080E00E94B10261EF71E081E090E080
:1019D0000E94B40C8091050686FF06C068EB7BE090
:1019E00080E090E00E94D50588E19EE00FB6F89473
:1019F000A895809360000FBE909360006CED75E039
:101A000080E090E00C94EB03DC011496EC911497C9
:101A100015962C91E21740F4F0E0EE0FFF1FE65907
:101A2000FE4F808191810895FC0114820E94E00C98
:101A30008CEB95E00895FC0184818F5F8483958110
:101A4000981708F41482E48168E670E0E91750F40E
:101A5000F0E0EE0FFF1FE659FE4F0190F081E02D00
:101A60006281738181E090E00C94B40CFC011482DB
:101A70006281738190E080E00E94B40C6091B705B0
:101A80007091B80581E090E00C94B40CFC01848165
:101A90008F5F84839581981708F41482E48168E647
:101AA00070E0E91750F4F0E0EE0FFF1FE658FE4F2C
:101AB0000190F081E02D6281738181E090E00C94CF
:101AC000B40CCF93DF93EC011C826A817B8190E0A0
:101AD00080E00E94B40CEC81F0E0EE0FFF1FE658AE
:101AE000FE4F0190F081E02D6281738181E090E0F2
:101AF000DF91CF910C94B40CFC01148263ED72E081
:101B000090E080E00E94B40C6AE272E081E090E034
:101B10000C94800CFC0114826AE770E090E080E095
:101B20000E94B40C61E372E081E090E00C94800CC0
:101B3000FC0114826DE670E090E080E00E94B40C3D
:101B400061E372E081E090E00C94800CFB01019075
:101B50000020E9F73197AF01461B570BDC01ED91EF
:101B6000FC910280F381E02D09948F929F92AF92B5
:101B7000BF92EF92FF920F931F93CF93DF93CDB756
:101B8000DEB7A1970FB6F894DEBF0FBECDBF7C01C4
:101B9000FA01CB0119A2223008F42AE08E010F5D70
:101BA0001F4F822E912CB12CA12CBF01A5019401B5
:101BB0000E945B35F901CA016A300CF5605DD801FD
:101BC0006E938D01232B242B252B79F790E080E059
:101BD000109721F0BD01C7010E94A60DA1960FB676
:101BE000F894DEBF0FBECDBFDF91CF911F910F9153
:101BF000FF90EF90BF90AF909F908F900895695C99
:101C0000DECF6115710511F00C94A60D90E080E017
:101C10000895CF93DF93EA01462F682F81E495E082
:101C20000E94060ABE0181E495E0DF91CF910C94F9
:101C3000010ECF93DF93EC018C818F5F833098F49A
:101C40008C830E94440AEC81F0E0EE0FFF1FE45FFA
:101C5000FE4F4081518161E070E090E080E0DF91D3
:101C6000CF910C94090E1C82ECCFCF93DF93EC0143
:101C70008C818F5F823098F48C830E94440AEC81BF
:101C8000F0E0EE0FFF1FEE5EFE4F4081518161E0FC
:101C900070E090E080E0DF91CF910C94090E1C82FF
:101CA000ECCFCF93DF93EC018C818F5F823098F47F
:101CB0008C830E94440AEC81F0E0EE0FFF1FEE5E81
:101CC000FE4F4081518161E070E090E080E0DF9163
:101CD000CF910C94090E1C82ECCF40E150E0BC0186
:101CE00080E595E00E94DD341092600560E575E0C6
:101CF00081E495E00C94010ECF93DF93EC018C818D
:101D00008F5F823008F58C830E94440AEC8181E069
:101D100090913705911180E0E81318C045E352E037
:101D200061E070E090E080E00E94090EEC81F0E05C
:101D3000EE0FFF1FEE5EFE4F6081718181E495E042
:101D4000DF91CF910C94010E1C82DECFF0E0EE0FFC
:101D5000FF1FEE5EFE4F4081518161E070E090E038
:101D600080E0DF91CF910C94090ECF93DF93EC01CB
:101D700081E090913705911180E08C8363ED72E0F2
:101D800090E080E00E94B40C0E94440A45E352E0D7
:101D900061E070E090E080E00E94090EEC81F0E0EC
:101DA000EE0FFF1FEE5EFE4F6081718181E495E0D2
:101DB000DF91CF910C94010ECF93DF93EC0145E3BB
:101DC00052E061E070E090E080E00E94090EEC815A
:101DD000F0E0EE0FFF1FEE5EFE4F6081718181E447
:101DE00095E00E94010E64EF71E080E090E00E94B7
:101DF000EB038C81882329F08CEB95E0DF91CF9168
:101E0000089586EA95E0FACFCF93DF93EC0145E39E
:101E100052E061E070E090E080E00E94090EEC8109
:101E2000F0E0EE0FFF1FEE5EFE4F6081718181E4F6
:101E300095E00E94010E64EF71E080E090E00E9466
:101E4000EB038C81811102C00E94E00C90E080E0E5
:101E5000DF91CF9108956115710521F082E594E03D
:101E60000C94A60D90E080E00895CF93DF93E3EC0F
:101E7000F3E080E0EF019191992311F08927FACFE7
:101E80001F928F9387E392E09F938F93DF93CF937B
:101E90000E94F1358DE08B831C820F900F900F9084
:101EA0000F900F900F90DF91CF9108951F928F9315
:101EB0001F9284E28F938DE392E09F938F9383EC44
:101EC00093E09F938F930E94F1350E94350F8DB759
:101ED0009EB708960FB6F8949EBF0FBE8DBF63ECF9
:101EE00073E08FEE94E00C942B0FEF92FF921F9310
:101EF000CF93DF9390916D03C2E0911117C0C09111
:101F0000070610910B06D091150620910506309119
:101F1000060679019AE1E92291E2F922811128C0AD
:101F2000CC2379F0C13049F430FF0FC08C2FDF9102
:101F3000CF911F91FF90EF900895C23021F430FDB2
:101F400004C0C1E0F3CFC330D1F380916C03C81358
:101F50000FC080916B0318130BC080916A03D813D4
:101F600007C08091680390916903E816F90649F368
:101F70003F932F931F92DF931F921F931F92CF9334
:101F80001F9284E28F9385E492E09F938F9383EC7A
:101F900093E09F938F930E94F1350E94350F63EC7D
:101FA00073E08FEE94E00E942B0FC0936C031093AC
:101FB0006B03D0936A03F0926903E09268038DB7D4
:101FC0009EB70E960FB6F8949EBF0FBE8DBFC0E0B1
:101FD000ADCFCF93DF93EC018091030680FF41C02A
:101FE00086E08D83809114068E838FE592E09F9327
:101FF0008F9382E692E09F938F9383EC93E09F937D
:102000008F930E94F13563EC73E090E080E00E94D2
:10201000800C909115069C838D810F900F900F90EE
:102020000F900F900F90981708F48C838C811F925B
:102030008F9381E792E09F938F9383EC93E09F933C
:102040008F930E94F1350F900F900F900F900F908B
:102050000F9063EC73E081E090E0DF91CF910C94FE
:10206000800C86E08D8388E18E838CE592E0BFCF83
:10207000CF93DF93809107061F928F931F9284E284
:102080008F9386E792E09F938F93C3ECD3E0DF9327
:10209000CF930E94F13509900020E9F76EE971E0D5
:1020A000CE0101970E94D6340E94350F8DB79EB79E
:1020B00008960FB6F8949EBF0FBE8DBF63EC73E019
:1020C0008FEE94E0DF91CF910C942B0F8F929F9223
:1020D000AF92BF92CF92DF92EF92FF920F931F9336
:1020E000CF93DF9300D000D000D0CDB7DEB7082F5C
:1020F0001091070680914F0586FF05C08CEF810F78
:102100008B3008F03CC480910306E2E0DE2E80FDB7
:1021100002C0DD24D394C09015060E941E044B011A
:102120005C019091070680910806981303C0002374
:1021300009F442C028EE820E23E0921EA11CB11CBD
:102140008091050681FD02E01F92CF921F92DF92DF
:1021500082E391E09F938F9373ECE72E73E0F72E69
:10216000FF92EF920E94F1350FB6F894DEBF0FBEDA
:10217000CDBF173009F483C208F084C1133009F4CD
:1021800015C208F06FC1113009F499C1123009F479
:10219000FBC180912B0580FD02C083FF0DC08091A3
:1021A000050681FD09C081E00E9430086FEF71E0F3
:1021B00090E080E00E94B40C8091610590916205EE
:1021C000A0916305B0916405A5019401281B390B0A
:1021D0004A0B5B0BDA01C901883E9340A105B105AA
:1021E00018F4013009F0CBC380926105909262052A
:1021F000A0926305B09264058091050681FD05C03B
:102200008AEF810F823008F498C20E943C085C83F8
:102210006D837E83133009F01AC380914F0587FFC9
:1022200047C08F7780934F0560913C0670913D06C3
:1022300080913E0690913F0628EE33E040E050E06A
:102240000E945B35890124E630E040E050E00E94C6
:102250005B352530310514F00F5F1F4F8091150657
:102260001F928F931F930F9385E992E09F938F9313
:1022700003EC13E01F930F930E94F1354CE952E0F9
:1022800070E060E089E090E00E94090EF8010190A2
:102290000020E9F7A80170E060E084ED93E08E1B78
:1022A0009F0B0E94090E0FB6F894DEBF0FBECDBF84
:1022B000609158067091590680915A0690915B067C
:1022C00020E13EE040E050E00E945B355F934F9399
:1022D0003F932F9381E892E09F938F9303EC13E059
:1022E0001F930F930E94F135A80161E070E090E028
:1022F00080E00E94090E609154067091550680910D
:1023000056069091570628EE33E040E050E00E94D8
:102310005B355F934F933F932F9388E892E09F93B1
:102320008F931F930F930E94F135A80161E070E035
:1023300087E090E00E94090E80912B050FB6F8947B
:10234000DEBF0FBECDBF80FF63C20E94440A209152
:10235000310530913205211596EF390751F1C90148
:102360006AE070E00E94473597FF03C09195819520
:1023700091099F938F93C9016AE070E00E944735ED
:102380007F936F9384EA92E09F938F9383EC93E023
:102390009F938F930E94F13543EC53E061E070E02E
:1023A00090E080E00E94090E0FB6F894DEBF0FBEE9
:1023B000CDBF20913305309134052115F6EF3F074D
:1023C00051F1C9016AE070E00E94473597FF03C0F0
:1023D0009195819591099F938F93C9016AE070E06F
:1023E0000E9447357F936F9384EA92E09F938F9387
:1023F00083EC93E09F938F930E94F13543EC53E07D
:1024000061E070E085E090E00E94090E0FB6F8945C
:10241000DEBF0FBECDBF80912B05282F30E0A90174
:10242000559547955595479540FFF4C135952795A6
:1024300020FFA5C28B7F80932B0581E026960FB6E7
:10244000F894DEBF0FBECDBFDF91CF911F910F91EA
:10245000FF90EF90DF90CF90BF90AF909F908F90C4
:102460000C943008153009F4C4C008F4B8C081E0F9
:102470000E9430086AE672E0023009F015C185E773
:1024800092E0B4C01B3009F4BAC058F4193009F412
:1024900036C108F40EC181E00E94300869E572E09F
:1024A000EECF1E3F09F433C108F00FC11E3009F012
:1024B00070CE81E00E9430086CE272E0E0CF81E4EF
:1024C00095E00E945A0A40E060E081E495E00E94B5
:1024D000060A82E00E9430080E94F4098EEB92E026
:1024E0000E946D0E43EC53E070E060E08AE090E003
:1024F0000E94090E609158067091590680915A0603
:1025000090915B0620E13EE040E050E00E945B35A8
:102510005F934F933F932F9381E892E09F938F9324
:10252000FF92EF920E94F13543EC53E061E070E0DE
:1025300090E080E00E94090E60915406709155066B
:10254000809156069091570628EE33E040E050E027
:102550000E945B355F934F933F932F9388E892E0FF
:102560009F938F93FF92EF920E94F13543EC53E0DB
:1025700061E070E087E090E00E94090E0FB6F894E9
:10258000DEBF0FBECDBF05CE81E495E00E945A0AA2
:1025900040E060E081E495E00E94060A83E00E944A
:1025A00030080E94F40984EB92E09ACF86E00E9402
:1025B000300881E495E00E945A0A40E060E081E43E
:1025C00095E00E94060A0E94F4098BEA92E00E94BC
:1025D0006D0E80914F05806880934F05DACD81E0C4
:1025E0000E94300862E972E080EA92E00E94C60C24
:1025F000D0CD81E00E94300866E872E0F5CF81E03E
:102600000E94300865E772E090E080E00E94B40C20
:102610006DE472E083EC93E00E94D634F701019000
:102620000020E9F77F0160913C0670913D068091A2
:102630003E0690913F0628EE33E040E050E00E94D5
:102640007D358091150690E0281B390B3F932F9321
:1026500080E992E09F938F93C70101979F938F9397
:102660000E94F13563EC73E081E090E00E94800C01
:102670000F900F900F900F900F900F908ACD81E0E8
:102680000E943008023071F4809103069091040694
:1026900094FF05C085E792E063E472E0A7CF80EA8B
:1026A00092E0FACF63E472E090E080E00E94B40C24
:1026B00070CD81E00E94300885E792E0023011F091
:1026C00080EA92E067E372E091CF85E00E943008F3
:1026D00081E495E00E945A0A40E060E081E495E0E0
:1026E0000E94060A83E292E00E946D0E43EC53E0E2
:1026F00070E060E08AE090E00E94090E4ACD81E03F
:102700000E94300862E172E087E192E06FCF0E94A0
:102710007C02882381F087E00E94300881E495E004
:102720000E945A0A40E060E081E495E00E94060AB7
:1027300089E092E0D9CF85E0EFCF68E271E083ECE9
:1027400093E00E94EA3580910706863009F057C071
:10275000C090DF05D090E005E090E105F090E20543
:102760000E941E0440EEC40E43E9D41E44E0E41E61
:10277000F11CA7019601261B370B480B590BCA0108
:10278000B90128EE33E040E050E00E945B35C9011A
:1027900037FDF5C06CE370E00E9447359F938F933F
:1027A0007F936F9382EB92E09F938F938FED93E0F3
:1027B0009F938F930E94F1356FED73E083EC93E06C
:1027C0000E94DF350FB6F894DEBF0FBECDBF63ECBD
:1027D00073E081E090E026960FB6F894DEBF0FBE5E
:1027E000CDBFDF91CF911F910F91FF90EF90DF90C0
:1027F000CF90BF90AF909F908F900C94800CC09022
:10280000F605D090F705E090F805F090F905A8CF0F
:1028100082FDB5C0846080932B0586E00FCE1F92A9
:10282000CF921F92DF9282E391E09F938F931F9349
:102830000F930E94F1350FB6F894DEBF0FBECDBFE7
:1028400043EC53E070E060E08AE090E084C01E3F1B
:1028500009F095C040E060E081E495E00E94060A3E
:102860000E94F40989E092E00E946D0E8E811F9211
:102870008F938D811F928F938C811F928F938DEAFE
:1028800092E09F938F9303EC13E01F930F930E94AA
:10289000F135A80161E070E090E080E00E94090E4F
:1028A0000FB6F894DEBF0FBECDBF809137058823E9
:1028B00009F4B5CF40E069E081E495E00E94060AA2
:1028C00062E081E495E00E94EA0966E081E495E037
:1028D0000E94EA09809139051F928F9380913805F3
:1028E0001F928F9382EBE82E82E0F82EFF92EF92F8
:1028F0001F930F930E94F135A80170E060E08BE018
:1029000090E00E94090E41E069E081E495E00E94B8
:10291000060A61E081E495E00E94EA0966E081E44C
:1029200095E00E94EA0980913B051F928F93809168
:102930003A051F928F93FF92EF921F930F930E947D
:10294000F1350FB6F894DEBF0FBECDBFA80161E030
:1029500070E08BE090E026960FB6F894DEBF0FBED5
:10296000CDBFDF91CF911F910F91FF90EF90DF903E
:10297000CF90BF90AF909F908F900C94090E2696A9
:102980000FB6F894DEBF0FBECDBFDF91CF911F9180
:102990000F91FF90EF90DF90CF90BF90AF909F90FE
:1029A0008F900895809107068E3FB9F090E080E007
:1029B0000E94B1028EEF809307060E941E0460936E
:1029C0001A0670931B0680931C0690931D0681E0E7
:1029D0000E94661080E00C94750F0895CF93C82F65
:1029E00080912B05877F80932B05809171059091B5
:1029F0007205009759F0DC01ED91FC910280F381A2
:102A0000E02D0995C0E08C2FCF910895C111FBCF27
:102A1000809107068E3FB0F00E94E5028091370555
:102A2000882389F30E94E108909107069E3F69F48C
:102A3000882369F080913705882329F381E080930A
:102A40003C05E1CF0E94D214E9CF882399F310927C
:102A50003C05D9CF81115BC08FEB92E09F938F93A0
:102A60001F9284E28F9382EC92E09F938F9383EC8A
:102A700093E09F938F930E94F1358DB79EB7089690
:102A80000FB6F8949EBF0FBE8DBF809111058823AD
:102A900061F062EA72E083EC93E00E94DF3561EF5F
:102AA00074E083EC93E00E94DF3520912805222317
:102AB000E9F083EC93E0FC0101900020E9F7CF01FD
:102AC0001F922F931F922AE32F9327EC32E03F931C
:102AD0002F9301979F938F930E94F1358DB79EB7E7
:102AE00008960FB6F8949EBF0FBE8DBF0E94350F9B
:102AF00063EC73E08FEE94E00E942B0F809127052A
:102B0000882341F06AE08FEE94E00C94B0058CEBE2
:102B100092E0A4CF08951F93CF93DF93D82FC62FB1
:102B2000142F1092C303411106C065E372E083ECD9
:102B300093E00E94DF356D2F70E090E080E00E940E
:102B4000F402BC0183EC93E00E94DF356FEC72E08D
:102B500083EC93E00E94DF35113031F465E372E0DD
:102B600083EC93E00E94DF356C2F70E090E080E012
:102B70000E94F402BC0183EC93E00E94DF3563EC19
:102B800073E081E090E0DF91CF911F910C94800C75
:102B9000FC0184818F5F8C3338F4848341E064814D
:102BA000809166030C948B151482F8CFCF93DF933A
:102BB000EC0163EC70E090E080E00E94B40C609166
:102BC00067036C8341E080916603DF91CF910C94A1
:102BD0008B15FC0184818F5F8C3338F4848341E052
:102BE0006481809166030C948B151482F8CFCF9387
:102BF000DF93EC0169EB70E090E080E00E94B40CA0
:102C0000609167036C8341E080916603DF91CF910F
:102C10000C948B15FC0184818093660340E06091E5
:102C200067030E948B1564EF71E080E090E00E94E2
:102C3000EB0384E795E00895FC0184818F5F883180
:102C400038F4848340E06091670384810C948B1591
:102C50001482F8CFCF93DF93EC016FEA70E090E03D
:102C600080E00E94B40CE7E3F5E083818093660383
:102C70006481609367038C8340E0DF91CF910C9473
:102C80008B15FC0184818093660340E060916703AB
:102C90000E948B1564EF71E080E090E00E94EB03EE
:102CA00089E795E00895FC0184818F5F883138F4CD
:102CB000848340E06091670384810C948B151482B7
:102CC000F8CFCF93DF93EC0164EA70E090E080E00E
:102CD0000E94B40CE7E3F5E0818180936603628192
:102CE000609367038C8340E0DF91CF910C948B1548
:102CF000CF92DF92EF92FF920F931F93CF93DF93C8
:102D00006C01F62E142FD22FCE2D1092C303E1109A
:102D100006C065E372E083EC93E00E94DF356F2D1F
:102D200070E090E080E00E94F402BC0183EC93E04C
:102D30000E94DF3561ED72E083EC93E00E94DF35A5
:102D4000C13031F465E372E083EC93E00E94DF353B
:102D5000612F70E090E080E00E94F402BC0183ECFF
:102D600093E00E94DF3561ED72E083EC93E00E9416
:102D7000DF35C23031F465E372E083EC93E00E940A
:102D8000DF35B60190E080E00E94F402BC0183ECE4
:102D900093E00E94DF3562EA72E083EC93E00E94E8
:102DA000DF35C33031F465E372E083EC93E00E94D9
:102DB000DF356D2F70E090E080E00E94F402BC01EE
:102DC00083EC93E00E94DF356FEC72E083EC93E0DC
:102DD0000E94DF35C43031F465E372E083EC93E0A8
:102DE0000E94DF35602F70E090E080E00E94F402E6
:102DF000BC0183EC93E00E94DF3563EC73E081E07B
:102E000090E0DF91CF911F910F91FF90EF90DF90B5
:102E1000CF900C94800CAF92BF92CF92DF92EF9242
:102E2000FF920F931F93CF93DF9300D000D000D079
:102E3000CDB7DEB7FC01148110936703F0906603F1
:102E4000B0906503A0906403C0906203D0906303C8
:102E500084E0E82E012F2F2D4B2D6A2DC6010E94F4
:102E60007816F0EDCF16F7E0DF0620F080EDC81AF7
:102E700087E0D80AC982AA82BB82FC821D831E8297
:102E8000CE0101960E942A0964EF71E080E090E093
:102E90000E94EB038CEB95E026960FB6F894DEBF0C
:102EA0000FBECDBFDF91CF911F910F91FF90EF909B
:102EB000DF90CF90BF90AF900895EF920F93CF9394
:102EC000DF93EC018C818F5F8C33B8F48C830E948C
:102ED000440A84E0E82E0C8120916603409165034A
:102EE0006091640380916203909163030E9478165D
:102EF000DF91CF910F91EF9008951C82E8CFEF9270
:102F00000F93CF93DF93EC016DE970E090E080E0E8
:102F10000E94B40C009167030C8384E0E82E20919A
:102F20006603409165036091640380916203909110
:102F300063030E947816DF91CF910F91EF9008956F
:102F4000EF920F93FC0124812093660383E0E82E27
:102F5000009167034091650360916403809162036F
:102F6000909163030E94781664EF71E080E090E036
:102F70000E94EB0382E995E00F91EF900895EF92A4
:102F80000F93CF93DF93EC018C818F5F8831B8F47E
:102F90008C830E94440A83E0E82E009167032C8111
:102FA0004091650360916403809162039091630393
:102FB0000E947816DF91CF910F91EF9008951C82B7
:102FC000E8CFEF920F93CF93DF93EC0168E970E0C5
:102FD00090E080E00E94B40C209166032C8383E093
:102FE000E82E00916703409165036091640380912E
:102FF0006203909163030E947816DF91CF910F9145
:10300000EF900895EF920F93FC01848190E09093EC
:1030100063038093620322E0E22E00916703209114
:10302000660340916503609164030E94781664EF23
:1030300071E080E090E00E94EB0387E995E00F915A
:10304000EF900895EF920F93FC0184818F5F82329D
:1030500090F48483848192E0E92E009167032091AB
:103060006603409165036091640390E00E947816C6
:103070000F91EF90089587E1ECCFEF920F93CF93EC
:10308000DF93EC0163E970E090E080E00E94B40C13
:103090008091620399EE980F9B30A0F48C838C8111
:1030A00092E0E92E00916703209166034091650349
:1030B0006091640390E00E947816DF91CF910F91A8
:1030C000EF90089587E18C8387E190E0909363030C
:1030D00080936203E4CFEF920F93FC01448140930D
:1030E0006503EE24E39400916703209166036091E9
:1030F000640380916203909163030E94781664EFE9
:1031000071E080E090E00E94EB038CE995E00F9184
:10311000EF900895EF920F93CF93DF93EC018C81A2
:103120008F5F8032B8F48C830E94440AEE24E394CB
:1031300000916703209166034C8160916403809144
:103140006203909163030E947816DF91CF910F91F3
:10315000EF90089581E0E7CFEF920F93CF93DF9345
:10316000EC016FE870E090E080E00E94B40C4091C8
:1031700065034C83EE24E39400916703209166037A
:103180006091640380916203909163030E947816BA
:10319000DF91CF910F91EF900895EF920F93FC0183
:1031A000648160936403E12C0091670320916603BE
:1031B0004091650380916203909163030E947816A9
:1031C00064EF71E080E090E00E94EB0381EA95E01B
:1031D0000F91EF900895EF920F93CF93DF93EC014F
:1031E0008C818F5F8D30B0F48C830E94440AE12C77
:1031F0000091670320916603409165036C81809183
:103200006203909163030E947816DF91CF910F9132
:10321000EF90089581E0E8CFEF920F931F93CF9343
:10322000DF9300D000D000D0CDB7DEB78C0169E8C5
:1032300070E090E080E00E94B40C0E943C08822F75
:10324000252F309364034093650390E090936303CC
:10325000809362035093660360936703F80134839D
:10326000E12C062F632F0E94781626960FB6F8944D
:10327000DEBF0FBECDBFDF91CF911F910F91EF90B9
:103280000895CF9380910306C1E080FDC2E081E004
:1032900090E0C13011F490E080E00E94EC349FEFA8
:1032A000980F9E3F20F080E2C13009F48CE09091AD
:1032B00007069250923028F490912A05981708F446
:1032C000892F96E0863030F0C13039F4982F89315B
:1032D00008F098E1892FCF910895909114068917ED
:1032E000C8F7982FF7CF0F931F93CF93DF93D82F63
:1032F000062F142F80910306C091140680FFC8E1A9
:10330000112319F00E944119C82F8091070682509D
:10331000823038F40E943006882319F08C1708F4A4
:10332000C82FD63068F1CD1788F1D0931506D0E0BC
:10333000C0E011110FC0609115068091030621E0D5
:1033400080FD22E081E090E0213011F490E080E007
:103350000E9400358091D4059091D505019729F4FC
:103360008091150690E00E948002002319F081E010
:103370000E946610CE01DF91CF911F910F910895A9
:1033800086E080931506C1E0D0E0D3CFC093150648
:10339000C2E0D0E0CECF0E943006882361F0809159
:1033A0002A0590911506891720F441E061E00E94FA
:1033B000731980E0089581E00895CF93C22F8EEFB6
:1033C000820F823020F40E94CB198111C1E08C2F32
:1033D000CF910895CF93DF93C7E3D5E081E0888351
:1033E00061E084E090E00E9400351D82E4EDF5E0AC
:1033F00081A992A9906192AB81AB81E0DF91CF91DD
:103400000C946610CF93DF93C7E3D5E0188260E099
:1034100084E090E00E9400351D82E4EDF5E081A992
:1034200092A99F7E92AB81AB81E0DF91CF910C940A
:103430006610CF93DF93EC0145E352E061E070E06A
:1034400090E080E00E94090EEC81F0E0EE0FFF1F9B
:10345000EE5EFE4F6081718181E495E00E94010E75
:1034600064EF71E080E090E00E94EB038C818111B9
:1034700007C00E94EA1982EC95E0DF91CF91089590
:103480000E94021AF8CF0F931F93CF93DF93FC0192
:103490000481009367031091660341E0602F812F40
:1034A0000E948B15C7E3D5E01B830C83612F87E057
:1034B00090E00E9400356C8188E090E00E94003529
:1034C00064EF71E080E090E00E94EB0382EC95E015
:1034D000DF91CF911F910F9108950F931F93CF9379
:1034E000DF93FC010481009367031091660341E0C0
:1034F000602F812F0E948B15C7E3D5E019830A83C3
:10350000612F85E090E00E9400356A8186E090E0BE
:103510000E94003564EF71E080E090E00E94EB03D0
:1035200082EC95E0DF91CF911F910F910895CF9399
:10353000DF93482F50E070E060E02AE082E594E0FD
:103540000E94B50DEC0163ED72E082E594E00E940B
:10355000A60D8C0F9D1FDF91CF910895AC01990F9F
:10356000660B770B2AE081E495E00C94B50DCF93C0
:10357000DF93EC0145E352E061E070E090E080E031
:103580000E94090E8C8190E00E94AE1A63E972E0FD
:1035900081E495E00E94010E64EF71E080E090E02C
:1035A0000E94EB036C818091030621E080FD22E004
:1035B00081E090E0213011F490E080E00E9400353D
:1035C00040E060E08C810E9473198CEB95E0DF9104
:1035D000CF910895CF93DF93EC018C818F5F8C8323
:1035E0009E81981710F48D818C830E94440A41E0DB
:1035F00060E081E495E00E94060A9C8180911506B6
:10360000981306C065E372E081E495E00E94010E24
:103610008C8190E00E94AE1A63E972E081E495E04B
:10362000DF91CF910C94010ECF93DF93C82F48E028
:1036300050E083EC93E00E94C23480914C058823D3
:10364000A9F088E0C89FB0011124606440E081E4E3
:1036500095E00E94AD09C3ECD3E0699181E495E067
:103660000E94EA0983E0CB3CD807B9F7DF91CF91FC
:1036700008952F923F924F925F926F927F928F9216
:103680009F92AF92BF92CF92DF92EF92FF920F93F1
:103690001F93CF93DF93CDB7DEB72B970FB6F89478
:1036A000DEBF0FBECDBF82E594E00E9489041C01FD
:1036B000892B09F4D2C6512C412C72EF672E74E08D
:1036C000772EEBE0CE2EE3E0DE2EF1EFEF2EF4E0EE
:1036D000FF2E421453040CF0C0C682E594E00E9411
:1036E0006704082F80912705882329F0602F8FEE2B
:1036F00094E00E94B005043249F40093F10481E0A3
:10370000809311059FEF491A590AE3CF9091F10474
:103710009432C1F7E0911105E0320CF099C681E0D6
:103720008E0F0E2E000CFF0BE151FB4F8093110505
:103730000D3009F08BC6128270921305609212054B
:1037400081E0809326051091F20404E2010F19270D
:10375000E3EFF4E0DF0191919923A9F1903221F593
:10376000809126058A3064F0109226051092F104AB
:10377000109211051092280580E00E942A15C2CFF0
:10378000005E1927DF0111971C92A091260581E0A8
:103790008A0F80932605AA0FBB0BA151BB4F9496AD
:1037A000FC93EE939397D6CF9A32D1F19E35D9F50B
:1037B00062E0B62E1C92CF010E94800521E0B21279
:1037C00035C00813D1CF81E080936D031092280596
:1037D0001091260512309CF0E12FEE0FFF0BE35104
:1037E000FB4F83A194A1DC012C912A3341F4019673
:1037F0000E94800580932805115010932605109291
:103800001105E0911205F09113058081873409F4C8
:1038100029C47CF4863409F450C00FEF1FEF19C39C
:10382000BB24B394C7CF090F192794CF18139CCF8B
:10383000CACF833509F489C18A3579F7818180330C
:1038400061F780912605833009F05AC080911405F4
:10385000909115050E946005062F809116059091A4
:1038600017050E946005162F00930106609302065B
:103870001F926F931F920F938CE193E09F938F930E
:1038800083EC93E09F938F930E94F13563EC73E098
:1038900082E594E00E94A60D63ED72E082E594E07B
:1038A0000E94A60D602F85E290E00E940035612FF6
:1038B00086E290E00E94003547C48181853409F496
:1038C000A3C00CF03FC0813309F482C0E4F480331C
:1038D00009F0A3CF80912605823009F09ECFE091B8
:1038E0001405F091150580914F059081903309F4EE
:1038F0006DC08F7B80934F058081803309F071C04C
:1039000010E000E0A6C2823409F46FC0843409F0EC
:1039100084CF809107068F3F99F382E090E00E9468
:10392000B1028FEF809307060E948F0A80910606EE
:1039300087FF0E94E10A81E00E94661080E00E94F9
:10394000750FDECF803509F4CAC00CF036C086345E
:1039500009F063CF80912605833009F05ECFE091B6
:103960001605F091170580818053823008F055CFFD
:10397000E0911405F0911505E081E254E53108F07D
:103980004CCF0E2E000CFF0BE853F34E0C949C35DD
:10399000071D0D1C1B1D2F1D331D3D1D0D1C0D1C5A
:1039A0000D1C0D1C0D1C0D1C0D1C0D1C0D1C0D1CCF
:1039B000511D0D1C5B1D0D1C651D823509F4C2C017
:1039C000833509F02ACF0E94D2149ACF806492CF17
:1039D00090910706945081E09B3008F080E00E94AF
:1039E000EE1481E00E9466108BCF80912605823014
:1039F00009F013CF80911405909115050E94600580
:103A0000862F0E9430087CCF0E94E50279CF20915A
:103A100003063091040681110CC03068309304060F
:103A20002093030680910306909104060E94FF26CE
:103A300067CF3F77F3CF20910306309104068823A8
:103A400061F02D7F309304062093030680910306D6
:103A5000909104060E94FF2653CF2260F3CF81E0AD
:103A6000809327054DCF20910306309104068823CB
:103A700011F03D7FE7CF3260E5CF20910306309112
:103A80000406882311F0277FDDCF1092FA051092EB
:103A9000F6051092F7051092F8051092F9052860C6
:103AA000D1CF2091030630910406882311F02F7E98
:103AB000C9CF2061C7CF2091030630910406882327
:103AC00011F03B7FBFCF3460BDCF20910306309112
:103AD0000406882311F02B7FB5CF2460B3CF8091EB
:103AE000260584300CF499CE8091050681FD95CE93
:103AF00080911405909115050E9460054B018091FD
:103B00001605909117050E946005AAE1B5E024E032
:103B100030E010E2A9012F5F3F4FE09126050E2E05
:103B2000000CFF0B4E175F072CF4ED91FD913197C0
:103B30001083F0CF4091180550911905C4010E94DF
:103B4000090EDECE0E94E00CDBCE8181833409F4C5
:103B500031C10CF064C0853309F4DEC00CF03FC005
:103B6000803309F4B5C0813309F057CE8091260522
:103B7000873009F052CE80911E0590911F050E945A
:103B80006005162F80911C0590911D050E9460050F
:103B9000062F80911A0590911B050E946005B62E94
:103BA00080911805909119050E946005A62E8091BC
:103BB0001605909117050E946005962E80911405B8
:103BC000909115050E94600569839A82AB82BC8240
:103BD0000D831E83CE0101960E942A0991CE813465
:103BE00009F4C6C0823409F018CE809107068450CB
:103BF0006DE572E08B3058F08091050690910606D5
:103C00009F7B909306068093050666ED72E081EF38
:103C100094E00E94EA3581E08093110571CE8435ED
:103C200009F453C1D4F48B3409F43AC18C3409F04B
:103C3000F4CD80912605823009F0EFCDE091140596
:103C4000F091150580819FEC980F923008F0E5CD3A
:103C500061E080530E94042753CE863509F482C167
:103C6000893509F0DACD80912605813009F08EC1C1
:103C700091E080E020914B06223009F090E0092F7E
:103C8000182F0E941E0460934C0670934D0680937B
:103C90004E0690934F0680914B061F928F93809112
:103CA0004A061F928F93809149068F938091480610
:103CB0008F93DF92CF92FF92EF920E94F13581E0D5
:103CC000809311050FB6F894DEBF0FBECDBFC1C003
:103CD00080912605823009F0A0CDE0911405F09185
:103CE0001505108180914F05103391F08E7F8093E0
:103CF0004F0581E00E9466108091030690910406B2
:103D0000103341F4916090930406809303069ECE95
:103D10008160EDCF9E7FF7CF80912605823009F03C
:103D20007CCDE0911405F09115058081813399F0E7
:103D30002CF4803369F001E010E08BC0813471F025
:103D40008D34C9F7809105069091060690680BC0E6
:103D50000E94E10AD5CD0E94FE0AD2CD80910506CF
:103D6000909106069F779093060680930506C8CD2E
:103D700080912605833009F050CD809114059091F3
:103D800015050E946005709343066093420689E022
:103D900090E00E94163580911605909117050E94BB
:103DA000600570934106609340068BE090E00E94AE
:103DB0001635A6CD009126058EEF800F823008F0D3
:103DC0002CCD80911405909115050E946005162F49
:103DD00040E0033009F051C0E0911605F09117055D
:103DE000808141E08D3409F048C08AEF810F8B312A
:103DF000C8F48FEF91E00E94EC3481508E3F90F038
:103E0000612F8FEF91E00E9400351093140680918E
:103E10001506181728F441E061E0812F0E947319FC
:103E200000E001C001E010E0809114061F928F9322
:103E300082E492E09F938F93FF92EF920E94F1357C
:103E40000F900F900F900F900F900F9081E0809344
:103E50001105809111058F3F31F081E0012B09F0B0
:103E600080E00E942A151092F10410921105109220
:103E70006D0380E00E94750F45CC80912B0580FF7B
:103E800004C080911506811740F061E0812F0E94E7
:103E900073198C0180911506C9CF01E010E0FACFAB
:103EA00080911405909115050E946005AB01BC013D
:103EB00040935406509355066093560670935706E8
:103EC0008DE090E00E940E351BCD80912605853057
:103ED00009F0A3CC80911405909115050E9460050E
:103EE000062F80911605909117050E946005A62E59
:103EF00080911805909119050E946005162F8091F8
:103F00001A0590911B050E946005B62E011109C08B
:103F1000A11007C0111105C0611103C00E94021A4F
:103F2000EFCC00933805A0923905602F85E090E032
:103F30000E9400356091390586E090E00E940035CE
:103F400010933A05B0923B05612F87E090E00E9404
:103F5000003560913B0588E090E00E9400350E94AA
:103F6000EA19CECC80912605823009F056CC80919A
:103F70001405909115050E946005609344067093A6
:103F800045068093460690934706BACC833009F0E5
:103F90004BC080911405909115050E9460054B015E
:103FA00080911605909117050E9460056B8781141A
:103FB0009104B9F580914B06882399F10E94F2266D
:103FC0008C019092490680924806BB85B0934A06C0
:103FD00010924B060E941E0460934C0670934D068F
:103FE00080934E0690934F0682E290E00E94FA344E
:103FF00060914806709149068617970721F082E282
:1040000090E00E94163584E290E00E94EC346091CA
:104010004A06861709F43FCE84E290E00E940035FC
:104020003ACE10E000E0CDCF8230C9F48091140583
:10403000909115050E946005653A89F480914B06C0
:1040400010E000E0823009F026CE0E94F2268C01BA
:10405000892B09F020CE81E080934B061CCE01E035
:1040600010E019CEE181E053EA3208F0D6CB0E2EF3
:10407000000CFF0BE25CFF4D0C949C3568200D1C7E
:104080000D1C0D1C0D1C8A200D1C0D1C0D1C0D1C67
:104090000D1C0D1C0D1C0D1C0D1C0D1C0D1CAC2035
:1040A0000D1CBB20DA20FA20092121210D1C3E2104
:1040B0000D1C0D1C0D1C0D1C0D1C0D1C82210D1C3E
:1040C0000D1C9721C621E82105220D1C0D1C18226C
:1040D0008091D4059091D5050297D1F00E947C0281
:1040E00091E0811101C090E01F929F9382E492E0E1
:1040F0009F938F93FF92EF920E94F13581E080931E
:1041000011050F900F900F900F900F900F90F8CB1C
:1041100092E0EACF8091060687FF1CC08DE41F92D3
:104120008F9380912C06282F082E000C330B3F9381
:104130008F9388ED92E09F938F93FF92EF920E946E
:10414000F13581E0809311050FB6F894DEBF0FBE04
:10415000CDBFD6CB81E4E3CF809141068F93809190
:1041600040068F93809143068F93809142068F93F0
:104170008EE093E0E0CF809103060091140610E0FA
:1041800080FD02C008E110E00E9441191F928F9348
:10419000809115061F928F931F930F931F9286E0B5
:1041A0008F9388E093E09F938F93FF92EF920E940A
:1041B000F135C7CF809137058823A1F040913805AC
:1041C0008091390590E020913A0530E060913B05FF
:1041D00070E07F936F933F932F939F938F931F92E2
:1041E0004F93DFCF40E070E060E030E020E090E00F
:1041F00080E0EFCF809104068F93809103068F9328
:10420000809115061F928F93E4E5F2E0FF93EF9300
:1042100094CF809100068F5F1F928F938091FB0552
:104220008F5F1F928F938091E4058F5F1F928F9312
:104230008EED92E09F938F93FF92EF920E94F13563
:1042400080CF809147068F93809146068F9380910F
:1042500045068F93809144068F9380913F068F93FC
:1042600080913E068F9380913D068F9380913C060E
:104270008F9327EE32E03F932F9397CFDE01119675
:10428000EEE0F0E091E29093570084918D933196A7
:10429000E831F105C1F780E28093F10489818093D0
:1042A000F2048A818093F3048B818093F4048C81DF
:1042B0008093F5048D818093F6048E818093F704BA
:1042C0005E0197E0A90EB11C10E000E0D5018D91D0
:1042D0005D011F928F93E8E3F2E0FF93EF93C80133
:1042E00088509B4F9F938F930E94F1350E5F1F4F15
:1042F0000F900F900F900F900F900F9008301105B6
:1043000029F789CC809136058F93809135058F935D
:10431000809132058F93809131058F938091340580
:104320008F93809133058F93DF92CF9285CF8091C9
:1043300006068F93809105068F9380910B061F923E
:104340008F9380911E0690911F06A0912006B09138
:10435000210640912606509127066091280670910B
:104360002906840F951FA61FB71FBF93AF939F9376
:104370008F93809107061F928F938FEE92E09F9309
:104380008F93FF92EF920E94F135DBCE0E943C08A2
:1043900029833A834B835C836D837E831F927F9353
:1043A0008D811F928F938C811F928F938B811F928F
:1043B0008F938A811F928F9389811F928F9322E01E
:1043C00033E03F932F93FF92EF920E94F135B9CEE5
:1043D000809157068F93809156068F938091550652
:1043E0008F93809154068F9380915B068F93809179
:1043F0005A068F93809159068F93809158068F9318
:10440000A4E1B3E0BF93AF93D0CE6EE971E081EF4A
:1044100094E00E94D63462EA72E081EF94E00E9458
:10442000DF356CEC70E081EF94E00E94CB34F3CB8D
:1044300080914B061F928F9380914A061F928F9313
:10444000809149068F93809148066DCF02835AC9A7
:104450001092F1041092110555C9A89580914C0550
:104460008823C1F080914A0580620E940F0282E198
:104470000E94C8070E94B60180914A05806261E0EF
:1044800070E090E00E94750288EC95E00E9452076F
:1044900080958F71982F917080FD12C08091680572
:1044A000823071F44091690550916A0560916B0505
:1044B00070916C05452B462B472B11F41092680523
:1044C00010916805112309F45BC0113069F4409123
:1044D000690550916A0560916B0570916C05452BDB
:1044E000462B472B09F039C2992309F47DC08091EE
:1044F0006D0590916E05A0916F05B0917005892BA7
:104500008A2B8B2B09F470C0123009F06DC00E9409
:104510001E04C0906D05D0906E05E0906F05F09080
:1045200070056C197D098E099F09603177428105FC
:10453000910508F459C010926D0510926E05109205
:104540006F05109270051F921F931F9284E28F9344
:1045500086E293E09F938F9383EC93E09F938F93F6
:104560000E94F1350E94350F63EC73E08FEE94E00A
:104570000E942B0F0FB6F894DEBF0FBECDBF34C024
:10458000992309F4ECC18091690590916A05A09185
:104590006B05B0916C05892B8A2B8B2B51F40E94F3
:1045A0001E046093690570936A0580936B05909370
:1045B0006C050E941E040091690510916A05209106
:1045C0006B0530916C05DC01CB01801B910BA20BBC
:1045D000B30B2091680521116FC0C297A105B105E9
:1045E00018F081E0809368058091680520910306AA
:1045F0003091040637FD6BC01091070614508130CE
:1046000009F030C18091690590916A05A0916B0510
:10461000B0916C05892B8A2B8B2B09F06CC0109202
:10462000680581E01B3008F080E00E94EE148823CA
:1046300009F461C08091710590917205009709F4A9
:1046400058C1DC01ED91FC910480F581E02D0995C4
:104650009093720580937105009709F429C1B5E024
:10466000823C9B0729F010E0E5E08C3B9E0719F4A3
:10467000DC0114961C91DC01ED91FC910190F0811C
:10468000E02D09958091710590917205B5E0823C0D
:104690009B0721F0E5E08C3B9E0769F5112359F15A
:1046A0001150DC0114961C931497ED91FC9102803B
:1046B000F381E02D09951FC0213009F095CF843F8B
:1046C0009140A105B10508F48FCF82E08BCF8130F6
:1046D00009F0A6C08091690590916A05A0916B05CB
:1046E000B0916C05892B8A2B8B2B29F410926805CD
:1046F00080E00E94560F0E941E046B017C01809195
:104700002C0590912D05A0912E05B0912F05A701A4
:104710009601281B390B4A0B5B0BDA01C901883E55
:104720009340A105B10508F462C08091300588234B
:1047300009F40DC185E00E94CD079C013F7194FDF5
:10474000306F4AE0429FC001439F900D112497FDB6
:104750000F9654E0959587955A95E1F79093320519
:104760008093310588E60E940F028EE00E94C80700
:1047700080E20E94C8070E94B60188E60E940F02EC
:1047800081E10E94C8070E94B60162E070E088E6FD
:1047900090E00E947502882309F4DCC088EC95E063
:1047A0000E945207182F88EC95E00E94520720E0E3
:1047B000312F282B46E0359527954A95E1F74AE0B9
:1047C000429FC001439F900D112497FD039695953C
:1047D0008795959587959093340580933305C0927E
:1047E0002C05D0922D05E0922E05F0922F052B96E8
:1047F0000FB6F894DEBF0FBECDBFDF91CF911F91F2
:104800000F91FF90EF90DF90CF90BF90AF909F906F
:104810008F907F906F905F904F903F902F90089572
:10482000823009F068CF8091690590916A05A09166
:104830006B05B0916C050097A105B10509F45BCF3C
:1048400080936D0590936E05A0936F05B0937005EE
:104850001092690510926A0510926B0510926C0512
:1048600081E047CF823009F046CF80916905909171
:104870006A05A0916B05B0916C050097A105B10583
:1048800009F439CF80936D0590936E05A0936F0561
:10489000B09370051092690510926A0510926B052D
:1048A00010926C0580912B05877F80932B05C2CEDB
:1048B0000E94E50280914F05982F9F7B2091730500
:1048C000213099F48E7B80934F0581E00E94661021
:1048D00081E00E9466108091050690910606977F00
:1048E000909306068093050606CF916090934F053E
:1048F000ECCF80910506909106069860909306068D
:104900008093050680914F05809581708093730593
:1049100087E00E94300880914F05806480934F05A6
:104920008CEB95E01B3020F00E94D21482EC95E0D5
:104930009093720580937105809171059091720535
:10494000DC01ED91FC910190F081E02DB3CE80E08F
:1049500096EF04CF80E096EF3ECF91112ACE1092D1
:10496000690510926A0510926B0510926C053CCE99
:10497000CF93C82F80910506909106068260909390
:1049800006068093050682E00E94661080E00E9481
:10499000750F0E94391B8091D4059091D50502971F
:1049A000C1F370E060E090E080E00E941C0B0E9488
:1049B0007C028111EECFCC2361F310920706809127
:1049C0000506909106068D7F909306068093050656
:1049D000CF9108951F920F920FB60F9211242F932B
:1049E0003F938F939F93AF93BF938091BB0390911D
:1049F000BC03A091BD03B091BE033091BA0323E084
:104A0000230F2D3758F50196A11DB11D2093BA0330
:104A10008093BB039093BC03A093BD03B093BE03EC
:104A20008091BF039091C003A091C103B091C203D4
:104A30000196A11DB11D8093BF039093C003A09365
:104A4000C103B093C203BF91AF919F918F913F91EA
:104A50002F910F900FBE0F901F90189526E8230FEF
:104A60000296A11DB11DD2CF1F920F920FB60F92C9
:104A700011242F933F934F935F936F937F938F9363
:104A80009F93AF93BF93EF93FF93E0910201F09157
:104A900003010995FF91EF91BF91AF919F918F9184
:104AA0007F916F915F914F913F912F910F900FBE2A
:104AB0000F901F9018951F920F920FB60F9211240E
:104AC0002F933F934F935F936F937F938F939F9316
:104AD000AF93BF93EF93FF93E0910001F091010139
:104AE0000995FF91EF91BF91AF919F918F917F9128
:104AF0006F915F914F913F912F910F900FBE0F904B
:104B00001F9018951F920F920FB60F9211242F939A
:104B10003F934F935F936F937F938F939F93AF9345
:104B2000BF93EF93FF9382E594E00E94A904FF9165
:104B3000EF91BF91AF919F918F917F916F915F9115
:104B40004F913F912F910F900FBE0F901F9018958E
:104B50001F920F920FB60F9211242F938F939F9352
:104B6000EF93FF93E0916204F09163048081E09100
:104B70006804F091690482FD1BC0908180916B04F0
:104B80008F5F8F7320916C04821741F0E0916B046A
:104B9000F0E0EE5AFB4F958F80936B04FF91EF91FD
:104BA0009F918F912F910F900FBE0F901F9018958E
:104BB0008081F4CF1F920F920FB60F9211242F9382
:104BC0003F934F935F936F937F938F939F93AF9395
:104BD000BF93EF93FF938091B900887F803609F4EB
:104BE0004AC0F0F5883209F4A5C018F5803109F4FF
:104BF00099C0B8F4882309F4F2C0883009F492C04F
:104C0000FF91EF91BF91AF919F918F917F916F91A4
:104C10005F914F913F912F910F900FBE0F901F907A
:104C20001895883109F486C0803251F780932B049F
:104C300014C0803409F49BC040F48033B9F3883346
:104C4000F9F680932B0485ECAEC0803509F483C05F
:104C5000883509F494C0883499F60E943805D0CF7D
:104C6000883909F48AC038F5883729F050F4883635
:104C700011F0803729F683E080932D041092B00361
:104C800055C0883809F479C0803919F0803809F0A6
:104C9000B7CF8091B003803208F06FC0E091B003CD
:104CA00081E08E0F8093B0038091BB00F0E0E0576D
:104CB000FC4F80833BC0803B39F0D0F4803A09F44C
:104CC00077C0883A09F09CCF84E080932D0410923D
:104CD0008F0310928E03F0E0E0E0099580918E033F
:104CE00081110FC081E080938E0310926E0309C082
:104CF000803C09F4A8CF883C09F4A5CF883B09F093
:104D00007FCFE0918F0381E08E0F80938F03F0E0DF
:104D1000E259FC4F80818093BB0090918F0380917A
:104D20008E0329C0809108048093BB0085EC80939A
:104D3000BC0066CF90912A0480912904981758F5F9
:104D4000E0912A0481E08E0F80932A04F0E0E75F6F
:104D5000FB4F8081E9CFE0912A0481E08E0F8093A0
:104D60002A048091BB00F0E0E75FFB4F80839091C5
:104D70002A04809129049817C8F285E8D8CFE091D9
:104D80002A0481E08E0F80932A048091BB00F0E01A
:104D9000E75FFB4F808380912C0481115ECF81E01F
:104DA0008093070484EA8093BC0010922D0428CFDE
:104DB0008091B003803230F4E091B003F0E0E0572E
:104DC000FC4F10820E9438056091B00370E080E9CA
:104DD00093E0F0E0E0E009951092B00334CF109238
:104DE0002B043BCF0E94411990912B0590FD04C0EC
:104DF00041E061E00C94731981E090E00895BC01FA
:104E000082E090E00C941635CF93C62F20910306D4
:104E100030910406823019F5216030930406209306
:104E2000030680E792E8A3E0B0E080934406909305
:104E30004506A0934606B0934706809103069091DD
:104E400004060E94FF260E94411941E060E00E9492
:104E50007319CC2371F081E0CF910C9466102E7FF2
:104E6000309304062093030680EC94EDA1E0B0E0BB
:104E7000DCCFCF910895109255041092540488EE1F
:104E800093E0A0E0B0E08093560490935704A09381
:104E90005804B09359048EE391E0909353048093A7
:104EA000520485EC90E090935F0480935E0484EC60
:104EB00090E0909361048093600480EC90E0909384
:104EC00063048093620481EC90E090936504809386
:104ED000640482EC90E0909367048093660486EC0F
:104EE00090E0909369048093680410926B04109290
:104EF0006C0410926D0410926E041092280580E5E7
:104F000091E09093F0048093EF0486E891E0909311
:104F1000C3058093C2058AEC92E09093C505809307
:104F2000C40580E091E0980FE82FF0E0EE0FFF1F3E
:104F3000E658FE4F20813181232B09F012C1809366
:104F4000C70584E791E09093BD058093BC0584EC90
:104F500092E09093BF058093BE0580E091E0980FAA
:104F6000E82FF0E0EE0FFF1FE659FE4F2081318160
:104F7000232B09F0F8C08093C10582E192E0909361
:104F8000B6058093B50581EF92E09093B8058093C4
:104F9000B70588E092E09093B1058093B00589EE63
:104FA00092E09093B3058093B2058EEF91E09093D9
:104FB000AC058093AB058FED92E09093AE058093A6
:104FC000AD0524EF31E03093A7052093A6052AEE26
:104FD00031E03093A2052093A1059093A40580931E
:104FE000A30580EE91E090939D0580939C0586ED4E
:104FF00091E090939805809397058CEC91E09093C5
:1050000093058093920582EC91E090938E058093B6
:105010008D0583ED92E09093900580938F0528EBAA
:1050200031E0309389052093880590938B05809318
:105030008A058EEA91E0909384058093830584EA43
:1050400091E090937F0580937E058AE991E09093AB
:105050007A058093790580E991E0909375058093B6
:105060007405109268051092690510926A051092F5
:105070006B0510926C0510926D0510926E051092E2
:105080006F051092700510927205109271051092C2
:1050900044051092430582E691E090934205809387
:1050A000410582E080934C0510924B0590E290936D
:1050B0004A051092450540EA55E16FEF7FEF4093B6
:1050C0003D0550933E0560933F0570934005109257
:1050D0003005809329051092CB051092CA0588EE01
:1050E00093E0A0E0B0E08093CC059093CD05A09331
:1050F000CE05B093CF058CE192E09093C9058093E3
:10510000C80581E08093E5051092E60510922B0614
:1051100010922A0610925C061092580610925906B8
:1051200010925A0610925B068DE090E00E94F434D3
:105130006F3F7F4F8F4F9F4F39F440E050E0BA01EF
:105140008DE090E00E940E358DE090E00E94F434F6
:1051500060935406709355068093560690935706B5
:105160000895892FDFCE892FF9CECF93DF9300D01A
:1051700000D000D0CDB7DEB7789484B5826084BD0E
:1051800084B5816084BD85B5826085BD85B581604B
:1051900085BD80916E00816080936E0010928100C9
:1051A0008091810082608093810080918100816084
:1051B0008093810080918000816080938000809145
:1051C000B10084608093B1008091B00081608093D1
:1051D000B00080917A00846080937A0080917A0098
:1051E000826080937A0080917A00816080937A0057
:1051F00080917A00806880937A001092C1000FB687
:10520000F894A89580916000886180936000109266
:1052100060000FBE60E971E080E090E00E94EB0367
:10522000E0916204F091630482E08083E0915E0487
:10523000F0915F041082E0916004F091610480E1DC
:10524000808310926A04E0916604F091670486E01E
:105250008083E0916404F0916504808180618083A3
:10526000E0916404F0916504808188608083E0911E
:105270006404F0916504808180688083E091640417
:10528000F091650480818F7D808386E290E0909329
:1052900066058093650588E08093670561E070E0AE
:1052A00085E695E00E9400068DED99E190932B062E
:1052B00080932A061092E6031092E50310922F04C1
:1052C0001092510410922D0481E080932C041092CE
:1052D000070488B1806388B98091B9008E7F80937C
:1052E000B9008091B9008D7F8093B9008CE08093E4
:1052F000B80085E48093BC00A89510924F0580917A
:105300004A0580620E940F0280E00E94C8078FE178
:105310000E94C8070E94B601882309F449C28091FF
:105320004C05823009F044C210924C0580914C0526
:10533000882319F087E00E94EF0787E00E94300879
:105340006AEF70E080E00E94141B62EF70E081E081
:105350000E94141B6AEE70E082E00E94141B62EE51
:1053600070E083E00E94141B81E495E00E945A0AD9
:1053700068ED70E090E080E00E94B40C40E150E005
:1053800062ED70E080E595E00E94DD3410926005EA
:1053900041E060E081E495E00E94060A60E575E086
:1053A00081E495E00E94010E8EE991E00E946D0E6D
:1053B0006CED75E080E090E00E94D505A895109214
:1053C00027051092F1041092110557984F9B7FC248
:1053D00081E08093370603E210E010932E060093DD
:1053E0002D0688E080932F068DE296E00E94F60558
:1053F000109331060093300680E18093320680E3FB
:1054000096E00E94F6050E94E10A109207061092AB
:10541000080682E090E00E94FA348C018F3F9807E2
:1054200051F090FF08C080914F05816080934F0537
:1054300081E00E94661085E290E00E94EC34F82E34
:105440008093010686E290E00E94EC34809302068D
:105450008FEF8F0D8E3F30F084E6809301068FEF43
:105460008093020660E373E082E594E00E94010EFF
:10547000809101060E94971A60E473E082E594E04F
:105480000E94010E809102060E94971A80913706B1
:10549000882309F41FC285E00E94C60286E00E94AC
:1054A000C60283E290E09093EE058093ED0582E0E2
:1054B0008093EF058DEE95E00E94F60529E2E22E3D
:1054C000F12CF092F105E092F00588E08093F2056E
:1054D00061E070E080EF95E00E940006F092F40534
:1054E000E092F30580E18093F50561E070E083EFE1
:1054F00095E00E940006D0903706F092D705E09222
:10550000D60584E08093D80570E060E086ED95E0F4
:105510000E94000686EC9AE09093010180930001BE
:1055200080916900836080936900E89A86E08D83AA
:1055300089E290E0DD2019F01D8283E290E02D8168
:105540009093DD058093DC0581E001C0880F2A95EA
:10555000EAF78093DE058CED95E00E94F6050E9447
:10556000970B0E948F0A1092800080E49FE1909335
:1055700087008093860081E180938100229A809148
:10558000800080628093800090E080E00E94B10201
:105590000F3F100709F0B9C11092040610920306DC
:1055A00002E08091030690910406806290930406C5
:1055B000809303068BE090E00E94FA347C01909384
:1055C00041068093400689E090E00E94FA3490936F
:1055D000430680934206EF20E09421F410924106A6
:1055E00010924006019631F48CED90E090934306C2
:1055F00080934206109238061092390610923A06AD
:1056000010923B0610923C0610923D0610923E0608
:1056100010923F061092330610923406109235060F
:105620001092360680E092E4909306068093050679
:105630008FEF91E00E94EC348093140681508E3FEE
:1056400018F080E2809314061092E30581E190E067
:105650000E94EC348093E4051092FA0582E190E018
:105660000E94EC348093FB051092FC051092FD051E
:105670001092FE051092FF0583E190E00E94EC3449
:10568000809300061092F6051092F7051092F80527
:105690001092F90581E00E94750F809103069091A8
:1056A00004068E719670892BD1F183E00E94300838
:1056B0008091030681FF04C081E691E00E94D50C31
:1056C0008091030682FF04C080E591E00E94D50C22
:1056D0008091030683FF04C083E491E00E94D50C0F
:1056E0008091030684FF04C083E391E00E94D50CFF
:1056F000809103069091040691FF04C085E291E039
:105700000E94D50C809103069091040692FF04C07C
:1057100085E191E00E94D50C87E00E943008A895B1
:1057200090E080E00E94B10262E071E08CE091E0E4
:105730000E94C60C8091030684FDF2C00E94100CEA
:10574000209103063091040634FFE7C081FDE8C0D4
:1057500067E372E087E192E00E94C60C14E08DEFEF
:10576000810F833018F481E00E94300890E080E0DF
:105770000E94B102A895209103063091040624FDF1
:10578000E3C0143009F0E0C088E08093070681E0B0
:1057900031FDDCC0153009F0D9C089E080930706DF
:1057A0000E94381081E00E94750F0E94391BFDCFC6
:1057B00080914A0580620E940F028CE00E94C80717
:1057C0008FE10E94C8070E94B601882329F08091CA
:1057D0004C05823009F4A8CD80914A0580620E9470
:1057E0000F0281E00E94C80780E00E94C8070E9463
:1057F000B60190914C05882319F0923009F494CDAC
:10580000923019F481E080934C05809145058860C1
:105810008093450582E080934805109249051092D7
:105820004E0510924D0513E068E381E495E00E9477
:105830009A0968E181E495E00E949A091150A1F764
:1058400068E281E495E00E949A0968E081E495E0CD
:105850000E949A0965E070E080E090E00E94EB030E
:1058600060914505606240E081E495E00E94AD09E9
:1058700065E070E080E090E00E94EB0360914505F8
:10588000606240E081E495E00E94AD0965E070E06F
:1058900080E090E00E94EB038CE0809346058091CD
:1058A0004C05882331F040E06CE081E495E00E94F3
:1058B000AD0981E495E00E945A0A82E08093470591
:1058C00040E066E081E495E00E94AD092FCD1092A2
:1058D000370681CD83E290E09093E8058093E70559
:1058E00081E08093E90587EE95E00E94F60589E264
:1058F00090E09093EB058093EA0580E88093EC05B7
:105900008AEE95E00E94F605CCCD10930406009334
:10591000030600FD45CE01E044CE833009F018CFE8
:10592000809103069091040691FF02C010E017CF0A
:105930000E94A90B8823D1F362E172E087E192E033
:105940000E94C60C15E00BCF80E022CF811128CF3A
:1059500060E0802F0E9404278091370581110E940A
:10596000D2140E94381082E290E00E94FA348C0136
:10597000909349068093480684E290E00E94EC34BC
:1059800080934A060F3F1F4F31F410924906109240
:10599000480610924A060E941E0460934C067093BB
:1059A0004D0680934E0690934F0684E090E00E944F
:1059B000EC348F3F09F082C01092370560E084E03C
:1059C00090E00E9400358091050690910606209196
:1059D0003705222309F475C09061909306068093E1
:1059E000050685E090E00E94EC348F3F09F06BC023
:1059F0001092380560E085E090E00E94003586E076
:105A000090E00E94EC348F3F09F060C085E0809305
:105A1000390565E086E090E00E94003587E090E07F
:105A20000E94EC348F3F09F054C086E080933A0521
:105A300066E087E090E00E94003588E090E00E94F8
:105A4000EC348F3F09F048C087E380933B0567E360
:105A500088E090E00E94003510923C050E94CB192E
:105A600010922B0580E096EF9093320580933105DC
:105A700090933405809333059093360580933505D4
:105A800086E00E94CD078435910549F587E00E94A4
:105A9000CD078115944019F581E0809330056DE6BE
:105AA00071E08EE791E00E94C60C8091050690910E
:105AB000060696FF17C00E94391BF7CF8093370563
:105AC00082CF9F7E8ACF8093380599CF8093390506
:105AD000A5CF80933A05B1CF80933B05BDCF1092FF
