:100000000C9490010C9423250C94FC240C94C401B2
:100010000C94C4010C94C4010C94C4010C94C4014C
:100020000C94C4010C94C4010C94C4010C94C4013C
:100030000C94C4010C94C4010C94C4010C94C4012C
:100040000C94B2240C94C4010C9470250C944A2591
:100050000C94C4010C94C4010C94C4010C94C4010C
:100060000C94A2250C94C401457869740052657300
:1000700074617274204E6F773F0053657420446141
:1000800074652F54696D653F004D6F6E7468004450
:100090006179005965617200486F7572004D696E33
:1000A00075746500537461727420486F75720053E3
:1000B000746F7020486F7572005374617274204DB4
:1000C000696E0053746F70204D696E00352E322EAC
:1000D00031005665722E20004F70656E20455653D4
:1000E0004500000E0C1F03060C0800080C0E0C083F
:1000F000000000000E0E0E000000000E1517110E7D
:100100000000537663204C6576656C3A204C3200D3
:10011000537663204C6576656C3A204C310041750E
:10012000746F204465746563740053656C66205475
:1001300065737400506F776572204F6E0054656D63
:1001400070657261747572652043686B004746493B
:100150002053656C66205465737400537475636B2B
:100160002052656C61792043686B0047726F756E31
:100170006420436865636B0056656E742052657138
:10018000276420436865636B0044696F646520439E
:100190006865636B00496E697469616C697A617442
:1001A000696F6E2E2E0057616974696E6720666FE5
:1001B00072000000000800020100000304070000B4
:1001C000000000000000382E322E33000000000036
:1001D000250028002B0000000000240027002A0032
:1001E00004040404040404040202020202020303DD
:1001F00003030303010204081020408001020408E5
:10020000102001020408102054455354204449533F
:1002100041424C45440052657374617274696E6763
:100220002E2E2E0020202020304100484947482013
:1002300054454D5000536C656570696E67004746C4
:1002400043490054455354204641494C45440044D9
:10025000697361626C6564004F50454E2052454C95
:10026000415900535455434B2052454C4159004E7F
:100270004F2047524F554E44004F5645522054454B
:100280004D5045524154555245004746434920463A
:1002900041554C540053455256494345205245510F
:1002A00055495245440044494F444520434845433D
:1002B0004B0056454E542052455155495245440035
:1002C00045565345204552524F520043686172676C
:1002D000696E6700436F6E6E656374656400526596
:1002E0006164790053657475700053657474696E48
:1002F00067730044656C61792054696D65720044D0
:100300006174652F54696D65005265737461727410
:10031000004D61782043757272656E740000C726C7
:1003200011241FBECFEFD8E0DEBFCDBF14BE0FB685
:10033000F894A89580916000886180936000109285
:1003400060000FBE13E0A0E0B1E0E2E7F1E702C019
:1003500005900D92A434B107D9F726E0A4E4B3E0E8
:1003600001C01D92A333B207E1F711E0C0E9D1E06B
:1003700004C02197FE010E949135CF38D107C9F7FB
:100380000E943B280C94B7380C9400008091E20541
:10039000817008952FB7F894009761F440E45FE10D
:1003A00050938B0040938A009093B1058093B005E1
:1003B0002FBF089510928B0010928A00F5CF2091E4
:1003C0002F0481E0213208F040C080910B0481119C
:1003D000FCCF80912E0492E090930B0491E09093D7
:1003E0000A049FEF909309041092080420930704D5
:1003F000AEE0B4E0E7EEF3E090E029132DC01092F8
:10040000E6039091E603880F892B8093E6038091A1
:10041000E503813029F51092E5038091E60380938E
:10042000BB0085EC8093BC0080910B048230E1F32B
:10043000809109048F3FB1F0809109048032A1F0CE
:1004400080910904803391F084E010920D041092A1
:100450002F0410920C0408953D9131939F5FCDCFEE
:1004600085EEE0CF80E0F1CF82E0EFCF83E0EDCF0B
:1004700091E090930C0480932E0410920D0410923E
:100480002F040895909114058091160591110BC0C9
:1004900020911505211107C0811110C08091170509
:1004A000811103C00895981309C081E020911505BA
:1004B00090911705291303C080E0089581E0089505
:1004C00090910B049111FCCF91E090930B049093C9
:1004D0000A042FEF2093090410920804260F20939A
:1004E00007049093E6039091E603880F892B80938D
:1004F000E6038091E5038130D9F41092E503809101
:10050000E6038093BB0085EC8093BC0080910B04D4
:100510008130E1F380910804861710F4609108049B
:10052000A7EEB3E0E5ECF3E080E0861303C00895A6
:1005300085EEEACF9D9191938F5FF7CF0E94600285
:100540001092C4038093C303089590E0FC01EC5023
:10055000FE4F249180529E4FFC018491882399F094
:1005600090E0880F991FFC01EA52FE4FA591B491CB
:10057000FC01E453FE4F859194918FB7F894EC9170
:10058000E22BEC938FBF08958091E3058E3F48F0F6
:100590008FEF8093E4051092E30590E080E00C94E7
:1005A000CA01089508959C01265031092E32310563
:1005B00098F445E8489F9001499F300D11243093ED
:1005C0008B0020938A0081E090E09093B1058093A6
:1005D000B00590E080E008959C01245331092D314D
:1005E000310578F4092E000CAA0BBB0B80569F4FE7
:1005F000AF4FBF4F9C0185E0220F331F8A95E1F773
:10060000DECF81E090E00895CF92DF92EF92FF92EB
:100610001F93CF93DF931092C203C2ECD3E012E09A
:100620002AE0C22ED12CE12CF12CA70196010E94C8
:100630006F35605D6A93B901CA011150611571058A
:100640008105910591F7111684F3CE01DF91CF91C9
:100650001F91FF90EF90DF90CF90089590E0FC0104
:10066000EE54FE4F2491FC01EC50FE4F3491FC01FE
:10067000E052FE4FE491EE23C9F0222339F02330FB
:1006800001F1A8F4213019F1223029F1F0E0EE0F48
:10069000FF1FE453FE4FA591B4918FB7F894EC91EE
:1006A000611126C030953E233C938FBF08952730BB
:1006B000A9F02830C9F0243049F7809180008F7D5F
:1006C00003C0809180008F7780938000DFCF84B556
:1006D0008F7784BDDBCF84B58F7DFBCF8091B00059
:1006E0008F778093B000D2CF8091B0008F7DF9CF0B
:1006F0003E2BDACF1F93CF93DF93182FEB010E948D
:10070000A502209739F460E0812FDF91CF911F91EE
:100710000C942E03CF3FD10511F461E0F5CFE12F0A
:10072000F0E0EE54FE4FE491E33031F140F4E1307B
:10073000B1F0E230E1F0C038D1057CF7E4CFE7302A
:1007400029F1E83059F1E430B1F7809180008062FE
:1007500080938000D0938B00C0938A0004C084B53E
:10076000806884BDC7BDDF91CF911F91089584B586
:10077000806284BDC8BDF7CF80918000806880937F
:100780008000D0938900C0938800EDCF8091B000A5
:1007900080688093B000C093B300E5CF8091B00033
:1007A00080628093B000C093B400DDCF3FB7F8946F
:1007B00080919D0390919E03A0919F03B091A0030F
:1007C00026B5A89B05C02F3F19F00196A11DB11DAC
:1007D0003FBFBA2FA92F982F8827BC01CD01620FE8
:1007E000711D811D911D42E0660F771F881F991FA3
:1007F0004A95D1F708958F929F92AF92BF92CF9270
:10080000DF92EF92FF926B017C010E94D6034B01B5
:100810005C01C114D104E104F104B9F00E94D603D3
:10082000681979098A099B09683E73408105910519
:1008300080F321E0C21AD108E108F10888EE880EA1
:1008400083E0981EA11CB11CE4CFFF90EF90DF90D5
:10085000CF90BF90AF909F908F9008952FB7F8944E
:100860006091990370919A0380919B0390919C03EE
:100870002FBF08950895AF92BF92CF92DF92EF926B
:10088000FF920F931F93CF93DF936C017B018B013A
:10089000040F151FEB015E01AE18BF08C017D1078A
:1008A00059F06991D601ED91FC910190F081E02D14
:1008B000C6010995892B79F7C501DF91CF911F9169
:1008C0000F91FF90EF90DF90CF90BF90AF90089581
:1008D000FC01538D448D252F30E0842F90E0821B46
:1008E000930B541710F0CF96089501970895FC01CB
:1008F000918D828D981761F0A28DAE0FBF2FB11D23
:100900005D968C91928D9F5F9F73928F90E008957A
:100910008FEF9FEF0895FC01918D828D981731F034
:10092000828DE80FF11D858D90E008958FEF9FEF88
:100930000895FC01918D228D892F90E0805C9F4F5E
:10094000821B91098F739927089580E394E00E9498
:10095000990421E0892B09F420E0822F089580E09A
:1009600090E0892B29F00E94A50481110C940000CD
:100970000895FC01A48DA80FB92FB11DA35ABF4F34
:100980002C91848D90E001968F739927848FA6898E
:10099000B7892C93A089B1898C91837080648C93E2
:1009A000938D848D981306C00288F389E02D808191
:1009B0008F7D80830895EF92FF920F931F93CF93C3
:1009C000DF93EC0181E0888F9B8D8C8D98131AC08A
:1009D000E889F989808185FF15C09FB7F894EE8971
:1009E000FF896083E889F9898081837080648083CE
:1009F0009FBF81E090E0DF91CF911F910F91FF9019
:100A0000EF900895F62E0B8D10E00F5F1F4F0F73C0
:100A10001127E02E8C8D8E110CC00FB607FCFACF7B
:100A2000E889F989808185FFF5CFCE010E94B9045C
:100A3000F1CFEB8DEC0FFD2FF11DE35AFF4FF0824C
:100A40009FB7F8940B8FEA89FB8980818062CFCFB2
:100A5000CF93DF93EC01888D8823B9F0AA89BB89F5
:100A6000E889F9898C9185FD03C0808186FD0DC0E0
:100A70000FB607FCF7CF8C9185FFF2CF808185FF01
:100A8000EDCFCE010E94B904E9CFDF91CF91089557
:100A900085ED8093BC008091BC0084FDFCCF10925A
:100AA0000B040895613298F420910B04243089F4EA
:100AB00060937003282FA0E5B3E0FC018E2F821B0A
:100AC000861710F080E0089581918D93F7CF81E033
:100AD000089582E00895FC0110AE128212A20895DA
:100AE000CF93DF93EC0120E030E0A901E991EE2300
:100AF00091F0AAE0B0E00E9497352E2FEE0F330B55
:100B000020533109032E000C440B550B260F371FC1
:100B1000481F591FEBCFCA01B901DF91CF9108954A
:100B2000FC0190819923D9F080ED890F8A3050F033
:100B30008FEB890F863088F08FE9890F8630F0F4CB
:100B400089EA890F91819923D1F08295807F20EDE8
:100B5000290F2A3030F4820F089589ECF2CF80E01B
:100B6000F1CF2FEB290F263018F49753890F0895F2
:100B70002FE9290F263010F49755F8CF80E008951B
:100B800080E394E00C94DB0480E394E00C9477041D
:100B900080E394E00C949904CF93DF93EC0164EF2D
:100BA00071E080E090E00E94FB038C81882339F0A3
:100BB000813041F08AE595E0DF91CF91089584E698
:100BC00095E0FACF8FE595E0F7CFCF92DF92EF92E5
:100BD000FF926B017C01A89584E0C816D104E10462
:100BE000F10460F063E070E080E090E00E94FB03BD
:100BF00083E0C81AD108E108F108EDCFC701B601BA
:100C0000FF90EF90DF90CF900C94FB03DC01ED910F
:100C1000FC911197918112968C91892B8183089573
:100C20006115710561F061307105A1F4DC01ED9190
:100C3000FC911197228112963C91232B2283DC0197
:100C4000ED91FC911197218112968C9180958223D0
:100C5000818308950C940606FC018081877080646E
:100C600080937C0080917A00806480937A008091E8
:100C70007A0086FDFCCF80917800909179000895EC
:100C80002F923F924F925F926F927F928F929F929C
:100C9000AF92BF92CF92DF92EF92FF920F931F938A
:100CA000CF93DF9300D000D000D0CDB7DEB7A895AA
:100CB0000E942E0469837A838B839C831E821D820B
:100CC00001E0412C512C320110E0C12CD12C7601D5
:100CD0000E942E044B015C01DC01CB0129813A8189
:100CE0004B815C81821B930BA40BB50B8397A105F1
:100CF000B10508F0A3C082EC95E00E942C06FC012F
:100D000001111CC091E031E0231632E0330608F4F3
:100D100090E081E0E13042E0F40708F480E09817C9
:100D200069F0D501C40184199509A609B709069788
:100D3000A105B10518F01F5F24013501113020F025
:100D4000133028F01330B9F000E01F01C1CFBF010C
:100D500090E080E07250810991099B01AC010E94F2
:100D60003F35C60ED71EE81EF91E8D819E81019665
:100D70009E838D83E9CF8D819E819C0150E040E070
:100D8000C701B6010E946F3549015A0180E090E029
:100D9000A0E0B0E4281739074A075B0740F462E097
:100DA000B695A795979587956A95D1F7F3CF40E0CB
:100DB00050E0BA010097A105B105F9F06C017D0181
:100DC000C40ED51EE61EF71E769567955795479576
:100DD0008C149D04AE04BF0440F08C189D08AE082E
:100DE000BF08480F591F6A1F7B1F22E0B695A795C1
:100DF000979587952A95D1F7DDCF40930E065093AE
:100E00000F06609310067093110626960FB6F8949D
:100E1000DEBF0FBECDBFDF91CF911F910F91FF902D
:100E2000EF90DF90CF90BF90AF909F908F907F908A
:100E30006F905F904F903F902F90089510920E0604
:100E400010920F061092100610921106A895DDCF91
:100E50000895E091C4038091C303E81730F4F0E0F3
:100E6000EB53FC4F808190E008958FEF9FEF089542
:100E70009091C4038091C3032FEF3FEF981748F47C
:100E8000E92FF0E0EB53FC4F208130E09F5F90931F
:100E9000C403C90108958091C3039091C403891BC1
:100EA000990B0895CF92DF92EF92FF920F931F93C9
:100EB000CF93DF937C01CB018A0120910C04222384
:100EC00089F0EB016B01C40ED51ECC15DD0569F070
:100ED0006991D701ED91FC910190F081E02DC7015E
:100EE0000995F3CF642F0E945205C801DF91CF917D
:100EF0001F910F91FF90EF90DF90CF900895CF93C7
:100F0000DF931F92CDB7DEB7698320910C042223B3
:100F1000F9F020912F04203258F021E030E0FC015C
:100F20003383228390E080E00F90DF91CF9108958A
:100F300080910D04E82FF0E0E25FFB4F99819083F0
:100F40008F5F80930D0480932F0481E090E0ECCFBD
:100F500061E0CE0101960E945205F7CF682F84EA26
:100F600095E00C947F07CF93C82F88E10E94380248
:100F70008C2F0E94AE070E94DF0162E088E10E9490
:100F800060021092C4038093C30384EA95E00E9438
:100F90003807C82F84EA95E00E94380720E03C2FEC
:100FA000A901482BCA01CF910895CF93DF93909167
:100FB0002705992311F097E0892720EC31E080FF85
:100FC00002C020E831E030932A052093290581FFF3
:100FD00009C02091290530912A052F7730932A05E1
:100FE0002093290582FF09C08091290590912A0547
:100FF0009E7F90932A0580932905D0912905C09161
:101000002A058091260580620E94380282E10E94B2
:10101000AE078D2F0E94AE078C2F0E94AE070E9454
:10102000DF018111FCCFDF91CF91089590912B05C5
:1010300090FF02C0811187E09091280591110C94D6
:10104000D5070895DF92EF92FF920F931F93CF93EE
:10105000DF9300D000D000D0CDB7DEB788E60E9485
:10106000380260E084EA95E00E947F070E94DF0179
:1010700067E070E088E690E00E949E0284EA95E0D6
:101080000E9438078F77282F30E094E03595279518
:101090009A95E1F7922F990F990F122F191B110FA3
:1010A000180F84EA95E00E9438079C0144E03595CA
:1010B00027954A95E1F72F703327922F990F990FB3
:1010C000022F091B000F080F84EA95E00E943807E1
:1010D0009C0154E0359527955A95E1F72F703327F9
:1010E000922F990F990FF22EF91AFF0CF80E84EA3D
:1010F00095E00E94380784EA95E00E9438079C0139
:1011000064E0359527956A95E1F72F703327922F84
:10111000990F990FE22EE91AEE0CE80E84EA95E099
:101120000E9438079C0174E0359527957A95E1F780
:101130002F703327922F990F990FD22ED91ADD0CC9
:10114000D80E84EA95E00E943807AC01E4E055959A
:101150004795EA95E1F74F705527942F990F990F0E
:10116000242F291B220F280F3D2DA701B80180E055
:1011700090E026960FB6F894DEBF0FBECDBFDF918C
:10118000CF911F910F91FF90EF90DF900895CF9333
:10119000DF9300D000D000D0CDB7DEB7809113052B
:1011A000882371F10E944202882351F10E94220893
:1011B000209114054CE38091150590E0249F800D4B
:1011C000911D1124709116052091170530E0749F30
:1011D000200D311D112470E0549F600D711D1124EC
:1011E00028173907B0F46817790730F02617370742
:1011F000A8F08617970780F081E06217730760F404
:1012000026960FB6F894DEBF0FBECDBFDF91CF910B
:1012100008956817790780F780E0F2CF81E0F0CF7A
:101220001F93CF93DF93EC0188E60E94380260E0C1
:1012300084EA95E00E947F072D811AE0822F612FBA
:101240000E944F35682F660F680F660F620F84EAA1
:1012500095E00E947F072C81822F612F0E944F35DD
:10126000682F660F680F660F620F84EA95E00E9490
:101270007F072B81822F612F0E944F35682F660FC9
:10128000680F660F620F84EA95E00E947F0760E0B6
:1012900084EA95E00E947F072A81822F612F0E94B5
:1012A0004F35682F660F680F660F620F84EA95E06E
:1012B0000E947F072981822F612F0E944F35682F5E
:1012C000660F680F660F620F84EA95E00E947F0741
:1012D0002881822F612F0E944F35682F660F680F7B
:1012E000660F620F84EA95E00E947F0760E084EA5F
:1012F00095E00E947F07DF91CF911F910C94DF0151
:10130000CF93C62FFC01818580620E94380283E161
:101310000E94AE078C2F0E94AE070E94DF01811150
:10132000FCCFCF910895FF920F931F93CF93DF933C
:101330008C01D62FF42EFC01C58564FDC061D5FD5E
:10134000C860D6FDC460D7FDC260FF2029F1C06A25
:101350006C2FC8010E9480096C2F6F7DC8010E940C
:101360008009F801C585D0FDC061D1FDC860D2FDFE
:10137000C460D3FDC260FF2089F0C06A6C2FC80131
:101380000E9480096C2F6F7DC801DF91CF911F9162
:101390000F91FF900C948009C062DACFC062EECF4B
:1013A000FC012385222319F041E00E94930981E08A
:1013B00090E008958091180581110DC0809113056A
:1013C000882349F00E944202882329F066E08DE1DB
:1013D00095E00C94D0090895CF93DF93CDB7DEB795
:1013E00028970FB6F894DEBF0FBECDBFFC01238552
:1013F000222339F128E0E4E0F1E0DE0111960190CA
:101400000D922A95E1F7FC012781241710F44FEF84
:10141000420F50E0440F551F21E030E02C0F3D1FDC
:10142000420F531FFA012081620F606840E0289646
:101430000FB6F894DEBF0FBECDBFDF91CF910C94F5
:10144000930928960FB6F894DEBF0FBECDBFDF918B
:10145000CF910895CF9341E060E08DE195E00E9447
:10146000EC09C0E160E28DE195E00E94D009C15035
:10147000C9F741E060E08DE195E0CF910C94EC0973
:10148000FC012385222341F040E061E00E949309A2
:101490008BE39FE10197F1F70895DC011496EC913D
:1014A000149715968C91E81740F4F0E0EE0FFF1FAB
:1014B000E859FE4F8081918108958DE195E00E9469
:1014C000400A90E080E0089590E080E00895FC01FB
:1014D00092810190F081E02D8281662319F0982B92
:1014E0009283089590959823FBCF80910D0660E03C
:1014F000882341F185E00E942E0360E086E00E948F
:101500002E0360E089EC95E00E94670A8091E10576
:101510009091E2058F7B9093E2058093E1050E9414
:101520002E046093F6057093F7058093F805909369
:10153000F9051092120610921306109214061092DA
:101540001506089583EC95E00E94670A60E086EC3A
:1015500095E00E94670AD5CF8091B705882321F0D6
:1015600081E08093B60508958091E1059091E205B0
:1015700080689093E2058093E1050E94750A90E0EF
:1015800080E00E94CA0181E08093B505089560E083
:1015900087E096E00E94670A61E08AE096E00E9498
:1015A000670A6CE271E080E090E00E94FB0360E07B
:1015B00087E096E00E94670A60E08AE096E00E9479
:1015C000670A10920606089561E087E096E00E949F
:1015D000670A60E08AE096E00E94670A6CE271E0C8
:1015E00080E090E00E94FB0360E087E096E00E94CC
:1015F000670A60E08AE096E00E94670A81E08093D3
:1016000006060895AF92BF92CF92DF92EF92FF92BB
:101610000F931F93CF93DF937C016B0184E6A82E79
:10162000B12C0FEF13E0D0E0C0E081EC95E00E9418
:101630002C06C817D90708F444C08017910708F48E
:101640008C0121E0A21AB10881F78091B005909138
:10165000B105029711F10E94C6012091E105309178
:10166000E205882381F134603093E2052093E1059F
:101670008091E1059091E205CB36E3E0DE0728F1A9
:101680009E7F92609093E2058093E10597FD05C0EF
:101690008091060681110E94C70AE114F10431F01D
:1016A000F70111830083F601D183C083DF91CF91CD
:1016B0001F910F91FF90EF90DF90CF90BF90AF9070
:1016C0000895EC01BECF3B7FCFCF91609093E205B0
:1016D0008093E10597FDE1CF809106068111DDCF72
:1016E0000E94E40ADACFFC01A081B1819C91828141
:1016F000982381E009F480E00895A8951092B70539
:101700001092B60582EB95E00E94730B882321F0BE
:1017100081E08093B50508951092B5050895EF9284
:10172000FF920F931F93CF93DF93C4E1D0E0A8956E
:1017300082EB95E00E94730B882319F162E370E05D
:1017400080E090E00E94FB03219789F782E012C0BD
:10175000C8E2D0E0A89582EB95E00E94730B882345
:10176000A1F162E370E080E090E00E94FB0321972A
:1017700089F783E0DF91CF911F910F91FF90EF9058
:10178000089581E08093B7051092B605CDE3D0E0CF
:101790008FE2E82E82E8F82E03E312E88091B60586
:1017A0008111D6CF2197A1F261E088EB95E00E94EC
:1017B000670AC7010197F1F760E088EB95E00E94A6
:1017C000670AC8010197F1F7E9CF68EE73E080E09E
:1017D00090E00E94E5051092B5051092B70581E0F2
:1017E0009091B605992331F280E0C4CFCF92DF9279
:1017F000EF92FF92CF93DF930E942E046B017C0146
:10180000D1E0C2E0CC2371F08CEC95E00E94730B28
:10181000882341F0DD2389F008C0C1110EC0D0E05B
:10182000C0E016C0DD23D9F3C0E08FEC95E00E9444
:10183000730BD82F882389F3D1E00E942E046C19F2
:101840007D098E099F096431710581059105D0F2EA
:101850008C2F8D2BDF91CF91FF90EF90DF90CF9069
:1018600008958091320680FF30C08E7F80933206CB
:1018700060912E0670912F0680913006909131066E
:10188000611571058105910501F120E13EE040E01F
:1018900050E00E946F3580912A0690912B06A0910E
:1018A0002C06B0912D06BA01A901480F591F6A1FD5
:1018B0007B1F40932A0650932B0660932C0670934F
:1018C0002D068DE090E00C9422350895EF92FF9262
:1018D0000F931F93CF93DF937B01482F60E08DE13F
:1018E00095E00E94EC09E70109900020E9F72197B3
:1018F000CE19C13108F0C0E1DE2D8701802F8D1B8C
:101900008C1740F4F80161918F018DE195E00E9400
:10191000D009F4CFC03139F060E28DE195E00E944A
:10192000D009CF5FF7CFDF91CF911F910F91FF903B
:10193000EF900895CF93DF93EC0140E150E08CE20B
:1019400095E00E94F13410923C056CE275E0CE0106
:10195000DF91CF910C94660CCF93DF93EB01BC0128
:1019600090E080E00E949A0CBE0181E090E0DF915F
:10197000CF910C949A0CBC0188E092E00E94AC0CD0
:101980006CED75E080E090E00C94FB0390E080E06B
:101990000E94CA0166E172E081E090E00E949A0C28
:1019A0008091E10586FF06C068EB7BE080E090E077
:1019B0000E94E50588E19EE00FB6F894A895809313
:1019C00060000FBE909360006CED75E080E090E0E9
:1019D0000C94FB03DC011496EC91149715962C9152
:1019E000E21740F4F0E0EE0FFF1FE85AFE4F80814F
:1019F00091810895FC0114820E94C60C88E995E04B
:101A00000895FC0184818F5F84839581981708F481
:101A10001482E48168E670E0E91750F4F0E0EE0F1C
:101A2000FF1FE85AFE4F0190F081E02D6281738123
:101A300081E090E00C949A0CFC0114826281738125
:101A400090E080E00E949A0C60919305709194055B
:101A500081E090E00C949A0CFC0184818F5F848378
:101A60009581981708F41482E48168E670E0E9171C
:101A700050F4F0E0EE0FFF1FE859FE4F0190F081A7
:101A8000E02D6281738181E090E00C949A0CCF93F9
:101A9000DF93EC011C826A817B8190E080E00E94F0
:101AA0009A0CEC81F0E0EE0FFF1FE859FE4F019019
:101AB000F081E02D6281738181E090E0DF91CF9130
:101AC0000C949A0CFC01148263EF72E090E080E0C9
:101AD0000E949A0C68E172E081E090E00C94660C40
:101AE000FC0114826AE770E090E080E00E949A0CAA
:101AF0006FE172E081E090E00C94660CFC011482CE
:101B00006DE670E090E080E00E949A0C6FE172E078
:101B100081E090E00C94660CFB0101900020E9F755
:101B20003197AF01461B570BDC01ED91FC91028010
:101B3000F381E02D09948F929F92AF92BF92EF9222
:101B4000FF920F931F93CF93DF93CDB7DEB7A1978B
:101B50000FB6F894DEBF0FBECDBF7C01FA01CB01FA
:101B600019A2223008F42AE08E010F5D1F4F822E49
:101B7000912CB12CA12CBF01A50194010E946F35BD
:101B8000F901CA016A300CF5605DD8016E938D01D0
:101B9000232B242B252B79F790E080E0109721F060
:101BA000BD01C7010E948C0DA1960FB6F894DEBF4F
:101BB0000FBECDBFDF91CF911F910F91FF90EF909E
:101BC000BF90AF909F908F900895695CDECF6115B4
:101BD000710511F00C948C0D90E080E00895CF9386
:101BE000DF93EA01462F682F8DE195E00E94EC0912
:101BF000BE018DE195E0DF91CF910C94E70DCF937D
:101C0000DF93EC018C818F5F833098F48C830E948A
:101C10002A0AEC81F0E0EE0FFF1FE45FFE4F4081E7
:101C2000518161E070E090E080E0DF91CF910C9411
:101C3000EF0D1C82ECCFCF93DF93EC018C818F5F93
:101C4000823098F48C830E942A0AEC81F0E0EE0F37
:101C5000FF1FEE5EFE4F4081518161E070E090E039
:101C600080E0DF91CF910C94EF0D1C82ECCFCF93ED
:101C7000DF93EC018C818F5F823098F48C830E941B
:101C80002A0AEC81F0E0EE0FFF1FEE5EFE4F40816E
:101C9000518161E070E090E080E0DF91CF910C94A1
:101CA000EF0D1C82ECCF40E150E0BC018CE295E0EE
:101CB0000E94F13410923C056CE275E08DE195E0F4
:101CC0000C94E70DCF93DF93EC018C818F5F823012
:101CD00008F58C830E942A0AEC8181E0909113051B
:101CE000911180E0E81318C043E252E061E070E037
:101CF00090E080E00E94EF0DEC81F0E0EE0FFF1F1E
:101D0000EE5EFE4F608171818DE195E0DF91CF91B4
:101D10000C94E70D1C82DECFF0E0EE0FFF1FEE5EAD
:101D2000FE4F4081518161E070E090E080E0DF9102
:101D3000CF910C94EF0DCF93DF93EC0181E0909164
:101D40001305911180E08C8363EF72E090E080E0F6
:101D50000E949A0C0E942A0A43E252E061E070E07D
:101D600090E080E00E94EF0DEC81F0E0EE0FFF1FAD
:101D7000EE5EFE4F608171818DE195E0DF91CF9144
:101D80000C94E70DCF93DF93EC0143E252E061E066
:101D900070E090E080E00E94EF0DEC81F0E0EE0F4B
:101DA000FF1FEE5EFE4F608171818DE195E00E9424
:101DB000E70D64EF71E080E090E00E94FB038C810E
:101DC000882329F088E995E0DF91CF91089582E892
:101DD00095E0FACFCF93DF93EC0143E252E061E06C
:101DE00070E090E080E00E94EF0DEC81F0E0EE0FFB
:101DF000FF1FEE5EFE4F608171818DE195E00E94D4
:101E0000E70D64EF71E080E090E00E94FB038C81BD
:101E1000811102C00E94C60C90E080E0DF91CF915A
:101E200008956115710521F080E394E00C948C0D08
:101E300090E080E00895CF93DF93E1EAF3E080E063
:101E4000EF019191992311F08927FACF1F928F9377
:101E500085E292E09F938F93DF93CF930E94DF35CB
:101E60008DE08B831C820F900F900F900F900F903E
:101E70000F90DF91CF9108951F928F931F9284E26C
:101E80008F938BE292E09F938F9381EA93E09F93ED
:101E90008F930E94DF350E941B0F8DB79EB7089667
:101EA0000FB6F8949EBF0FBE8DBF61EA73E08DEC54
:101EB00094E00C94110FEF92FF921F93CF93DF9356
:101EC00090914F03C2E0911117C0C091E3051091AA
:101ED000E705D091F1052091E1053091E205790106
:101EE0009AE1E92291E2F922811128C0CC2379F00C
:101EF000C13049F430FF0FC08C2FDF91CF911F917B
:101F0000FF90EF900895C23021F430FD04C0C1E08D
:101F1000F3CFC330D1F380914E03C8130FC080912B
:101F20004D0318130BC080914C03D81307C0809148
:101F30004A0390914B03E816F90649F33F932F9318
:101F40001F92DF931F921F931F92CF931F9284E2E1
:101F50008F9383E392E09F938F9381EA93E09F9323
:101F60008F930E94DF350E941B0F61EA73E08DECB6
:101F700094E00E94110FC0934E0310934D03D09331
:101F80004C03F0924B03E0924A038DB79EB70E9636
:101F90000FB6F8949EBF0FBE8DBFC0E0ADCFCF93FC
:101FA000DF93EC018091DF0580FF41C086E08D83E7
:101FB0008091F0058E838DE492E09F938F9380E56E
:101FC00092E09F938F9381EA93E09F938F930E9477
:101FD000DF3561EA73E090E080E00E94660C90914A
:101FE000F1059C838D810F900F900F900F900F90B3
:101FF0000F90981708F48C838C811F928F938FE534
:1020000092E09F938F9381EA93E09F938F930E9436
:10201000DF350F900F900F900F900F900F9061EAA7
:1020200073E081E090E0DF91CF910C94660C86E044
:102030008D8388E18E838AE492E0BFCF81115BC0FB
:1020400087E692E09F938F931F9284E28F938AE6B4
:1020500092E09F938F9381EA93E09F938F930E94E6
:10206000DF358DB79EB708960FB6F8949EBF0FBEAA
:102070008DBF8091EF04882361F06FE273E081EA05
:1020800093E00E94CD356FEC74E081EA93E00E940A
:10209000CD35209106052223E9F081EA93E0FC0189
:1020A00001900020E9F7CF011F922F931F922AE39E
:1020B0002F932FE632E03F932F9301979F938F93B7
:1020C0000E94DF358DB79EB708960FB6F8949EBF75
:1020D0000FBE8DBF0E941B0F61EA73E08DEC94E090
:1020E0000E94110F80910505882341F06AE08DEC74
:1020F00094E00C94C00584E692E0A4CF08951F9369
:10210000CF93DF93D82FC62F142F1092A103411124
:1021100006C063E272E081EA93E00E94CD356D2F44
:1021200070E090E080E00E940403BC0181EA93E04B
:102130000E94CD3567E772E081EA93E00E94CD35D9
:10214000113031F463E272E081EA93E00E94CD3510
:102150006C2F70E090E080E00E940403BC0181EAF3
:1021600093E00E94CD3561EA73E081E090E0DF9179
:10217000CF911F910C94660CFC0184818F5F8C338E
:1021800038F4848341E06481809148030C947F108B
:102190001482F8CFCF93DF93EC0163EC70E090E012
:1021A00080E00E949A0C609149036C8341E0809129
:1021B0004803DF91CF910C947F10FC0184818F5FE5
:1021C0008C3338F4848341E06481809148030C941B
:1021D0007F101482F8CFCF93DF93EC0169EB70E0AE
:1021E00090E080E00E949A0C609149036C8341E08A
:1021F00080914803DF91CF910C947F10FC01848182
:102200008093480340E0609149030E947F1064EF8F
:1022100071E080E090E00E94FB0380E595E0089586
:10222000FC0184818F5F883138F4848340E06091C1
:10223000490384810C947F101482F8CFCF93DF93ED
:10224000EC016FEA70E090E080E00E949A0CE3E11C
:10225000F5E08381809348036481609349038C8314
:1022600040E0DF91CF910C947F10FC01848180933A
:10227000480340E0609149030E947F1064EF71E0E1
:1022800080E090E00E94FB0385E595E00895FC0165
:1022900084818F5F883138F4848340E06091490302
:1022A00084810C947F101482F8CFCF93DF93EC01DC
:1022B00064EA70E090E080E00E949A0CE3E1F5E0CF
:1022C0008181809348036281609349038C8340E05D
:1022D000DF91CF910C947F10CF92DF92EF92FF921B
:1022E0000F931F93CF93DF936C01F62E142FD22FF1
:1022F000CE2D1092A103E11006C063E272E081EAE4
:1023000093E00E94CD356F2D70E090E080E00E9458
:102310000403BC0181EA93E00E94CD3569E772E0D5
:1023200081EA93E00E94CD35C13031F463E272E07E
:1023300081EA93E00E94CD35612F70E090E080E06B
:102340000E940403BC0181EA93E00E94CD3569E755
:1023500072E081EA93E00E94CD35C23031F463E24D
:1023600072E081EA93E00E94CD35B60190E080E012
:102370000E940403BC0181EA93E00E94CD356FE224
:1023800073E081EA93E00E94CD35C33031F463E21B
:1023900072E081EA93E00E94CD356D2F70E090E00D
:1023A00080E00E940403BC0181EA93E00E94CD35E5
:1023B00067E772E081EA93E00E94CD35C43031F4E2
:1023C00063E272E081EA93E00E94CD35602F70E015
:1023D00090E080E00E940403BC0181EA93E00E9447
:1023E000CD3561EA73E081E090E0DF91CF911F91FC
:1023F0000F91FF90EF90DF90CF900C94660CAF920E
:10240000BF92CF92DF92EF92FF920F931F93CF93E1
:10241000DF9300D000D000D0CDB7DEB7FC0114812F
:1024200010934903F0904803B0904703A0904603EF
:10243000C0904403D090450384E0E82E012F2F2D57
:102440004B2D6A2DC6010E946C11F0EDCF16F7E0FE
:10245000DF0620F080EDC81A87E0D80AC982AA8278
:10246000BB82FC821D831E82CE0101960E94100950
:1024700064EF71E080E090E00E94FB0388E995E062
:1024800026960FB6F894DEBF0FBECDBFDF91CF9179
:102490001F910F91FF90EF90DF90CF90BF90AF9082
:1024A0000895EF920F93CF93DF93EC018C818F5FB0
:1024B0008C33B8F48C830E942A0A84E0E82E0C81C5
:1024C0002091480340914703609146038091440363
:1024D000909145030E946C11DF91CF910F91EF9085
:1024E00008951C82E8CFEF920F93CF93DF93EC0116
:1024F0006DE970E090E080E00E949A0C0091490341
:102500000C8384E0E82E20914803409147036091BA
:10251000460380914403909145030E946C11DF9122
:10252000CF910F91EF900895EF920F93FC012481CA
:102530002093480383E0E82E00914903409147032C
:102540006091460380914403909145030E946C1171
:1025500064EF71E080E090E00E94FB038EE695E07E
:102560000F91EF900895EF920F93CF93DF93EC01CB
:102570008C818F5F8831B8F48C830E942A0A83E0B3
:10258000E82E009149032C81409147036091460356
:1025900080914403909145030E946C11DF91CF918B
:1025A0000F91EF9008951C82E8CFEF920F93CF9395
:1025B000DF93EC0168E970E090E080E00E949A0C03
:1025C000209148032C8383E0E82E00914903409139
:1025D00047036091460380914403909145030E9414
:1025E0006C11DF91CF910F91EF900895EF920F93BF
:1025F000FC01848190E0909345038093440322E0A2
:10260000E22E0091490320914803409147036091D5
:1026100046030E946C1164EF71E080E090E00E943C
:10262000FB0383E795E00F91EF900895EF920F93EE
:10263000FC0184818F5F823290F48483848192E0F4
:10264000E92E00914903209148034091470360918E
:10265000460390E00E946C110F91EF90089587E17E
:10266000ECCFEF920F93CF93DF93EC0163E970E02F
:1026700090E080E00E949A0C8091440399EE980FBC
:102680009B30A0F48C838C8192E0E92E0091490369
:1026900020914803409147036091460390E00E94D7
:1026A0006C11DF91CF910F91EF90089587E18C83AA
:1026B00087E190E09093450380934403E4CFEF9249
:1026C0000F93FC01448140934703EE24E39400916F
:1026D00049032091480360914603809144039091FF
:1026E00045030E946C1164EF71E080E090E00E946D
:1026F000FB0388E795E00F91EF900895EF920F9319
:10270000CF93DF93EC018C818F5F8032B8F48C83A0
:102710000E942A0AEE24E394009149032091480381
:102720004C816091460380914403909145030E943F
:102730006C11DF91CF910F91EF90089581E0E7CF79
:10274000EF920F93CF93DF93EC016FE870E090E08E
:1027500080E00E949A0C409147034C83EE24E3945E
:1027600000914903209148036091460380914403FE
:10277000909145030E946C11DF91CF910F91EF90E2
:102780000895EF920F93FC01648160934603E12C5E
:1027900000914903209148034091470380914403ED
:1027A000909145030E946C1164EF71E080E090E02D
:1027B0000E94FB038DE795E00F91EF900895EF9253
:1027C0000F93CF93DF93EC018C818F5F8D30B0F44A
:1027D0008C830E942A0AE12C00914903209148032E
:1027E000409147036C8180914403909145030E947E
:1027F0006C11DF91CF910F91EF90089581E0E8CFB8
:10280000EF920F931F93CF93DF9300D000D000D0AF
:10281000CDB7DEB78C0169E870E090E080E00E94FF
:102820009A0C0E942208822F252F30934603409352
:10283000470390E0909345038093440350934803EB
:1028400060934903F8013483E12C062F632F0E9423
:102850006C1126960FB6F894DEBF0FBECDBFDF9188
:10286000CF911F910F91EF9008958F929F92AF9209
:10287000BF92CF92DF92EF92FF920F931F93CF936D
:10288000DF9300D000D000D0CDB7DEB7082F109175
:10289000E30580912B0586FF05C08CEF810F8B30FF
:1028A00008F0F8C38091DF05E2E0DE2E80FD02C073
:1028B000DD24D394C090F1050E942E044B015C01ED
:1028C0009091E3058091E405981303C0002309F477
:1028D00042C028EE820E23E0921EA11CB11C809102
:1028E000E10581FD02E01F92CF921F92DF9280E20C
:1028F00091E09F938F9371EAE72E73E0F72EFF929A
:10290000EF920E94DF350FB6F894DEBF0FBECDBF49
:10291000173009F440C208F078C1133009F40CC232
:1029200008F063C1113009F490C1123009F4F2C10A
:102930008091070580FD02C083FF0DC08091E105F5
:1029400081FD09C081E00E9416086BE272E090E010
:1029500080E00E949A0C80913D0590913E05A091E7
:102960003F05B0914005A5019401281B390B4A0B86
:102970005B0BDA01C901883E9340A105B10518F44B
:10298000013009F087C380923D0590923E05A092E8
:102990003F05B09240058091E10581FD05C08AEFB9
:1029A000810F823008F44DC20E9422085C836D833F
:1029B0007E83133009F0D6C280912B0587FF3BC080
:1029C0008F7780932B05609112067091130680918A
:1029D000140690911506683E53E075078105910530
:1029E00008F49AC228EE33E040E050E00E946F35D0
:1029F000122F032F24E630E040E050E00E946F35B4
:102A00003F932F930F931F938AE892E09F938F93A6
:102A100081EA93E09F938F930E94DF350FB6F8947D
:102A2000DEBF0FBECDBF41EA53E070E060E08AE058
:102A300090E00E94EF0D60912E0670912F0680911C
:102A400030069091310620E13EE040E050E00E94E7
:102A50006F355F934F933F932F938BE792E09F9354
:102A60008F9301EA13E01F930F930E94DF35A801B3
:102A700061E070E090E080E00E94EF0D60912A0636
:102A800070912B0680912C0690912D0628EE33E054
:102A900040E050E00E946F355F934F933F932F9338
:102AA00082E892E09F938F931F930F930E94DF35EC
:102AB000A80161E070E087E090E00E94EF0D809156
:102AC00007050FB6F894DEBF0FBECDBF80FF2BC247
:102AD0000E942A0A20910D0530910E05211596EFCE
:102AE000390751F1C9016AE070E00E945B3597FF38
:102AF00003C09195819591099F938F93C9016AE0D5
:102B000070E00E945B357F936F9382E992E09F9320
:102B10008F9381EA93E09F938F930E94DF3541EA80
:102B200053E061E070E090E080E00E94EF0D0FB6AE
:102B3000F894DEBF0FBECDBF20910F053091100578
:102B4000211546EF340751F1C9016AE070E00E9497
:102B50005B3597FF03C09195819591099F938F9362
:102B6000C9016AE070E00E945B357F936F9382E950
:102B700092E09F938F9381EA93E09F938F930E94BB
:102B8000DF3541EA53E061E070E085E090E00E94CB
:102B9000EF0D0FB6F894DEBF0FBECDBF80910705D5
:102BA000282F30E0A901559547955595479540FF49
:102BB000BCC13595279520FF6DC28B7F809307059B
:102BC00081E026960FB6F894DEBF0FBECDBFDF9131
:102BD000CF911F910F91FF90EF90DF90CF90BF901A
:102BE000AF909F908F900C941608153009F4C7C0D1
:102BF00008F4BBC081E00E9416086AE872E0023067
:102C000009F0DEC085E992E0B7C01A3009F4BDC012
:102C100070F4183009F4D9C0193009F089CE81E078
:102C20000E9416086EE372E083E492E0A5C01E3FA6
:102C300009F4F1C008F0D5C01E3009F079CE81E06A
:102C40000E94160868E572E0DDCF8DE195E00E94F4
:102C5000400A40E060E08DE195E00E94EC0982E0EE
:102C60000E9416080E94DA098EED92E00E94530E2F
:102C700041EA53E070E060E08AE090E00E94EF0DEE
:102C800060912E0670912F0680913006909131064A
:102C900020E13EE040E050E00E946F355F934F93AB
:102CA0003F932F938BE792E09F938F93FF92EF9246
:102CB0000E94DF3541EA53E061E070E090E080E09F
:102CC0000E94EF0D60912A0670912B0680912C06D0
:102CD00090912D0628EE33E040E050E00E946F35E1
:102CE0005F934F933F932F9382E892E09F938F934C
:102CF000FF92EF920E94DF3541EA53E061E070E01D
:102D000087E090E00E94EF0D0FB6F894DEBF0FBE93
:102D1000CDBF0ECE8DE195E00E94400A40E060E01C
:102D20008DE195E00E94EC0983E00E9416080E9464
:102D3000DA0984ED92E09ACF86E00E9416088DE1D0
:102D400095E00E94400A40E060E08DE195E00E943D
:102D5000EC090E94DA098BEC92E00E94530E8091FC
:102D60002B05806880932B05E3CD81E00E94160837
:102D700062EB72E080EC92E00E94AC0CD9CD81E075
:102D80000E94160866EA72E0F5CF81E00E941608FC
:102D900069E772E037CF81E00E941608023071F4D3
:102DA0008091DF059091E00594FF05C085E992E0F0
:102DB0006FE672E0E1CF80EC92E0FACF6FE672E06E
:102DC00090E080E00E949A0CB3CD81E00E9416084A
:102DD00085E992E0023011F080EC92E063E672E067
:102DE000CBCF85E00E9416088DE195E00E94400A55
:102DF00040E060E08DE195E00E94EC098FE492E014
:102E00000E94530E41EA53E070E060E08AE090E0F7
:102E10000E94EF0D8DCD0E94C601882381F087E0CE
:102E20000E9416088DE195E00E94400A40E060E0B3
:102E30008DE195E00E94EC0985E392E0E1CF85E029
:102E4000EFCF66E171E081EA93E00E94D83580918E
:102E5000E305863009F057C0C090BB05D090BC0593
:102E6000E090BD05F090BE050E942E0440EEC40E19
:102E700043E9D41E44E0E41EF11CA7019601261B81
:102E8000370B480B590BCA01B90128EE33E040E07B
:102E900050E00E946F35C90137FDFCC06CE370E063
:102EA0000E945B359F938F937F936F9380EA92E0AC
:102EB0009F938F938DEB93E09F938F930E94DF35C9
:102EC0006DEB73E081EA93E00E94CD350FB6F89484
:102ED000DEBF0FBECDBF61EA73E081E090E02696D1
:102EE0000FB6F894DEBF0FBECDBFDF91CF911F911B
:102EF0000F91FF90EF90DF90CF90BF90AF909F9099
:102F00008F900C94660CC090D205D090D305E090C1
:102F1000D405F090D505A8CF64E272E081EA93E091
:102F20000E94EA3480CD82FDB5C08460809307059D
:102F300086E047CE1F92CF921F92DF9280E291E00F
:102F40009F938F931F930F930E94DF350FB6F894D2
:102F5000DEBF0FBECDBF41EA53E070E060E08AE023
:102F600090E084C01E3F09F095C040E060E08DE134
:102F700095E00E94EC090E94DA0985E392E00E9444
:102F8000530E8E811F928F938D811F928F938C8110
:102F90001F928F938BE992E09F938F9301EA13E046
:102FA0001F930F930E94DF35A80161E070E090E06D
:102FB00080E00E94EF0D0FB6F894DEBF0FBECDBFCC
:102FC00080911305882309F4B5CF40E069E08DE1D5
:102FD00095E00E94EC0962E08DE195E00E94D00945
:102FE00066E08DE195E00E94D009809115051F9261
:102FF0008F93809114051F928F9380EAE82E82E0D0
:10300000F82EFF92EF921F930F930E94DF35A801D5
:1030100070E060E08BE090E00E94EF0D41E069E03D
:103020008DE195E00E94EC0961E08DE195E00E9460
:10303000D00966E08DE195E00E94D00980911705E6
:103040001F928F93809116051F928F93FF92EF929C
:103050001F930F930E94DF350FB6F894DEBF0FBEAB
:10306000CDBFA80161E070E08BE090E026960FB63E
:10307000F894DEBF0FBECDBFDF91CF911F910F91AE
:10308000FF90EF90DF90CF90BF90AF909F908F9088
:103090000C94EF0D26960FB6F894DEBF0FBECDBF91
:1030A000DF91CF911F910F91FF90EF90DF90CF9024
:1030B000BF90AF909F908F9008958091E3058E3FD1
:1030C000B9F090E080E00E94CA018EEF8093E305A2
:1030D0000E942E046093F6057093F7058093F8051F
:1030E0009093F90581E00E94351480E00C945B0F09
:1030F0000895CF93C82F80910705877F8093070598
:1031000080914D0590914E05009759F0DC01ED91AD
:10311000FC910280F381E02D0995C0E08C2FCF91C6
:103120000895C111FBCF8091E3058E3FB0F00E945E
:10313000C40280911305882389F30E94C7089091E7
:10314000E3059E3F69F4882369F080911305882385
:1031500029F381E080931805E1CF0E945D18E9CF43
:10316000882399F310921805D9CFCF93DF938091DC
:10317000E3051F928F931F9284E28F938AEA92E075
:103180009F938F93C1EAD3E0DF93CF930E94DF3503
:1031900009900020E9F766EC71E0CE0101970E94EA
:1031A000EA340E941B0F8DB79EB708960FB6F894AD
:1031B0009EBF0FBE8DBF61EA73E08DEC94E0DF919E
:1031C000CF910C94110FCF93DF93482F50E070E014
:1031D00060E02AE080E394E00E949B0DEC0165EB47
:1031E00072E080E394E00E948C0D8C0F9D1FDF91B4
:1031F000CF910895AC01990F660B770B2AE08DE112
:1032000095E00C949B0DCF93DF93EC018C818F5F45
:103210008C839E81981710F48D818C830E942A0ADA
:1032200041E060E08DE195E00E94EC099C81809195
:10323000F105981306C063E272E08DE195E00E940B
:10324000E70D8C8190E00E94FA1862E672E08DE151
:1032500095E0DF91CF910C94E70DCF938091DF053E
:10326000C1E080FDC2E081E090E0C13011F490E067
:1032700080E00E940035982F8FEF890F8E3F28F055
:1032800098E1C13069F48CE009C086E0963030F0F6
:10329000C13031F4892F993108F088E1CF91089538
:1032A0008091F0059817D0F7892FF8CFEF92FF9211
:1032B0000F931F93CF93DF93C82F062F142F809166
:1032C000DF059091E0057C0121E0E222FF2480FFF0
:1032D00035C08091F00511110E942D19C63080F182
:1032E0008C17A0F1C093F105D0E0C0E011110EC021
:1032F0006091F10521E0EF2809F022E081E090E003
:10330000213011F490E080E00E9414358091B005E6
:103310009091B105019729F48091F10590E00E9408
:10332000D302002319F081E00E943514CE01DF9111
:10333000CF911F910F91FF90EF90089588E1CBCF2F
:1033400086E08093F105C1E0D0E0D0CF8093F10515
:10335000C2E0D0E0CBCFCF93DF93C3E1D5E081E0F3
:10336000888361E084E090E00E9414351D82E0EBE8
:10337000F5E081A992A9906192AB81AB81E0DF91E8
:10338000CF910C943514CF93DF93C3E1D5E018822D
:1033900060E084E090E00E9414351D82E0EBF5E0EF
:1033A00081A992A99F7E92AB81AB81E0DF91CF9101
:1033B0000C943514CF93DF93EC0143E252E061E0CB
:1033C00070E090E080E00E94EF0DEC81F0E0EE0F05
:1033D000FF1FEE5EFE4F608171818DE195E00E94DE
:1033E000E70D64EF71E080E090E00E94FB038C81C8
:1033F000811107C00E94AB198EE995E0DF91CF9152
:1034000008950E94C319F8CF0F931F93CF93DF93B2
:10341000FC010481009349031091480341E0602FAF
:10342000812F0E947F10C3E1D5E01B830C83612FA5
:1034300087E090E00E9414356C8188E090E00E9463
:10344000143564EF71E080E090E00E94FB038EE9A8
:1034500095E0DF91CF911F910F9108950F931F93E6
:10346000CF93DF93FC01048100934903109148033B
:1034700041E0602F812F0E947F10C3E1D5E01983C6
:103480000A83612F85E090E00E9414356A8186E00E
:1034900090E00E94143564EF71E080E090E00E94BB
:1034A000FB038EE995E0DF91CF911F910F91089575
:1034B000CF93DF93EC0143E252E061E070E090E0F3
:1034C00080E00E94EF0D8C8190E00E94FA1862E685
:1034D00072E08DE195E00E94E70D64EF71E080E01D
:1034E00090E00E94FB036C818091DF0521E080FD6C
:1034F00022E081E090E0213011F490E080E00E9431
:10350000143540E060E08C810E94561988E995E00E
:10351000DF91CF910895CF93DF93C82F48E050E01B
:1035200081EA93E00E94D634809128058823A9F08F
:1035300088E0C89FB0011124606440E08DE195E00F
:103540000E949309C1EAD3E069918DE195E00E9460
:10355000D00983E0C93AD807B9F7DF91CF91089530
:10356000BC0182E090E00C942A35CF93C62F2091C5
:10357000DF053091E005823019F521603093E005D8
:103580002093DF0580E899EAA3E0B0E080931A0673
:1035900090931B06A0931C06B0931D068091DF0537
:1035A0009091E0050E94B01A0E942D1941E060E060
:1035B0000E945619CC2371F081E0CF910C94351400
:1035C0002E7F3093E0052093DF0580EC94EDA1E0A1
:1035D000B0E0DCCFCF9108952F923F924F925F924F
:1035E0006F927F928F929F92AF92BF92CF92DF9213
:1035F000EF92FF920F931F93CF93DF93CDB7DEB778
:103600002B970FB6F894DEBF0FBECDBF80E394E0DA
:103610000E9499041C01892B09F4E7C6512C412C06
:1036200070ED672E74E0772EEDEECE2EE2E0DE2E0A
:10363000FFECEF2EF4E0FF2E421453040CF0D5C63D
:1036400080E394E00E947704082F80910505882389
:1036500029F0602F8DEC94E00E94C005043249F4FB
:103660000093CF0481E08093EF049FEF491A590A39
:10367000E3CF9091CF049432C1F7E091EF04E032B0
:103680000CF0AEC681E08E0F0E2E000CFF0BE35344
:10369000FB4F8093EF040D3009F0A0C612827092A8
:1036A000F1046092F00481E0809304051091D0044D
:1036B00004E2010F1927E1EDF4E0DF019191992374
:1036C000A9F1903221F5809104058A3064F01092BE
:1036D00004051092CF041092EF041092060580E0CA
:1036E0000E941E10C2CF005E1927DF0111971C92A5
:1036F000A091040581E08A0F80930405AA0FBB0BFB
:10370000A353BB4F9496FC93EE939397D6CF9A32E4
:10371000D1F19E35D9F562E0B62E1C92CF010E9400
:10372000900521E0B21235C00813D1CF81E080931B
:103730004F03109206051091040512309CF0E12F02
:10374000EE0FFF0BE553FB4F83A194A1DC012C91FD
:103750002A3341F401960E9490058093060511508A
:10376000109304051092EF04E091F004F091F1043D
:103770008081873409F43EC47CF4863409F450C057
:103780000FEF1FEF20C3BB24B394C7CF090F192736
:1037900094CF18139CCFCACF833509F489C18A35D9
:1037A00079F78181803361F780910405833009F0D6
:1037B0005AC08091F2049091F3040E947005062F84
:1037C0008091F4049091F5040E947005162F0093E7
:1037D000DD056093DE051F926F931F920F938EEFAE
:1037E00092E09F938F9381EA93E09F938F930E943F
:1037F000DF3561EA73E080E394E00E948C0D65EBB5
:1038000072E080E394E00E948C0D602F85E290E0EE
:103810000E941435612F86E290E00E9414355CC44A
:103820008181853409F4A3C00CF03FC0813309F4D1
:1038300082C0E4F4803309F0A3CF80910405823084
:1038400009F09ECFE091F204F091F30480912B05F2
:103850009081903309F46DC08F7B80932B0580811C
:10386000803309F071C010E000E0ADC2823409F489
:103870006FC0843409F084CF8091E3058F3F99F3C2
:1038800082E090E00E94CA018FEF8093E3050E94DE
:10389000750A8091E20587FF0E94C70A81E00E94B5
:1038A000351480E00E945B0FDECF803509F4CAC07A
:1038B0000CF036C0863409F063CF80910405833064
:1038C00009F05ECFE091F404F091F504808180531B
:1038D000823008F055CFE091F204F091F304E081DA
:1038E000E254E53108F04CCF0E2E000CFF0BE558EA
:1038F000F34E0C949135BA1CC01BCE1CE21CE61C86
:10390000F01CC01BC01BC01BC01BC01BC01BC01BAE
:10391000C01BC01BC01B041DC01B0E1DC01B181DDF
:10392000823509F4C2C0833509F02ACF0E945D18A0
:103930009ACF806492CF9091E305945081E09B30C0
:1039400008F080E00E94791881E00E9435148BCF46
:1039500080910405823009F013CF8091F204909198
:10396000F3040E947005862F0E9416087CCF0E94E7
:10397000C40279CF2091DF053091E00581110CC0A0
:1039800030683093E0052093DF058091DF0590914A
:10399000E0050E94B01A67CF3F77F3CF2091DF0593
:1039A0003091E005882361F02D7F3093E00520936E
:1039B000DF058091DF059091E0050E94B01A53CF9A
:1039C0002260F3CF81E0809305054DCF2091DF0584
:1039D0003091E005882311F03D7FE7CF3260E5CFDD
:1039E0002091DF053091E005882311F0277FDDCF9E
:1039F0001092D6051092D2051092D3051092D405DC
:103A00001092D5052860D1CF2091DF053091E005D7
:103A1000882311F02F7EC9CF2061C7CF2091DF0509
:103A20003091E005882311F03B7FBFCF3460BDCFDC
:103A30002091DF053091E005882311F02B7FB5CF71
:103A40002460B3CF8091040584300CF499CE80912A
:103A5000E10581FD95CE8091F2049091F3040E94DE
:103A600070054B018091F4049091F5040E9470055B
:103A7000A8EFB4E024E030E010E2A9012F5F3F4F4F
:103A8000E09104050E2E000CFF0B4E175F072CF47F
:103A9000ED91FD9131971083F0CF4091F604509154
:103AA000F704C4010E94EF0DDECE0E94C60CDBCEEF
:103AB0008181833409F438C10CF064C0853309F482
:103AC000E5C00CF03FC0803309F4BCC0813309F07D
:103AD00057CE80910405873009F052CE8091FC04C6
:103AE0009091FD040E947005162F8091FA04909128
:103AF000FB040E947005062F8091F8049091F90450
:103B00000E947005B62E8091F6049091F7040E94F1
:103B10007005A62E8091F4049091F5040E94700522
:103B2000962E8091F2049091F3040E9470056983AF
:103B30009A82AB82BC820D831E83CE0101960E94C5
:103B4000100991CE813409F4CDC0823409F018CE29
:103B50008091E30584506BE472E08B3058F08091E3
:103B6000E1059091E2059F7B9093E2058093E1054A
:103B700068EB72E08FEC94E00E94D83581E080938E
:103B8000EF0471CE843509F468C10CF58B3409F467
:103B900041C18C3409F0F4CD80910405823009F0E4
:103BA000EFCDE091F204F091F304808181330CF4C5
:103BB000E7CD83330CF443C1813409F0E1CD80912A
:103BC000DF059091E00594FD4ECE8F7D41C1863595
:103BD00009F490C1893509F0D3CD80910405813075
:103BE00009F09CC191E080E020912106223009F08B
:103BF00090E0092F182F0E942E04609322067093E4
:103C000023068093240690932506809121061F9217
:103C10008F93809120061F928F9380911F068F9320
:103C200080911E068F93DF92CF92FF92EF920E94B7
:103C3000DF3581E08093EF040FB6F894DEBF0FBE4E
:103C4000CDBFC1C080910405823009F099CDE091CB
:103C5000F204F091F304108180912B05103391F060
:103C60008E7F80932B0581E00E9435148091DF05C3
:103C70009091E005103341F491609093E0058093BA
:103C8000DF0597CE8160EDCF9E7FF7CF8091040551
:103C9000823009F075CDE091F204F091F304808157
:103CA000813399F02CF4803369F001E010E08BC08F
:103CB000813471F08D34C9F78091E1059091E2056E
:103CC00090680BC00E94C70ACECD0E94E40ACBCDFB
:103CD0008091E1059091E2059F779093E2058093B2
:103CE000E105C1CD80910405833009F049CD809173
:103CF000F2049091F3040E9470057093190660938A
:103D0000180689E090E00E942A358091F404909191
:103D1000F5040E94700570931706609316068BE0F9
:103D200090E00E942A359FCD009104058EEF800F10
:103D3000823008F025CD8091F2049091F3040E9426
:103D40007005162F40E0033009F051C0E091F404F3
:103D5000F091F504808141E08D3409F048C08AEF8C
:103D6000810F8B34C8F48FEF91E00E9400358150B1
:103D70008E3F90F0612F8FEF91E00E9414351093E9
:103D8000F0058091F105181728F441E061E0812FDA
:103D90000E94561900E001C001E010E08091F0059A
:103DA0001F928F9380E392E09F938F93FF92EF9205
:103DB0000E94DF350F900F900F900F900F900F9093
:103DC00081E08093EF048091EF048F3F31F081E038
:103DD000012B09F080E00E941E101092CF04109277
:103DE000EF0410924F0380E00E945B0F3ECC809165
:103DF000070580FF04C08091F105811740F061E064
:103E0000812F0E9456198C018091F105C9CF01E0E4
:103E100010E0FACF8091F2049091F3040E947005B3
:103E2000AB01BC0140932A0650932B0660932C06ED
:103E300070932D068DE090E00E94223514CD61E054
:103E400080530E94B51A8091DF059091E005806251
:103E50009093E0058093DF05B0CD80910405853017
:103E600009F08ECC8091F2049091F3040E947005C9
:103E7000062F8091F4049091F5040E947005A62EFF
:103E80008091F6049091F7040E947005162F80919E
:103E9000F8049091F9040E947005B62E011109C032
:103EA000A11007C0111105C0611103C00E94C31900
:103EB000DACC00931405A0921505602F85E090E000
:103EC0000E9414356091150586E090E00E9414353B
:103ED00010931605B0921705612F87E090E00E94BD
:103EE00014356091170588E090E00E9414350E9417
:103EF000AB19B9CC80910405823009F041CC809196
:103F0000F2049091F3040E94700560931A06709376
:103F10001B0680931C0690931D06A5CC833009F0E8
:103F20004BC08091F2049091F3040E9470054B0104
:103F30008091F4049091F5040E9470056B878114C0
:103F40009104B9F580912106882399F10E94BA263F
:103F50008C0190921F0680921E06BB85B0932006AE
:103F6000109221060E942E0460932206709323066D
:103F7000809324069093250682E290E00E940E35FD
:103F800060911E0670911F068617970721F082E246
:103F900090E00E942A3584E290E00E940035609112
:103FA0002006861709F431CE84E290E00E94143591
:103FB0002CCE10E000E0CDCF8230C9F48091F20425
:103FC0009091F3040E947005653A89F4809121066E
:103FD00010E000E0823009F018CE0E94BA268C0171
:103FE000892B09F012CE81E0809321060ECE01E0EC
:103FF00010E00BCEE181E053EA3208F0C1CB0E2E87
:10400000000CFF0BEA5FFF4D0C9491353020C01B74
:10401000C01BC01BC01B5220C01BC01BC01BC01B31
:10402000C01BC01BC01BC01BC01BC01BC01B7420FF
:10403000C01B8320A220C220D120E920C01B062162
:10404000C01BC01BC01BC01BC01BC01B4A21C01B08
:10405000C01B5F218E21B021CD21C01BC01BE021E0
:104060008091B0059091B1050297D1F00E94C601F0
:1040700091E0811101C090E01F929F9380E392E054
:104080009F938F93FF92EF920E94DF3581E08093A0
:10409000EF040F900F900F900F900F900F90E3CBC5
:1040A00092E0EACF8091E20587FF1CC08DE41F9269
:1040B0008F9380910606282F082E000C330B3F9318
:1040C0008F938AEB92E09F938F93FF92EF920E94DF
:1040D000DF3581E08093EF040FB6F894DEBF0FBEAA
:1040E000CDBFC1CB81E4E3CF809117068F93809140
:1040F00016068F93809119068F93809118068F93DF
:1041000080EF92E0E0CF8091DF050091F00510E0B4
:1041100080FD02C008E110E00E942D191F928F93CC
:104120008091F1051F928F931F930F931F9286E04A
:104130008F938AEE92E09F938F93FF92EF920E946B
:10414000DF35C7CF809113058823A1F04091140576
:104150008091150590E02091160530E060911705DB
:1041600070E07F936F933F932F939F938F931F9252
:104170004F93DFCF40E070E060E030E020E090E07F
:1041800080E0EFCF8091E0058F938091DF058F93E2
:104190008091F1051F928F93E2E4F2E0FF93EF9399
:1041A00094CF8091DC058F5F1F928F938091D7050C
:1041B0008F5F1F928F938091C0058F5F1F928F93A7
:1041C00080EC92E09F938F93FF92EF920E94DF35F5
:1041D00080CF80911D068F9380911C068F938091D4
:1041E0001B068F9380911A068F93809115068F93EB
:1041F000809114068F93809113068F9380911206FD
:104200008F9329EC32E03F932F9397CFDE011196E5
:10421000EEE0F0E091E29093570084918D93319617
:10422000E831F105C1F780E28093CF048981809362
:10423000D0048A818093D1048B818093D2048C81B5
:104240008093D3048D818093D4048E818093D50490
:104250005E0197E0A90EB11C10E000E0D5018D9140
:104260005D011F928F93E6E2F2E0FF93EF93C801A6
:104270008A529B4F9F938F930E94DF350E5F1F4F93
:104280000F900F900F900F900F900F900830110526
:1042900029F774CC809112058F93809111058F932B
:1042A00080910E058F9380910D058F93809110055D
:1042B0008F9380910F058F93DF92CF9285CF80915E
:1042C000E2058F938091E1058F938091E7051F921E
:1042D0008F938091FA059091FB05A091FC05B09118
:1042E000FD0540910206509103066091040670910D
:1042F0000506840F951FA61FB71FBF93AF939F930B
:104300008F938091E3051F928F9381ED92E09F93AD
:104310008F93FF92EF920E94DF35DBCE0E9422083E
:1043200029833A834B835C836D837E831F927F93C3
:104330008D811F928F938C811F928F938B811F92FF
:104340008F938A811F928F9389811F928F9324EE7E
:1043500032E03F932F93FF92EF920E94DF35B9CE68
:1043600080912D068F9380912C068F9380912B0640
:104370008F9380912A068F93809131068F9380913D
:1043800030068F9380912F068F9380912E068F9306
:10439000A6EFB2E0BF93AF93D0CE66EC71E08FECA6
:1043A00094E00E94EA346FE273E08FEC94E00E94A4
:1043B000CD356CEC70E08FEC94E00E94DF34DECB06
:1043C000809121061F928F93809120061F928F93D8
:1043D00080911F068F9380911E066DCF028345C981
:1043E0001092CF041092EF0440C9A895809128053F
:1043F0008823C1F08091260580620E94380282E104
:104400000E94AE070E94DF0180912605806261E074
:1044100070E090E00E949E0284EA95E00E943807D6
:1044200080958F71982F917080FD12C08091440506
:10443000823071F4409145055091460560914705E1
:1044400070914805452B462B472B11F410924405DB
:1044500010914405112309F45BC0113069F44091B7
:104460004505509146056091470570914805452BDB
:10447000462B472B09F039C2992309F47DC080915E
:10448000490590914A05A0914B05B0914C05892BA7
:104490008A2B8B2B09F470C0123009F06DC00E947A
:1044A0002E04C0904905D0904A05E0904B05F0904D
:1044B0004C056C197D098E099F0960317742810591
:1044C000910508F459C01092490510924A051092BE
:1044D0004B0510924C051F921F931F9284E28F93FD
:1044E00088E093E09F938F9381EA93E09F938F936B
:1044F0000E94DF350E941B0F61EA73E08DEC94E0AF
:104500000E94110F0FB6F894DEBF0FBECDBF34C0AE
:10451000992309F4ECC18091450590914605A0913D
:104520004705B0914805892B8A2B8B2B51F40E94AB
:104530002E0460934505709346058093470590933C
:1045400048050E942E0400914505109146052091D2
:10455000470530914805DC01CB01801B910BA20B74
:10456000B30B2091440521116FC0C297A105B1057D
:1045700018F081E080934405809144052091DF0587
:104580003091E00537FD6BC01091E3051450813088
:1045900009F030C18091450590914605A0914705ED
:1045A000B0914805892B8A2B8B2B09F06CC0109297
:1045B000440581E01B3008F080E00E9479188823D0
:1045C00009F461C080914D0590914E05009709F462
:1045D00058C1DC01ED91FC910480F581E02D099535
:1045E00090934E0580934D05009709F429C1B5E0DD
:1045F0008E399B0729F010E0E5E088399E0719F411
:10460000DC0114961C91DC01ED91FC910190F0818C
:10461000E02D099580914D0590914E05B5E08E39BC
:104620009B0721F0E5E088399E0769F5112359F1D0
:104630001150DC0114961C931497ED91FC910280AB
:10464000F381E02D09951FC0213009F095CF843FFB
:104650009140A105B10508F48FCF82E08BCF813066
:1046600009F0A6C08091450590914605A0914705A7
:10467000B0914805892B8A2B8B2B29F41092440585
:1046800080E00E943C0F0E942E046B017C0180910F
:10469000080590910905A0910A05B0910B05A701A5
:1046A0009601281B390B4A0B5B0BDA01C901883EC6
:1046B0009340A105B10508F462C080910C058823E0
:1046C00009F40DC185E00E94B3079C013F7194FD80
:1046D000306F4AE0429FC001439F900D112497FD27
:1046E0000F9654E0959587955A95E1F790930E05AE
:1046F00080930D0588E60E9438028EE00E94AE0786
:1047000080E20E94AE070E94DF0188E60E94380224
:1047100081E10E94AE070E94DF0162E070E088E65E
:1047200090E00E949E02882309F4DCC084EA95E0B0
:104730000E943807182F84EA95E00E94380720E08D
:10474000312F282B46E0359527954A95E1F74AE029
:10475000429FC001439F900D112497FD03969595AC
:104760008795959587959093100580930F05C09236
:104770000805D0920905E0920A05F0920B052B96E8
:104780000FB6F894DEBF0FBECDBFDF91CF911F9162
:104790000F91FF90EF90DF90CF90BF90AF909F90E0
:1047A0008F907F906F905F904F903F902F900895E3
:1047B000823009F068CF8091450590914605A0911F
:1047C0004705B09148050097A105B10509F45BCFF5
:1047D0008093490590934A05A0934B05B0934C05EF
:1047E0001092450510924605109247051092480513
:1047F00081E047CF823009F046CF80914505909106
:104800004605A0914705B09148050097A105B1055F
:1048100009F439CF8093490590934A05A0934B053D
:10482000B0934C051092450510924605109247052D
:104830001092480580910705877F80930705C2CEB7
:104840000E94C40280912B05982F9F7B20914F05D9
:10485000213099F48E7B80932B0581E00E943514E2
:1048600081E00E9435148091E1059091E205977FE7
:104870009093E2058093E10506CF916090932B051C
:10488000ECCF8091E1059091E20598609093E2056C
:104890008093E10580912B058095817080934F0571
:1048A00087E00E94160880912B05806480932B0579
:1048B00088E995E01B3020F00E945D188EE995E0B4
:1048C00090934E0580934D0580914D0590914E0536
:1048D000DC01ED91FC910190F081E02DB3CE80E000
:1048E00096EF04CF80E096EF3ECF91112ACE109242
:1048F00045051092460510924705109248053CCE9A
:10490000CF93C82F8091E1059091E205826090934A
:10491000E2058093E10582E00E94351480E00E9468
:104920005B0F0E94EC1A8091B0059091B10502973F
:10493000C1F370E060E090E080E00E94020B0E9412
:10494000C6018111EECFCC2361F31092E305809173
:10495000E1059091E2058D7F9093E2058093E1055A
:10496000CF9108951F920F920FB60F9211242F939B
:104970003F938F939F93AF93BF93809199039091AF
:104980009A03A0919B03B0919C033091980323E07C
:10499000230F2D3758F50196A11DB11D20939803C3
:1049A0008093990390939A03A0939B03B0939C03E5
:1049B00080919D0390919E03A0919F03B091A003CD
:1049C0000196A11DB11D80939D0390939E03A0931A
:1049D0009F03B093A003BF91AF919F918F913F919F
:1049E0002F910F900FBE0F901F90189526E8230F60
:1049F0000296A11DB11DD2CF1F920F920FB60F923A
:104A000011242F933F934F935F936F937F938F93D3
:104A10009F93AF93BF93EF93FF93E0910201F091C7
:104A200003010995FF91EF91BF91AF919F918F91F4
:104A30007F916F915F914F913F912F910F900FBE9A
:104A40000F901F9018951F920F920FB60F9211247E
:104A50002F933F934F935F936F937F938F939F9386
:104A6000AF93BF93EF93FF93E0910001F0910101A9
:104A70000995FF91EF91BF91AF919F918F917F9198
:104A80006F915F914F913F912F910F900FBE0F90BB
:104A90001F9018951F920F920FB60F9211242F930B
:104AA0003F934F935F936F937F938F939F93AF93B6
:104AB000BF93EF93FF9380E394E00E94B904FF91CA
:104AC000EF91BF91AF919F918F917F916F915F9186
:104AD0004F913F912F910F900FBE0F901F901895FF
:104AE0001F920F920FB60F9211242F938F939F93C3
:104AF000EF93FF93E0914004F09141048081E091B5
:104B00004604F091470482FD1BC0908180914904C6
:104B10008F5F8F7320914A04821741F0E09149041E
:104B2000F0E0E05DFB4F958F80934904FF91EF919A
:104B30009F918F912F910F900FBE0F901F901895FE
:104B40008081F4CF1F920F920FB60F9211242F93F2
:104B50003F934F935F936F937F938F939F93AF9305
:104B6000BF93EF93FF938091B900887F803609F45B
:104B70004AC0F0F5883209F4A5C018F5803109F46F
:104B800099C0B8F4882309F4F2C0883009F492C0BF
:104B9000FF91EF91BF91AF919F918F917F916F9115
:104BA0005F914F913F912F910F900FBE0F901F90EB
:104BB0001895883109F486C0803251F78093090432
:104BC00014C0803409F49BC040F48033B9F38833B7
:104BD000F9F68093090485ECAEC0803509F483C0F2
:104BE000883509F494C0883499F60E944805D0CFDE
:104BF000883909F48AC038F5883729F050F48836A6
:104C000011F0803729F683E080930B041092920311
:104C100055C0883809F479C0803919F0803809F016
:104C2000B7CF80919203803208F06FC0E091920379
:104C300081E08E0F809392038091BB00F0E0EE58EC
:104C4000FC4F80833BC0803B39F0D0F4803A09F4BC
:104C500077C0883A09F09CCF84E080930B041092CF
:104C6000710310927003F0E0E0E009958091700309
:104C700081110FC081E0809370031092500309C02E
:104C8000803C09F4A8CF883C09F4A5CF883B09F003
:104C90007FCFE091710381E08E0F80937103F0E08C
:104CA000E05BFC4F80818093BB0090917103809109
:104CB000700329C08091E6038093BB0085EC80934C
:104CC000BC0066CF9091080480910704981758F5AE
:104CD000E091080481E08E0F80930804F0E0E95130
:104CE000FC4F8081E9CFE091080481E08E0F809332
:104CF00008048091BB00F0E0E951FC4F8083909163
:104D00000804809107049817C8F285E8D8CFE0918D
:104D1000080481E08E0F809308048091BB00F0E0CE
:104D2000E951FC4F808380910A0481115ECF81E0BC
:104D30008093E50384EA8093BC0010920B0428CF93
:104D400080919203803230F4E0919203F0E0EE58CB
:104D5000FC4F10820E9448056091920370E082E748
:104D600093E0F0E0E0E009951092920334CF1092C6
:104D700009043BCF0E942D199091070590FD04C0B6
:104D800041E061E00C94561981E090E008951092A2
:104D900033041092320488EE93E0A0E0B0E08093F8
:104DA000340490933504A0933604B09337048CE216
:104DB00091E0909331048093300485EC90E09093DF
:104DC0003D0480933C0484EC90E090933F048093F6
:104DD0003E0480EC90E0909341048093400481EC89
:104DE00090E0909343048093420482EC90E090938F
:104DF00045048093440486EC90E0909347048093AC
:104E000046041092490410924A0410924B041092E6
:104E10004C04109206058EE391E09093CE048093AB
:104E2000CD0484E791E090939F0580939E058AEEE0
:104E300092E09093A1058093A00580E091E0980F07
:104E4000E82FF0E0EE0FFF1FE859FE4F208131817F
:104E5000232B09F00CC18093A30582E691E0909387
:104E600099058093980584EE92E090939B0580933A
:104E70009A0580E091E0980FE82FF0E0EE0FFF1F19
:104E8000E85AFE4F20813181232B09F0F2C0809334
:104E90009D0580E092E0909392058093910581E1D9
:104EA00093E0909394058093930586EF91E090931F
:104EB0008D0580938C0589E093E090938F05809316
:104EC0008E058CEE91E090938805809387058FEF97
:104ED00092E090938A058093890522EE31E0309329
:104EE00083052093820528ED31E030937E052093E1
:104EF0007D059093800580937F058EEC91E09093E3
:104F000079058093780584EC91E090937405809303
:104F100073058AEB91E090936F0580936E0580EBAB
:104F200091E090936A058093690583EF92E09093F6
:104F30006C0580936B0526EA31E03093650520937C
:104F4000640590936705809366058CE991E09093E2
:104F5000600580935F0582E991E090935B05809303
:104F60005A0588E891E090935605809355058EE7A1
:104F700091E0909351058093500510924405109252
:104F8000450510924605109247051092480510926B
:104F9000490510924A0510924B0510924C0510924B
:104FA0004E0510924D051092200510921F0580E5C8
:104FB00091E090931E0580931D0582E08093280563
:104FC0001092270580E2809326051092210580EA41
:104FD00095E1AFEFBFEF8093190590931A05A09369
:104FE0001B05B0931C0510920C051092A70510929A
:104FF000A60588EE93E0A0E0B0E08093A80590932A
:10500000A905A093AA05B093AB058AE092E090931E
:10501000A5058093A40581E08093C1051092C20587
:105020001092320610922E0610922F061092300621
:10503000109231068DE090E00E9408356F3F7F4F5F
:105040008F4F9F4F39F440E050E0BA018DE090E07F
:105050000E9422358DE090E00E94083560932A0678
:1050600070932B0680932C0690932D060895892F1C
:10507000E5CE892FFFCECF93DF93CDB7DEB729974B
:105080000FB6F894DEBF0FBECDBF789484B58260B2
:1050900084BD84B5816084BD85B5826085BD85B5DC
:1050A000816085BD80916E00816080936E0010925A
:1050B00081008091810082608093810080918100D5
:1050C0008160809381008091800081608093800066
:1050D0008091B10084608093B1008091B0008160C4
:1050E0008093B00080917A00846080937A008091F0
:1050F0007A00826080937A0080917A008160809348
:105100007A0080917A00806880937A001092C100C2
:105110000FB6F894A8958091600088618093600034
:10512000109260000FBE60E971E080E090E00E94A4
:10513000FB03E0914004F091410482E08083E09120
:105140003C04F0913D041082E0913E04F0913F0454
:1051500080E1808310924804E0914404F09145047A
:1051600086E08083E0914204F09143048081806175
:105170008083E0914204F0914304808188608083C1
:10518000E0914204F0914304808180688083E09143
:105190004204F091430480818F7D808386E290E019
:1051A000909342058093410588E08093430561E038
:1051B00070E081E495E00E9410061092C403109202
:1051C000C30310920D0410922F0410920B0481E07F
:1051D00080930A041092E50388B1806388B98091B6
:1051E000B9008E7F8093B9008091B9008D7F809344
:1051F000B9008CE08093B80085E48093BC00A8954A
:1052000010922B058091260580620E94380280E072
:105210000E94AE078FE10E94AE070E94DF01882343
:1052200009F444C180912805823009F03FC11092F1
:10523000280580912805882319F087E00E94D5076A
:1052400087E00E9416086AEF70E080E00E948B1AE7
:1052500062EF70E081E00E948B1A6AEE70E082E0FB
:105260000E948B1A62EE70E083E00E948B1A8DE13F
:1052700095E00E94400A68ED70E090E080E00E94B6
:105280009A0C40E150E062ED70E08CE295E00E9403
:10529000F13410923C0541E060E08DE195E00E9420
:1052A000EC096CE275E08DE195E00E94E70D86EC7B
:1052B00091E00E94530E6CED75E080E090E00E945A
:1052C000E505A895109205051092CF041092EF0401
:1052D00057984F9B7AC181E080930D0603E210E05E
:1052E000109308060093070688E08093090687E07C
:1052F00096E00E94060610930B0600930A0680E1D2
:1053000080930C068AE096E00E9406060E94C70A77
:105310001092E3051092E40582E090E00E940E35C1
:105320008C018F3F980751F090FF08C080912B05AA
:10533000816080932B0581E00E94351485E290E026
:105340000E940035F82E8093DD0586E290E00E94F1
:1053500000358093DE058FEF8F0D8E3F30F084E6B1
:105360008093DD058FEF8093DE0562E173E080E3DB
:1053700094E00E94E70D8091DD050E94E31862E24F
:1053800073E080E394E00E94E70D8091DE050E94C7
:10539000E31880910D06882309F41AC185E00E9464
:1053A000A50286E00E94A50283E290E09093CA05E0
:1053B0008093C90582E08093CB0589EC95E00E943B
:1053C000060689E2E82EF12CF092CD05E092CC059C
:1053D00088E08093CE0561E070E08CEC95E00E945F
:1053E0001006F092D005E092CF0580E18093D105C0
:1053F00061E070E08FEC95E00E941006D0900D0601
:10540000F092B305E092B20584E08093B40570E0B9
:1054100060E082EB95E00E9410068CEA9AE090939F
:10542000010180930001809169008360809369008D
:10543000E89A86E08D8389E290E0DD2019F01D82F4
:1054400083E290E02D819093B9058093B80581E0C7
:1054500001C0880F2A95EAF78093BA0588EB95E09A
:105460000E9406060E947D0B0E94750A1092800021
:1054700080E49FE1909387008093860081E1809390
:105480008100229A8091800080628093800090E069
:1054900080E00E94CA010F3F100709F0B4C01092CB
:1054A000E0051092DF0502E0F02EB5C080912605E0
:1054B00080620E9438028CE00E94AE078FE10E9459
:1054C000AE070E94DF01882329F0809128058230F1
:1054D00009F4ADCE8091260580620E94380281E0F9
:1054E0000E94AE0780E00E94AE070E94DF0190910B
:1054F0002805882319F0923009F499CE923019F4D6
:1055000081E08093280580912105886080932105A2
:1055100082E0809324051092250510922A051092AE
:10552000290513E068E38DE195E00E94800968E1B8
:105530008DE195E00E9480091150A1F768E28DE1AC
:1055400095E00E94800968E08DE195E00E94800965
:1055500065E070E080E090E00E94FB03609121052F
:10556000606240E08DE195E00E94930965E070E0A3
:1055700080E090E00E94FB0360912105606240E0C2
:105580008DE195E00E94930965E070E080E090E095
:105590000E94FB038CE080932205809128058823DC
:1055A00031F040E06CE08DE195E00E9493098DE1DF
:1055B00095E00E94400A82E08093230540E066E087
:1055C0008DE195E00E94930934CE10920D0686CEAF
:1055D00083E290E09093C4058093C30581E08093BB
:1055E000C50583EC95E00E94060689E290E0909361
:1055F000C7058093C60580E88093C80586EC95E0D2
:105600000E940606D1CE1093E0050093DF05FF242B
:10561000F39400FD48CF8091DF059091E00594FF61
:1056200009C085FD07C080629093E0058093DF0587
:1056300012E0F12E8BE090E00E940E358C019093E9
:1056400017068093160689E090E00E940E3590932D
:105650001906809318060F3F1F4F21F4109217066A
:1056600010921606019631F48CED90E09093190695
:105670008093180610920E0610920F0610921006D4
:105680001092110610921206109213061092140630
:105690001092150680E092E49093E2058093E10574
:1056A0008FEF91E00E9400358093F00581508E3F8E
:1056B00018F080E58093F0051092BF0581E190E03D
:1056C0000E9400358093C0051092D60582E190E0DB
:1056D0000E9400358093D7051092D8051092D90505
:1056E0001092DA051092DB0583E190E00E9400350C
:1056F0008093DC051092D2051092D3051092D40548
:105700001092D50581E00E945B0F8091DF0590919A
:10571000E0058E719670892BD1F183E00E94160806
:105720008091DF0581FF04C089E891E00E94BB0CF5
:105730008091DF0582FF04C088E791E00E94BB0CE6
:105740008091DF0583FF04C08BE691E00E94BB0CD3
:105750008091DF0584FF04C08BE591E00E94BB0CC3
:105760008091DF059091E00591FF04C08DE491E008
:105770000E94BB0C8091DF059091E00592FF04C070
:105780008DE391E00E94BB0C87E00E941608A8956B
:1057900090E080E00E94CA016AE271E084E391E057
:1057A0000E94AC0C8091DF0510E085FD1CC166E90C
:1057B00070E080E090E00E94FB0381EC95E00E94A5
:1057C0002C068C0182E090E00E94CA010B36134047
:1057D00008F4FFC00E94F60B182F80910D0661E0BF
:1057E000882309F465C085E00E942E0361E089ECFE
:1057F00095E00E94670A6AEF70E080E090E00E9406
:10580000FB030E94F60BE82E80910D0660E08823D2
:1058100009F453C085E00E942E0360E089EC95E016
:105820000E94670A6AEF70E080E090E00E94FB034C
:1058300080910D0661E0882309F444C086E00E944F
:105840002E036AEF70E080E090E00E94FB030E946C
:10585000F60B082F80910D0660E08823C1F186E0E9
:105860000E942E036AEF70E080E090E00E94FB034C
:10587000133009F0A8C092E09E1570F18091DF0509
:10588000E1E0EE1670F184FD98C014E0033009F4F5
:1058900044C088248394E8100C94C934023051F534
:1058A00062E071E08EE191E00E94AC0C12E03CC03D
:1058B00083EC95E00E94670A99CF83EC95E00E9403
:1058C000670AABCF86EC95E00E94670ABACF86ECF8
:1058D00095E00E94670AC6CFF3E0EF1681F010E072
:1058E00023C01E2D033009F412E084FD03C00330F1
:1058F00009F06DC0113089F01230B1F4D1CF809130
:10590000DF0583FD03C013E0033021F010E0011137
:1059100001C012E00150023068F760E171E08EE1F1
:1059200091E00E94AC0C11E08DEF810F823008F005
:1059300072C081E00E941608133009F062C06FE661
:1059400072E083E492E00E94AC0C8DEF810F833013
:1059500018F481E00E94160890E080E00E94CA01DD
:10596000A8952091DF053091E00525FD05C08FEF5A
:10597000810F823008F4F12E23FD60C0133009F04E
:105980005DC087E08093E30581E024FD06C014300C
:1059900021F488E08093E30581E031FD51C01530AA
:1059A00009F04EC089E08093E3050E94B51881E0BC
:1059B0000E945B0F0E94EC1AFDCF11E0033009F446
:1059C00068CF10E066CF8091DF0584FD88CF14E0BA
:1059D000ABCF8091E1059091E20581609093E20563
:1059E0008093E10511E08091DF0584FD14C00E94E1
:1059F000F60B2091DF053091E00534FF0AC081FDF0
:105A00000AC063E672E083E492E00E94AC0C14E00A
:105A10009CCF8330B1F78091DF059091E00591FD37
:105A200094CF0E948F0B882309F48FCF6EE372E02E
:105A300083E492E00E94AC0C15E087CF80E0A5CF14
:105A40008111B3CF60E08F2D0E94B51A80911305AC
:105A500081110E945D180E94B51882E290E00E94B8
:105A60000E358C0190931F0680931E0684E290E011
:105A70000E940035809320060F3F1F4F31F4109293
:105A80001F0610921E06109220060E942E0460939C
:105A9000220670932306809324069093250684E0C3
:105AA00090E00E9400358F3F09F02FC1109213053E
:105AB00060E084E090E00E9414358091E1059091CF
:105AC000E20520911305222309F422C190619093ED
:105AD000E2058093E10585E090E00E9400358F3F6C
