:100000000C9483010C9404250C94DD240C94B7010A
:100010000C94B7010C94B7010C94B7010C94B70180
:100020000C94B7010C94B7010C94B7010C94B70170
:100030000C94B7010C94B7010C94B7010C94B70160
:100040000C9493240C94B7010C9451250C942B25FB
:100050000C94B7010C94B7010C94B7010C94B70140
:100060000C9483250C94B70145786974005265732C
:1000700074617274204E6F773F0053657420446141
:1000800074652F54696D653F004D6F6E7468004450
:100090006179005965617200486F7572004D696E33
:1000A00075746500537461727420486F75720053E3
:1000B000746F7020486F7572005374617274204DB4
:1000C000696E0053746F70204D696E00352E322EAC
:1000D00031005665722E20004F70656E20455653D4
:1000E0004500000E0C1F03060C0800080C0E0C083F
:1000F000000000000E0E0E000000000E1517110E7D
:10010000000053656C66205465737400506F77650A
:1001100072204F6E0054656D706572617475726502
:100120002043686B004746492053656C6620546540
:10013000737400537475636B2052656C617920434E
:10014000686B0047726F756E6420436865636B006F
:1001500056656E7420526571276420436865636B31
:100160000044696F646520436865636B00496E698C
:100170007469616C697A6174696F6E2E2E005761C3
:100180006974696E6720666F7200000000080002E3
:100190000100000304070000000000000000382EEA
:1001A000322E332E45550000000000250028002B7C
:1001B0000000000000240027002A000404040404B6
:1001C0000404040202020202020303030303030104
:1001D00002040810204080010204081020010204DB
:1001E000081020544553542044495341424C45443F
:1001F0000052657374617274696E672E2E2E002032
:10020000202020304100484947482054454D5000A7
:10021000536C656570696E670047464349005445F5
:100220005354204641494C45440044697361626C13
:100230006564004F50454E2052454C41590053547F
:1002400055434B2052454C4159004E4F2047524F89
:10025000554E44004F56455243555252454E540058
:100260004F5645522054454D5045524154555245E4
:100270000047464349204641554C54005345525689
:100280004943452052455155495245440044494F40
:10029000444520434845434B0056454E5420524563
:1002A0005155495245440045565345204552524FF9
:1002B00052004368617267696E6700436F6E6E65D6
:1002C0006374656400526561647900536574757088
:1002D0000053657474696E67730044656C617920BE
:1002E00054696D657200446174652F54696D6500D1
:1002F00052657374617274004D6178204375727237
:10030000656E7400E42611241FBECFEFD8E0DEBF77
:10031000CDBF14BE0FB6F894A89580916000886197
:1003200080936000109260000FBE13E0A0E0B1E087
:10033000E6EAF0E702C005900D92AA34B107D9F7BA
:1003400026E0AAE4B3E001C01D92A134B207E1F7B0
:1003500011E0C3E8D1E004C02197FE010E942435DA
:10036000C238D107C9F70E9458280C9451380C9410
:1003700000008091EC05817008952FB7F8940097E4
:1003800061F440E45FE150938B0040938A009093C6
:10039000BB058093BA052FBF089510928B00109271
:1003A0008A00F5CF2091390481E0213208F040C065
:1003B000809115048111FCCF8091380492E09093D4
:1003C000150491E0909314049FEF909313041092FE
:1003D000120420931104A8E1B4E0E1EFF3E090E00F
:1003E00029132DC01092F0039091F003880F892BF0
:1003F0008093F0038091EF03813029F51092EF0391
:100400008091F0038093BB0085EC8093BC008091C9
:1004100015048230E1F3809113048F3FB1F0809195
:1004200013048032A1F080911304803391F084E0B2
:1004300010921704109239041092160408953D91F9
:1004400031939F5FCDCF85EEE0CF80E0F1CF82E0AA
:10045000EFCF83E0EDCF91E09093160480933804C2
:100460001092170410923904089590911E058091FE
:10047000200591110BC020911F05211107C081118A
:1004800010C080912105811103C00895981309C0FF
:1004900081E020911F0590912105291303C080E080
:1004A000089581E00895909115049111FCCF91E099
:1004B00090931504909314042FEF2093130410923B
:1004C0001204260F209311049093F0039091F003EF
:1004D000880F892B8093F0038091EF038130D9F44A
:1004E0001092EF038091F0038093BB0085EC809322
:1004F000BC00809115048130E1F3809112048617CD
:1005000010F460911204A1EFB3E0EFECF3E080E0AF
:10051000861303C0089585EEEACF9D9191938F5F76
:10052000F7CF0E9453021092CE038093CD0308951B
:1005300090E0FC01E153FE4F249185549E4FFC0155
:100540008491882399F090E0880F991FFC01EF5463
:10055000FE4FA591B491FC01E955FE4F8591949110
:100560008FB7F894EC91E22BEC938FBF08958091B4
:10057000ED058E3F48F08FEF8093EE051092ED056C
:1005800090E080E00C94BD01089508959C012650F0
:1005900031092E32310598F445E8489F9001499F72
:1005A000300D112430938B0020938A0081E090E07D
:1005B0009093BB058093BA0590E080E008959C017C
:1005C000245331092D31310578F4092E000CAA0B82
:1005D000BB0B80569F4FAF4FBF4F9C0185E0220F52
:1005E000331F8A95E1F7DECF81E090E00895CF9246
:1005F000DF92EF92FF921F93CF93DF931092CC0381
:10060000CCECD3E012E02AE0C22ED12CE12CF12C6C
:10061000A70196010E94E334605D6A93B901CA01A3
:100620001150611571058105910591F7111684F33B
:10063000CE01DF91CF911F91FF90EF90DF90CF908F
:10064000089590E0FC01E657FE4F2491FC01E15330
:10065000FE4F3491FC01E554FE4FE491EE23C9F0C6
:10066000222339F0233001F1A8F4213019F122308E
:1006700029F1F0E0EE0FFF1FE955FE4FA591B4916F
:100680008FB7F894EC91611126C030953E233C93CE
:100690008FBF08952730A9F02830C9F0243049F7DA
:1006A000809180008F7D03C0809180008F77809340
:1006B0008000DFCF84B58F7784BDDBCF84B58F7D9D
:1006C000FBCF8091B0008F778093B000D2CF809124
:1006D000B0008F7DF9CF3E2BDACF1F93CF93DF93FE
:1006E000182FEB010E949802209739F460E0812FC7
:1006F000DF91CF911F910C942103CF3FD10511F4CD
:1007000061E0F5CFE12FF0E0E657FE4FE491E330F2
:1007100031F140F4E130B1F0E230E1F0C038D10520
:100720007CF7E4CFE73029F1E83059F1E430B1F754
:1007300080918000806280938000D0938B00C09372
:100740008A0004C084B5806884BDC7BDDF91CF91A5
:100750001F91089584B5806284BDC8BDF7CF809194
:100760008000806880938000D0938900C0938800C7
:10077000EDCF8091B00080688093B000C093B3004B
:10078000E5CF8091B00080628093B000C093B40048
:10079000DDCF3FB7F8948091A7039091A803A09173
:1007A000A903B091AA0326B5A89B05C02F3F19F055
:1007B0000196A11DB11D3FBFBA2FA92F982F8827E1
:1007C000BC01CD01620F711D811D911D42E0660FBC
:1007D000771F881F991F4A95D1F708958F929F928E
:1007E000AF92BF92CF92DF92EF92FF926B017C01AA
:1007F0000E94C9034B015C01C114D104E104F1045E
:10080000B9F00E94C903681979098A099B09683EF1
:1008100073408105910580F321E0C21AD108E108F7
:10082000F10888EE880E83E0981EA11CB11CE4CF6D
:10083000FF90EF90DF90CF90BF90AF909F908F9000
:1008400008952FB7F8946091A3037091A403809149
:10085000A5039091A6032FBF08950895AF92BF926C
:10086000CF92DF92EF92FF920F931F93CF93DF937C
:100870006C017B018B01040F151FEB015E01AE18AB
:10088000BF08C017D10759F06991D601ED91FC91CD
:100890000190F081E02DC6010995892B79F7C501FA
:1008A000DF91CF911F910F91FF90EF90DF90CF904C
:1008B000BF90AF900895FC01538D448D252F30E0FB
:1008C000842F90E0821B930B541710F0CF9608955D
:1008D00001970895FC01918D828D981761F0A28D8A
:1008E000AE0FBF2FB11D5D968C91928D9F5F9F7350
:1008F000928F90E008958FEF9FEF0895FC01918D06
:10090000828D981731F0828DE80FF11D858D90E072
:1009100008958FEF9FEF0895FC01918D228D892F0F
:1009200090E0805C9F4F821B91098F7399270895F7
:100930008AE394E00E948C0421E0892B09F420E0F2
:10094000822F089580E090E0892B29F00E9498047E
:1009500081110C9400000895FC01A48DA80FB92FFB
:10096000B11DA35ABF4F2C91848D90E001968F73D7
:100970009927848FA689B7892C93A089B1898C91F6
:10098000837080648C93938D848D981306C0028845
:10099000F389E02D80818F7D80830895EF92FF920F
:1009A0000F931F93CF93DF93EC0181E0888F9B8D92
:1009B0008C8D98131AC0E889F989808185FF15C04C
:1009C0009FB7F894EE89FF896083E889F98980816F
:1009D0008370806480839FBF81E090E0DF91CF913E
:1009E0001F910F91FF90EF900895F62E0B8D10E060
:1009F0000F5F1F4F0F731127E02E8C8D8E110CC0CF
:100A00000FB607FCFACFE889F989808185FFF5CF19
:100A1000CE010E94AC04F1CFEB8DEC0FFD2FF11D48
:100A2000E35AFF4FF0829FB7F8940B8FEA89FB8956
:100A300080818062CFCFCF93DF93EC01888D8823B4
:100A4000B9F0AA89BB89E889F9898C9185FD03C031
:100A5000808186FD0DC00FB607FCF7CF8C9185FF16
:100A6000F2CF808185FFEDCFCE010E94AC04E9CFAB
:100A7000DF91CF91089585ED8093BC008091BC00FB
:100A800084FDFCCF109215040895613298F42091F2
:100A90001504243089F460937603282FA6E5B3E08B
:100AA000FC018E2F821B861710F080E00895819143
:100AB0008D93F7CF81E0089582E00895FC0110AE98
:100AC000128212A20895CF93DF93EC0120E030E070
:100AD000A901E991EE2391F0AAE0B0E00E9431353E
:100AE0002E2FEE0F330B20533109032E000C440B35
:100AF000550B260F371F481F591FEBCFCA01B901ED
:100B0000DF91CF910895FC0190819923D9F080ED78
:100B1000890F8A3050F08FEB890F863088F08FE98B
:100B2000890F8630F0F489EA890F91819923D1F0F9
:100B30008295807F20ED290F2A3030F4820F0895AE
:100B400089ECF2CF80E0F1CF2FEB290F263018F49B
:100B50009753890F08952FE9290F263010F49755E0
:100B6000F8CF80E008958AE394E00C94CE048AE301
:100B700094E00C946A048AE394E00C948C04CF9380
:100B8000DF93EC0164EF71E080E090E00E94EE03FF
:100B90008C81882339F0813041F084E695E0DF9143
:100BA000CF9108958EE695E0FACF89E695E0F7CFEC
:100BB000CF92DF92EF92FF926B017C01A89584E0C7
:100BC000C816D104E104F10460F063E070E080E055
:100BD00090E00E94EE0383E0C81AD108E108F10812
:100BE000EDCFC701B601FF90EF90DF90CF900C944E
:100BF000EE03DC01ED91FC911197918112968C919D
:100C0000892B818308956115710561F0613071054B
:100C1000A1F4DC01ED91FC911197228112963C9197
:100C2000232B2283DC01ED91FC91119721811296F7
:100C30008C9180958223818308950C94F905FC01A1
:100C400080818770806480937C0080917A008064CA
:100C500080937A0080917A0086FDFCCF80917800A5
:100C60009091790008952F923F924F925F926F92E8
:100C70007F928F929F92AF92BF92CF92DF92EF922C
:100C8000FF920F931F93CF93DF9300D000D000D03B
:100C9000CDB7DEB7A8950E94210469837A838B8340
:100CA0009C831E821D8201E0412C512C320110E0F8
:100CB000C12CD12C76010E9421044B015C01DC0186
:100CC000CB0129813A814B815C81821B930BA40B60
:100CD000B50B8397A105B10508F0A3C08CEC95E096
:100CE0000E941F06FC0101111CC091E031E0231697
:100CF00032E0330608F490E081E0E13042E0F407AE
:100D000008F480E0981769F0D501C40184199509A9
:100D1000A609B7090697A105B10518F01F5F2401C0
:100D20003501113020F0133028F01330B9F000E015
:100D30001F01C1CFBF0190E080E07250810991098D
:100D40009B01AC010E94B334C60ED71EE81EF91EEB
:100D50008D819E8101969E838D83E9CF8D819E81B9
:100D60009C0150E040E0C701B6010E94E334490114
:100D70005A0180E090E0A0E0B0E4281739074A0764
:100D80005B0740F462E0B695A795979587956A95BD
:100D9000D1F7F3CF40E050E0BA010097A105B105CB
:100DA000F9F06C017D01C40ED51EE61EF71E769586
:100DB0006795579547958C149D04AE04BF0440F089
:100DC0008C189D08AE08BF08480F591F6A1F7B1F6B
:100DD00022E0B695A795979587952A95D1F7DDCF0F
:100DE00040931C0650931D0660931E0670931F06C9
:100DF00026960FB6F894DEBF0FBECDBFDF91CF9120
:100E00001F910F91FF90EF90DF90CF90BF90AF9028
:100E10009F908F907F906F905F904F903F902F901A
:100E2000089510921C0610921D0610921E06109234
:100E30001F06A895DDCF0895E091CE038091CD03E4
:100E4000E81730F4F0E0E153FC4F808190E0089522
:100E50008FEF9FEF08959091CE038091CD032FEFF8
:100E60003FEF981748F4E92FF0E0E153FC4F208161
:100E700030E09F5F9093CE03C90108958091CD0328
:100E80009091CE03891B990B0895CF92DF92EF9238
:100E9000FF920F931F93CF93DF937C01CB018A01C5
:100EA00020911604222389F0EB016B01C40ED51E9C
:100EB000CC15DD0569F06991D701ED91FC910190A8
:100EC000F081E02DC7010995F3CF642F0E944505FD
:100ED000C801DF91CF911F910F91FF90EF90DF90AC
:100EE000CF900895CF93DF931F92CDB7DEB769837C
:100EF000209116042223F9F020913904203258F071
:100F000021E030E0FC013383228390E080E00F9009
:100F1000DF91CF91089580911704E82FF0E0E85E0B
:100F2000FB4F998190838F5F8093170480933904DE
:100F300081E090E0ECCF61E0CE0101960E94450592
:100F4000F7CF682F8EEA95E00C947207CF93C82FE5
:100F500088E10E942B028C2F0E94A1070E94D201DF
:100F600062E088E10E9453021092CE038093CD0389
:100F70008EEA95E00E942B07C82F8EEA95E00E942A
:100F80002B0720E03C2FA901482BCA01CF910895DF
:100F9000CF93DF9390913105992311F097E0892742
:100FA00020EC31E080FF02C020E831E030933405CE
:100FB0002093330581FF09C020913305309134051A
:100FC0002F77309334052093330582FF09C0809139
:100FD0003305909134059E7F9093340580933305BB
:100FE000D0913305C09134058091300580620E9414
:100FF0002B0282E10E94A1078D2F0E94A1078C2F56
:101000000E94A1070E94D2018111FCCFDF91CF91F4
:1010100008959091350590FF02C0811187E090916D
:10102000320591110C94C8070895DF92EF92FF9258
:101030000F931F93CF93DF9300D000D000D0CDB794
:10104000DEB788E60E942B0260E08EEA95E00E94FF
:1010500072070E94D20167E070E088E690E00E948B
:1010600091028EEA95E00E942B078F77282F30E0BF
:1010700094E0359527959A95E1F7922F990F990F5E
:10108000122F191B110F180F8EEA95E00E942B07E3
:101090009C0144E0359527954A95E1F72F70332759
:1010A000922F990F990F022F091B000F080F8EEA3C
:1010B00095E00E942B079C0154E0359527955A95A1
:1010C000E1F72F703327922F990F990FF22EF91A0B
:1010D000FF0CF80E8EEA95E00E942B078EEA95E051
:1010E0000E942B079C0164E0359527956A95E1F7EE
:1010F0002F703327922F990F990FE22EE91AEE0CD9
:10110000E80E8EEA95E00E942B079C0174E035956D
:1011100027957A95E1F72F703327922F990F990F22
:10112000D22ED91ADD0CD80E8EEA95E00E942B073C
:10113000AC01E4E055954795EA95E1F74F705527E6
:10114000942F990F990F242F291B220F280F3D2D23
:10115000A701B80180E090E026960FB6F894DEBFB4
:101160000FBECDBFDF91CF911F910F91FF90EF90F8
:10117000DF900895CF93DF9300D000D000D0CDB79B
:10118000DEB780911D05882371F10E943502882306
:1011900051F10E94150820911E054CE380911F0516
:1011A00090E0249F800D911D1124709120052091C5
:1011B000210530E0749F200D311D112470E0549FF3
:1011C000600D711D112428173907B0F468177907CD
:1011D00030F026173707A8F08617970780F081E0D0
:1011E0006217730760F426960FB6F894DEBF0FBE41
:1011F000CDBFDF91CF9108956817790780F780E020
:10120000F2CF81E0F0CF1F93CF93DF93EC0188E61C
:101210000E942B0260E08EEA95E00E9472072D8109
:101220001AE0822F612F0E94C334682F660F680F67
:10123000660F620F8EEA95E00E9472072C81822F62
:10124000612F0E94C334682F660F680F660F620F0C
:101250008EEA95E00E9472072B81822F612F0E94F7
:10126000C334682F660F680F660F620F8EEA95E031
:101270000E94720760E08EEA95E00E9472072A8160
:10128000822F612F0E94C334682F660F680F660F8C
:10129000620F8EEA95E00E9472072981822F612FEA
:1012A0000E94C334682F660F680F660F620F8EEAC4
:1012B00095E00E9472072881822F612F0E94C3341B
:1012C000682F660F680F660F620F8EEA95E00E9426
:1012D000720760E08EEA95E00E947207DF91CF917D
:1012E0001F910C94D201CF93C62FFC01818580629F
:1012F0000E942B0283E10E94A1078C2F0E94A1076C
:101300000E94D2018111FCCFCF910895FF920F93DB
:101310001F93CF93DF938C01D62FF42EFC01C5854C
:1013200064FDC061D5FDC860D6FDC460D7FDC26054
:10133000FF2029F1C06A6C2FC8010E9473096C2F2D
:101340006F7DC8010E947309F801C585D0FDC06199
:10135000D1FDC860D2FDC460D3FDC260FF2089F01A
:10136000C06A6C2FC8010E9473096C2F6F7DC80181
:10137000DF91CF911F910F91FF900C947309C06280
:10138000DACFC062EECFFC012385222319F041E0C1
:101390000E94860981E090E00895809122058111E4
:1013A0000DC080911D05882349F00E9435028823D5
:1013B00029F066E087E295E00C94C3090895CF9385
:1013C000DF93CDB7DEB728970FB6F894DEBF0FBE18
:1013D000CDBFFC012385222339F128E0E4E0F1E0D0
:1013E000DE01119601900D922A95E1F7FC0127810B
:1013F000241710F44FEF420F50E0440F551F21E027
:1014000030E02C0F3D1F420F531FFA012081620F65
:10141000606840E028960FB6F894DEBF0FBECDBFDF
:10142000DF91CF910C94860928960FB6F894DEBF11
:101430000FBECDBFDF91CF910895CF9341E060E023
:1014400087E295E00E94DF09C0E160E287E295E073
:101450000E94C309C150C9F741E060E087E295E00E
:10146000CF910C94DF09FC012385222341F040E059
:1014700061E00E9486098BE39FE10197F1F70895EF
:10148000DC011496EC91149715968C91E81740F4B2
:10149000F0E0EE0FFF1FE859FE4F80819181089523
:1014A00087E295E00E94330A90E080E0089590E0A2
:1014B00080E00895FC0192810190F081E02D82810D
:1014C000662319F0982B9283089590959823FBCF6B
:1014D00080911B0660E0882341F185E00E94210392
:1014E00060E086E00E94210360E083ED95E00E94C9
:1014F0005A0A8091EB059091EC058F7B9093EC0557
:101500008093EB050E94210460930006709301060E
:1015100080930206909303061092200610922106F3
:10152000109222061092230608958DEC95E00E94F9
:101530005A0A60E080ED95E00E945A0AD5CF80916A
:10154000C105882321F081E08093C0050895809132
:10155000EB059091EC0580689093EC058093EB058A
:101560000E94680A90E080E00E94BD0181E08093C3
:10157000BF05089560E081E196E00E945A0A61E0AB
:1015800084E196E00E945A0A6CE271E080E090E00B
:101590000E94EE0360E081E196E00E945A0A60E05A
:1015A00084E196E00E945A0A10921006089561E0C4
:1015B00081E196E00E945A0A60E084E196E00E9490
:1015C0005A0A6CE271E080E090E00E94EE0360E075
:1015D00081E196E00E945A0A60E084E196E00E9470
:1015E0005A0A81E0809310060895AF92BF92CF927D
:1015F000DF92EF92FF920F931F93CF93DF937C01C3
:101600006B0184E6A82EB12C0FEF13E0D0E0C0E010
:101610008BEC95E00E941F06C817D90708F444C058
:101620008017910708F48C0121E0A21AB10881F714
:101630008091BA059091BB05029711F10E94B90102
:101640002091EB053091EC05882381F134603093D3
:10165000EC052093EB058091EB059091EC05CB36E2
:10166000E3E0DE0728F19E7F92609093EC05809383
:10167000EB0597FD05C08091100681110E94BA0A02
:10168000E114F10431F0F70111830083F601D183F5
:10169000C083DF91CF911F910F91FF90EF90DF906A
:1016A000CF90BF90AF900895EC01BECF3B7FCFCFDE
:1016B00091609093EC058093EB0597FDE1CF8091CD
:1016C00010068111DDCF0E94D70ADACFFC01A0817C
:1016D000B1819C918281982381E009F480E0089592
:1016E000A8951092C1051092C0058CEB95E00E9460
:1016F000660B882321F081E08093BF050895109246
:10170000BF050895EF92FF920F931F93CF93DF933E
:10171000C4E1D0E0A8958CEB95E00E94660B88238D
:1017200019F162E370E080E090E00E94EE032197FF
:1017300089F782E012C0C8E2D0E0A8958CEB95E072
:101740000E94660B8823A1F162E370E080E090E0E4
:101750000E94EE03219789F783E0DF91CF911F91DB
:101760000F91FF90EF90089581E08093C105109252
:10177000C005CDE3D0E08FE2E82E82E8F82E03E347
:1017800012E88091C0058111D6CF2197A1F261E0C6
:1017900082EC95E00E945A0AC7010197F1F760E0D8
:1017A00082EC95E00E945A0AC8010197F1F7E9CF4F
:1017B00068EE73E080E090E00E94D8051092BF05CB
:1017C0001092C10581E09091C005992331F280E02B
:1017D000C4CFCF92DF92EF92FF92CF93DF930E941C
:1017E00021046B017C01D1E0C2E0CC2371F086EDD5
:1017F00095E00E94660B882341F0DD2389F008C044
:10180000C1110EC0D0E0C0E016C0DD23D9F3C0E0A6
:1018100089ED95E00E94660BD82F882389F3D1E0EB
:101820000E9421046C197D098E099F09643171059C
:1018300081059105D0F28C2F8D2BDF91CF91FF90F8
:10184000EF90DF90CF9008958091400680FF30C0E8
:101850008E7F8093400660913C0670913D0680919A
:101860003E0690913F06611571058105910501F1D4
:1018700020E13EE040E050E00E94E33480913806F1
:1018800090913906A0913A06B0913B06BA01A901A0
:10189000480F591F6A1F7B1F409338065093390623
:1018A00060933A0670933B068DE090E00C9496347A
:1018B0000895EF92FF920F931F93CF93DF937B01D5
:1018C000482F60E087E295E00E94DF09E701099078
:1018D0000020E9F72197CE19C13108F0C0E1DE2DD3
:1018E0008701802F8D1B8C1740F4F80161918F01C7
:1018F00087E295E00E94C309F4CFC03139F060E27D
:1019000087E295E00E94C309CF5FF7CFDF91CF91C7
:101910001F910F91FF90EF900895CF93DF93EC010B
:1019200040E150E086E395E00E9465341092460560
:1019300066E375E0CE01DF91CF910C94590CCF9303
:10194000DF93EB01BC0190E080E00E948D0CBE01B2
:1019500081E090E0DF91CF910C948D0CBC0183EE7F
:1019600091E00E949F0C6CED75E080E090E00C949B
:10197000EE0390E080E00E94BD0161EF71E081E044
:1019800090E00E948D0C8091EB0586FF06C068EB0D
:101990007BE080E090E00E94D80588E19EE00FB6F1
:1019A000F894A895809360000FBE909360006CED52
:1019B00075E080E090E00C94EE03DC011496EC916D
:1019C000149715962C91E21740F4F0E0EE0FFF1FEC
:1019D000E85AFE4F808191810895FC0114820E9493
:1019E000B90C82EA95E00895FC0184818F5F8483BD
:1019F0009581981708F41482E48168E670E0E9178D
:101A000050F4F0E0EE0FFF1FE85AFE4F0190F08116
:101A1000E02D6281738181E090E00C948D0CFC01DB
:101A200014826281738190E080E00E948D0C60914D
:101A30009D0570919E0581E090E00C948D0CFC0159
:101A400084818F5F84839581981708F41482E481E0
:101A500068E670E0E91750F4F0E0EE0FFF1FE85978
:101A6000FE4F0190F081E02D6281738181E090E072
:101A70000C948D0CCF93DF93EC011C826A817B81E7
:101A800090E080E00E948D0CEC81F0E0EE0FFF1FF3
:101A9000E859FE4F0190F081E02D6281738181E071
:101AA00090E0DF91CF910C948D0CFC0114826AEDD3
:101AB00072E090E080E00E948D0C68E172E081E0CD
:101AC00090E00C94590CFC0114826AE770E090E0FD
:101AD00080E00E948D0C6FE172E081E090E00C9458
:101AE000590CFC0114826DE670E090E080E00E94E9
:101AF0008D0C6FE172E081E090E00C94590CFB01D9
:101B000001900020E9F73197AF01461B570BDC012C
:101B1000ED91FC910280F381E02D09948F929F92C8
:101B2000AF92BF92EF92FF920F931F93CF93DF93E9
:101B3000CDB7DEB7A1970FB6F894DEBF0FBECDBF0D
:101B40007C01FA01CB0119A2223008F42AE08E01AF
:101B50000F5D1F4F822E912CB12CA12CBF01A5012E
:101B600094010E94E334F901CA016A300CF5605D0A
:101B7000D8016E938D01232B242B252B79F790E030
:101B800080E0109721F0BD01C7010E947F0DA19652
:101B90000FB6F894DEBF0FBECDBFDF91CF911F917E
:101BA0000F91FF90EF90BF90AF909F908F9008950E
:101BB000695CDECF6115710511F00C947F0D90E02A
:101BC00080E00895CF93DF93EA01462F682F87E2E4
:101BD00095E00E94DF09BE0187E295E0DF91CF9199
:101BE0000C94DA0DCF93DF93EC018C818F5F8330FF
:101BF00098F48C830E941D0AEC81F0E0EE0FFF1F29
:101C0000E45FFE4F4081518161E070E090E080E050
:101C1000DF91CF910C94E20D1C82ECCFCF93DF9338
:101C2000EC018C818F5F823098F48C830E941D0AB6
:101C3000EC81F0E0EE0FFF1FEE5EFE4F4081518120
:101C400061E070E090E080E0DF91CF910C94E20DD4
:101C50001C82ECCFCF93DF93EC018C818F5F8230BD
:101C600098F48C830E941D0AEC81F0E0EE0FFF1FB8
:101C7000EE5EFE4F4081518161E070E090E080E0D7
:101C8000DF91CF910C94E20D1C82ECCF40E150E04B
:101C9000BC0186E395E00E9465341092460566E338
:101CA00075E087E295E00C94DA0DCF93DF93EC01B9
:101CB0008C818F5F823008F58C830E941D0AEC8135
:101CC00081E090911D05911180E0E81318C043E276
:101CD00052E061E070E090E080E00E94E20DEC8173
:101CE000F0E0EE0FFF1FEE5EFE4F6081718187E234
:101CF00095E0DF91CF910C94DA0D1C82DECFF0E0FD
:101D0000EE0FFF1FEE5EFE4F4081518161E070E0FB
:101D100090E080E0DF91CF910C94E20DCF93DF93C0
:101D2000EC0181E090911D05911180E08C836AEDBA
:101D300072E090E080E00E948D0C0E941D0A43E258
:101D400052E061E070E090E080E00E94E20DEC8102
:101D5000F0E0EE0FFF1FEE5EFE4F6081718187E2C3
:101D600095E0DF91CF910C94DA0DCF93DF93EC01E6
:101D700043E252E061E070E090E080E00E94E20D1A
:101D8000EC81F0E0EE0FFF1FEE5EFE4F608171818F
:101D900087E295E00E94DA0D64EF71E080E090E068
:101DA0000E94EE038C81882329F082EA95E0DF917E
:101DB000CF9108958CE895E0FACFCF93DF93EC01B3
:101DC00043E252E061E070E090E080E00E94E20DCA
:101DD000EC81F0E0EE0FFF1FEE5EFE4F608171813F
:101DE00087E295E00E94DA0D64EF71E080E090E018
:101DF0000E94EE038C81811102C00E94B90C90E018
:101E000080E0DF91CF9108956115710521F08AE39B
:101E100094E00C947F0D90E080E00895CF93DF93E1
:101E2000EBEAF3E080E0EF019191992311F089272B
:101E3000FACF1F928F9385E292E09F938F93DF9367
:101E4000CF930E9479358DE08B831C820F900F9089
:101E50000F900F900F900F90DF91CF9108951F92E8
:101E60008F931F9284E28F938BE292E09F938F93E4
:101E70008BEA93E09F938F930E9479350E940E0F17
:101E80008DB79EB708960FB6F8949EBF0FBE8DBF54
:101E90006BEA73E087ED94E00C94040FEF92FF92ED
:101EA0001F93CF93DF9390915503C2E0911117C018
:101EB000C091ED051091F105D091FB052091EB0546
:101EC0003091EC0579019AE1E92291E2F922811140
:101ED00028C0CC2379F0C13049F430FF0FC08C2FDB
:101EE000DF91CF911F91FF90EF900895C23021F4C0
:101EF00030FD04C0C1E0F3CFC330D1F3809154036F
:101F0000C8130FC08091530318130BC08091520364
:101F1000D81307C08091500390915103E816F90639
:101F200049F33F932F931F92DF931F921F931F92AA
:101F3000CF931F9284E28F9383E392E09F938F93DA
:101F40008BEA93E09F938F930E9479350E940E0F46
:101F50006BEA73E087ED94E00E94040FC093540392
:101F600010935303D0935203F0925103E092500325
:101F70008DB79EB70E960FB6F8949EBF0FBE8DBF5D
:101F8000C0E0ADCFCF93DF93EC018091E90580FFF6
:101F900041C086E08D838091FA058E838DE492E0C6
:101FA0009F938F9380E592E09F938F938BEA93E0CA
:101FB0009F938F930E9479356BEA73E090E080E005
:101FC0000E94590C9091FB059C838D810F900F907E
:101FD0000F900F900F900F90981708F48C838C81BE
:101FE0001F928F938FE592E09F938F938BEA93E0FC
:101FF0009F938F930E9479350F900F900F900F90C1
:102000000F900F906BEA73E081E090E0DF91CF9149
:102010000C94590C86E08D8388E18E838AE492E0EB
:10202000BFCFCF93DF938091ED051F928F931F92C7
:1020300084E28F9384E692E09F938F93CBEAD3E080
:10204000DF93CF930E94793509900020E9F76EE97C
:1020500071E0CE0101970E945E340E940E0F8DB791
:102060009EB708960FB6F8949EBF0FBE8DBF6BEA61
:1020700073E087ED94E0DF91CF910C94040F8F9281
:102080009F92AF92BF92CF92DF92EF92FF920F9307
:102090001F93CF93DF9300D000D000D0CDB7DEB731
:1020A000082F1091ED058091350586FF05C08CEF56
:1020B000810F8B3008F037C48091E905E2E0DE2E15
:1020C00080FD02C0DD24D394C090FB050E94210452
:1020D0004B015C019091ED058091EE05981303C0D2
:1020E000002309F442C028EE820E23E0921EA11CB8
:1020F000B11C8091EB0581FD02E01F92CF921F92EF
:10210000DF9280E291E09F938F937BEAE72E73E06A
:10211000F72EFF92EF920E9479350FB6F894DEBF4A
:102120000FBECDBF173009F477C208F078C1133065
:1021300009F409C208F063C1113009F48DC11230ED
:1021400009F4EFC18091110580FD02C083FF0DC02D
:102150008091EB0581FD09C081E00E94090866E0DD
:1021600072E090E080E00E948D0C80914705909194
:102170004805A0914905B0914A05A5019401281B85
:10218000390B4A0B5B0BDA01C901883E9340A1056C
:10219000B10518F4013009F0C6C38092470590924A
:1021A0004805A0924905B0924A058091EB0581FD52
:1021B00005C08AEF810F823008F48CC20E94150896
:1021C0005C836D837E83133009F0AAC3809135054B
:1021D00087FF3BC08F778093350560912006709113
:1021E00021068091220690912306683E53E07507F0
:1021F0008105910508F4D9C228EE33E040E050E0B3
:102200000E94E334122F032F24E630E040E050E038
:102210000E94E3343F932F930F931F9383E892E040
:102220009F938F938BEA93E09F938F930E947935CE
:102230000FB6F894DEBF0FBECDBF4BEA53E070E09F
:1022400060E08AE090E00E94E20D60913C067091AF
:102250003D0680913E0690913F0620E13EE040E041
:1022600050E00E94E3345F934F933F932F938FE6A8
:1022700092E09F938F930BEA13E01F930F930E94BA
:102280007935A80161E070E090E080E00E94E20D05
:10229000609138067091390680913A0690913B061C
:1022A00028EE33E040E050E00E94E3345F934F9328
:1022B0003F932F9386E792E09F938F931F930F9303
:1022C0000E947935A80161E070E087E090E00E940B
:1022D000E20D809111050FB6F894DEBF0FBECDBFA1
:1022E00080FF6AC20E941D0A2091170530911805CF
:1022F000211596EF390751F1C9016AE070E00E949B
:10230000CF3497FF03C09195819591099F938F9347
:10231000C9016AE070E00E94CF347F936F938BE82D
:1023200092E09F938F938BEA93E09F938F930E9409
:1023300079354BEA53E061E070E090E080E00E9484
:10234000E20D0FB6F894DEBF0FBECDBF2091190588
:1023500030911A052115F6EF3F0751F1C9016AE0E6
:1023600070E00E94CF3497FF03C091958195910949
:102370009F938F93C9016AE070E00E94CF347F93EE
:102380006F938BE892E09F938F938BEA93E09F93F8
:102390008F930E9479354BEA53E061E070E085E06D
:1023A00090E00E94E20D0FB6F894DEBF0FBECDBFE5
:1023B00080911105282F30E0A90155954795559535
:1023C000479540FFFBC13595279520FFACC28B7F19
:1023D0008093110581E026960FB6F894DEBF0FBEFC
:1023E000CDBFDF91CF911F910F91FF90EF90DF90C4
:1023F000CF90BF90AF909F908F900C9409081530AC
:1024000009F4C4C008F4B8C081E00E94090861E77B
:1024100072E0023009F015C18CE792E0B4C01B30C5
:1024200009F4BAC058F4193009F436C108F40EC1E1
:1024300081E00E94090860E672E0EECF1E3F09F4D9
:1024400033C108F00FC11E3009F07CCE81E00E943C
:10245000090863E372E0E0CF87E295E00E94330A67
:1024600040E060E087E295E00E94DF0982E00E94A0
:1024700009080E94CD0985EC92E00E94460E4BEAC5
:1024800053E070E060E08AE090E00E94E20D60912D
:102490003C0670913D0680913E0690913F0620E1FA
:1024A0003EE040E050E00E94E3345F934F933F935F
:1024B0002F938FE692E09F938F93FF92EF920E946B
:1024C00079354BEA53E061E070E090E080E00E94F3
:1024D000E20D609138067091390680913A0690912C
:1024E0003B0628EE33E040E050E00E94E3345F9387
:1024F0004F933F932F9386E792E09F938F93FF92A2
:10250000EF920E9479354BEA53E061E070E087E09A
:1025100090E00E94E20D0FB6F894DEBF0FBECDBF73
:1025200011CE87E295E00E94330A40E060E087E246
:1025300095E00E94DF0983E00E9409080E94CD090E
:102540008BEB92E09ACF86E00E94090887E295E043
:102550000E94330A40E060E087E295E00E94DF09D4
:102560000E94CD0982EB92E00E94460E80913505D3
:10257000806880933505E6CD81E00E94090869E90D
:1025800072E087EA92E00E949F0CDCCD81E00E941D
:1025900009086DE872E0F5CF81E00E9409086CE758
:1025A00072E090E080E00E948D0C64E572E08BEABE
:1025B00093E00E945E34F70101900020E9F77F016B
:1025C0006091200670912106809122069091230649
:1025D00028EE33E040E050E00E9405358091FB0595
:1025E00090E0281B390B3F932F938EE792E09F9347
:1025F0008F93C70101979F938F930E9479356BEA60
:1026000073E081E090E00E94590C0F900F900F90C2
:102610000F900F900F9096CD81E00E940908023034
:1026200071F48091E9059091EA0594FF05C08CE76B
:1026300092E06AE472E0A7CF87EA92E0FACF6AE418
:1026400072E090E080E00E948D0C7CCD81E00E94E1
:1026500009088CE792E0023011F087EA92E06EE31D
:1026600072E091CF85E00E94090887E295E00E9420
:10267000330A40E060E087E295E00E94DF098AE2E9
:1026800092E00E94460E4BEA53E070E060E08AE080
:1026900090E00E94E20D56CD81E00E94090869E1B8
:1026A00072E08EE192E06FCF0E94B901882381F041
:1026B00087E00E94090887E295E00E94330A40E023
:1026C00060E087E295E00E94DF0980E192E0D9CFE7
:1026D00085E0EFCF66E171E08BEA93E00E9472350E
:1026E0008091ED05863009F057C0C090C505D090A7
:1026F000C605E090C705F090C8050E94210440EE91
:10270000C40E43E9D41E44E0E41EF11CA701960167
:10271000261B370B480B590BCA01B90128EE33E0D1
:1027200040E050E00E94E334C90137FDFCC06CE397
:1027300070E00E94CF349F938F937F936F9389E9CA
:1027400092E09F938F9387EC93E09F938F930E94E7
:10275000793567EC73E08BEA93E00E9467350FB63A
:10276000F894DEBF0FBECDBF6BEA73E081E090E06E
:1027700026960FB6F894DEBF0FBECDBFDF91CF9186
:102780001F910F91FF90EF90DF90CF90BF90AF908F
:102790009F908F900C94590CC090DC05D090DD0573
:1027A000E090DE05F090DF05A8CF6FEF71E08BEAD7
:1027B00093E00E945E3441CD82FDB5C08460809379
:1027C000110586E008CE40E060E087E295E00E94D7
:1027D000DF090E94CD0980E192E00E94460E8E81C1
:1027E0001F928F938D811F928F938C811F928F9355
:1027F00084E992E09F938F930BEA13E01F930F936A
:102800000E947935A80161E070E090E080E00E94CC
:10281000E20D0FB6F894DEBF0FBECDBF80911D054F
:10282000882309F465C040E069E087E295E00E94F2
:10283000DF0962E087E295E00E94C30966E087E273
:1028400095E00E94C30980911F051F928F9380918C
:102850001E051F928F9389E9E82E82E0F82EFF92E1
:10286000EF921F930F930E947935A80170E060E00A
:102870008BE090E00E94E20D41E069E087E295E0A4
:102880000E94DF0961E087E295E00E94C30966E0EB
:1028900087E295E00E94C309809121051F928F93E2
:1028A000809120051F928F93FF92EF921F930F93B9
:1028B0000E9479350FB6F894DEBF0FBECDBFA801D8
:1028C00061E070E08BE090E026960FB6F894DEBFF2
:1028D0000FBECDBFDF91CF911F910F91FF90EF9071
:1028E000DF90CF90BF90AF909F908F900C94E20DAF
:1028F0001F92CF921F92DF9280E291E09F938F937D
:102900001F930F930E9479350FB6F894DEBF0FBE68
:10291000CDBF4BEA53E070E060E08AE090E0D4CFB6
:102920001E3F09F450CF26960FB6F894DEBF0FBEB7
:10293000CDBFDF91CF911F910F91FF90EF90DF906E
:10294000CF90BF90AF909F908F9008958091ED05AC
:102950008E3FB9F090E080E00E94BD018EEF809341
:10296000ED050E9421046093000670930106809398
:1029700002069093030681E00E943F1080E00C94D1
:102980004E0F0895CF93C82F80911105877F8093B4
:1029900011058091570590915805009759F0DC0179
:1029A000ED91FC910280F381E02D0995C0E08C2F20
:1029B000CF910895C111FBCF8091ED058E3FB0F00E
:1029C0000E94B70280911D05882389F30E94BA08EE
:1029D0009091ED059E3F69F4882369F080911D0573
:1029E000882329F381E080932205E1CF0E94A61479
:1029F000E9CF882399F310922205D9CF81115BC0CA
:102A000086EA92E09F938F931F9284E28F9389EAE4
:102A100092E09F938F938BEA93E09F938F930E9412
:102A200079358DB79EB708960FB6F8949EBF0FBE46
:102A30008DBF8091F904882361F064E373E08BEA31
:102A400093E00E94673569ED74E08BEA93E00E94A1
:102A50006735209110052223E9F08BEA93E0FC0111
:102A600001900020E9F7CF011F922F931F922AE3D4
:102A70002F932EEA32E03F932F9301979F938F93EA
:102A80000E9479358DB79EB708960FB6F8949EBF11
:102A90000FBE8DBF0E940E0F6BEA73E087ED94E0CE
:102AA0000E94040F80910F05882341F06AE087EDB2
:102AB00094E00C94B30583EA92E0A4CF08951F93A9
:102AC000CF93DF93D82FC62F142F1092AB03411151
:102AD00006C063E272E08BEA93E00E9467356D2FD7
:102AE00070E090E080E00E94F702BC018BEA93E086
:102AF0000E94673566EB72E08BEA93E00E946735CF
:102B0000113031F463E272E08BEA93E00E946735A2
:102B10006C2F70E090E080E00E94F702BC018BEA2D
:102B200093E00E9467356BEA73E081E090E0DF910B
:102B3000CF911F910C94590CFC0184818F5F8C33D1
:102B400038F4848341E0648180914E030C945F15D6
:102B50001482F8CFCF93DF93EC0163EC70E090E048
:102B600080E00E948D0C60914F036C8341E0809166
:102B70004E03DF91CF910C945F15FC0184818F5F30
:102B80008C3338F4848341E0648180914E030C944B
:102B90005F151482F8CFCF93DF93EC0169EB70E0FF
:102BA00090E080E00E948D0C60914F036C8341E0C7
:102BB00080914E03DF91CF910C945F15FC018481CD
:102BC00080934E0340E060914F030E945F1564EFD5
:102BD00071E080E090E00E94EE038AE595E00895C0
:102BE000FC0184818F5F883138F4848340E06091F8
:102BF0004F0384810C945F151482F8CFCF93DF9339
:102C0000EC016FEA70E090E080E00E948D0CEDE155
:102C1000F5E0838180934E03648160934F038C833E
:102C200040E0DF91CF910C945F15FC01848180938B
:102C30004E0340E060914F030E945F1564EF71E026
:102C400080E090E00E94EE038FE595E00895FC019E
:102C500084818F5F883138F4848340E060914F0332
:102C600084810C945F151482F8CFCF93DF93EC012D
:102C700064EA70E090E080E00E948D0CEDE1F5E008
:102C8000818180934E03628160934F038C8340E087
:102C9000DF91CF910C945F15CF92DF92EF92FF926C
:102CA0000F931F93CF93DF936C01F62E142FD22F27
:102CB000CE2D1092AB03E11006C063E272E08BEA06
:102CC00093E00E9467356F2D70E090E080E00E94F5
:102CD000F702BC018BEA93E00E94673568EB72E073
:102CE0008BEA93E00E946735C13031F463E272E011
:102CF0008BEA93E00E946735612F70E090E080E0FE
:102D00000E94F702BC018BEA93E00E94673568EBF2
:102D100072E08BEA93E00E946735C23031F463E2DF
:102D200072E08BEA93E00E946735B60190E080E0A4
:102D30000E94F702BC018BEA93E00E94673564E3CE
:102D400073E08BEA93E00E946735C33031F463E2AD
:102D500072E08BEA93E00E9467356D2F70E090E09F
:102D600080E00E94F702BC018BEA93E00E94673585
:102D700066EB72E08BEA93E00E946735C43031F471
:102D800063E272E08BEA93E00E946735602F70E0A7
:102D900090E080E00E94F702BC018BEA93E00E9481
:102DA00067356BEA73E081E090E0DF91CF911F918E
:102DB0000F91FF90EF90DF90CF900C94590CAF9251
:102DC000BF92CF92DF92EF92FF920F931F93CF9318
:102DD000DF9300D000D000D0CDB7DEB7FC01148166
:102DE00010934F03F0904E03B0904D03A0904C030E
:102DF000C0904A03D0904B0384E0E82E012F2F2D82
:102E00004B2D6A2DC6010E944C16F0EDCF16F7E04F
:102E1000DF0620F080EDC81A87E0D80AC982AA82AE
:102E2000BB82FC821D831E82CE0101960E94030993
:102E300064EF71E080E090E00E94EE0382EA95E0AA
:102E400026960FB6F894DEBF0FBECDBFDF91CF91AF
:102E50001F910F91FF90EF90DF90CF90BF90AF90B8
:102E60000895EF920F93CF93DF93EC018C818F5FE6
:102E70008C33B8F48C830E941D0A84E0E82E0C8108
:102E800020914E0340914D0360914C0380914A0381
:102E900090914B030E944C16DF91CF910F91EF90D0
:102EA00008951C82E8CFEF920F93CF93DF93EC014C
:102EB0006DE970E090E080E00E948D0C00914F037E
:102EC0000C8384E0E82E20914E0340914D036091E5
:102ED0004C0380914A0390914B030E944C16DF9162
:102EE000CF910F91EF900895EF920F93FC01248101
:102EF00020934E0383E0E82E00914F0340914D0351
:102F000060914C0380914A0390914B030E944C16B0
:102F100064EF71E080E090E00E94EE0388E795E0C6
:102F20000F91EF900895EF920F93CF93DF93EC0101
:102F30008C818F5F8831B8F48C830E941D0A83E0F6
:102F4000E82E00914F032C8140914D0360914C037A
:102F500080914A0390914B030E944C16DF91CF91D0
:102F60000F91EF9008951C82E8CFEF920F93CF93CB
:102F7000DF93EC0168E970E090E080E00E948D0C46
:102F800020914E032C8383E0E82E00914F03409163
:102F90004D0360914C0380914A0390914B030E9432
:102FA0004C16DF91CF910F91EF900895EF920F9310
:102FB000FC01848190E090934B0380934A0322E0CC
:102FC000E22E00914F0320914E0340914D036091FA
:102FD0004C030E944C1664EF71E080E090E00E9488
:102FE000EE038DE795E00F91EF900895EF920F9328
:102FF000FC0184818F5F823290F48483848192E02B
:10300000E92E00914F0320914E0340914D036091B2
:103010004C0390E00E944C160F91EF90089587E1C9
:10302000ECCFEF920F93CF93DF93EC0163E970E065
:1030300090E080E00E948D0C80914A0399EE980FF9
:103040009B30A0F48C838C8192E0E92E00914F0399
:1030500020914E0340914D0360914C0390E00E94FB
:103060004C16DF91CF910F91EF90089587E18C83FB
:1030700087E190E090934B0380934A03E4CFEF9273
:103080000F93FC01448140934D03EE24E39400919F
:103090004F0320914E0360914C0380914A0390911D
:1030A0004B030E944C1664EF71E080E090E00E94B8
:1030B000EE0382E895E00F91EF900895EF920F9361
:1030C000CF93DF93EC018C818F5F8032B8F48C83D7
:1030D0000E941D0AEE24E39400914F0320914E03B9
:1030E0004C8160914C0380914A0390914B030E9464
:1030F0004C16DF91CF910F91EF90089581E0E7CFCB
:10310000EF920F93CF93DF93EC016FE870E090E0C4
:1031100080E00E948D0C40914D034C83EE24E3949B
:1031200000914F0320914E0360914C0380914A031C
:1031300090914B030E944C16DF91CF910F91EF902D
:103140000895EF920F93FC01648160934C03E12C8E
:1031500000914F0320914E0340914D0380914A030B
:1031600090914B030E944C1664EF71E080E090E078
:103170000E94EE0387E895E00F91EF900895EF929B
:103180000F93CF93DF93EC018C818F5F8D30B0F480
:103190008C830E941D0AE12C00914F0320914E0365
:1031A00040914D036C8180914A0390914B030E94A2
:1031B0004C16DF91CF910F91EF90089581E0E8CF09
:1031C000EF920F931F93CF93DF9300D000D000D0E6
:1031D000CDB7DEB78C0169E870E090E080E00E9436
:1031E0008D0C0E941508822F252F30934C0340939D
:1031F0004D0390E090934B0380934A0350934E030A
:1032000060934F03F8013483E12C062F632F0E9453
:103210004C1626960FB6F894DEBF0FBECDBFDF91D9
:10322000CF911F910F91EF900895CF93DF93482F87
:1032300050E070E060E02AE08AE394E00E948E0DA6
:10324000EC016AEB72E08AE394E00E947F0D8C0F40
:103250009D1FDF91CF910895AC01990F660B770BFD
:103260002AE087E295E00C948E0DCF93DF93EC017A
:103270008C818F5F8C839E81981710F48D818C8355
:103280000E941D0A41E060E087E295E00E94DF09AC
:103290009C818091FB05981306C063E272E087E28F
:1032A00095E00E94DA0D8C8190E00E942C1961E873
:1032B00072E087E295E0DF91CF910C94DA0DCF9325
:1032C0008091E905C1E080FDC2E081E090E0C1307D
:1032D00011F490E080E00E947434982F8FEF890FF2
:1032E0008E3F28F090E2C13069F48CE009C086E09E
:1032F000963030F0C13031F4892F993108F088E1EF
:10330000CF9108958091FA059817D0F7892FF8CFBB
:10331000EF92FF920F931F93CF93DF93C82F062F47
:10332000142F8091E9059091EA057C0121E0E222C9
:10333000FF2480FF35C08091FA0511110E945F19AA
:10334000C63080F18C17A0F1C093FB05D0E0C0E03F
:1033500011110EC06091FB0521E0EF2809F022E079
:1033600081E090E0213011F490E080E00E94883408
:103370008091BA059091BB05019729F48091FB05D6
:1033800090E00E94C602002319F081E00E943F10E5
:10339000CE01DF91CF911F910F91FF90EF90089593
:1033A00088E1CBCF86E08093FB05C1E0D0E0D0CFB1
:1033B0008093FB05C2E0D0E0CBCFCF93DF93CDE18C
:1033C000D5E081E0888361E084E090E00E94883469
:1033D0001D82EAEBF5E081A992A9906192AB81ABE5
:1033E00081E0DF91CF910C943F10CF93DF93CDE13B
:1033F000D5E0188260E084E090E00E9488341D826D
:10340000EAEBF5E081A992A99F7E92AB81AB81E0C6
:10341000DF91CF910C943F10CF93DF93EC0143E207
:1034200052E061E070E090E080E00E94E20DEC810B
:10343000F0E0EE0FFF1FEE5EFE4F6081718187E2CC
:1034400095E00E94DA0D64EF71E080E090E00E9468
:10345000EE038C81811107C00E94DD1988EA95E096
:10346000DF91CF9108950E94F519F8CF0F931F9324
:10347000CF93DF93FC01048100934F0310914E031F
:1034800041E0602F812F0E945F15CDE1D5E01B83C5
:103490000C83612F87E090E00E9488346C8188E083
:1034A00090E00E94883464EF71E080E090E00E9438
:1034B000EE0388EA95E0DF91CF911F910F91089577
:1034C0000F931F93CF93DF93FC01048100934F036D
:1034D00010914E0341E0602F812F0E945F15CDE1D6
:1034E000D5E019830A83612F85E090E00E9488343B
:1034F0006A8186E090E00E94883464EF71E080E0A9
:1035000090E00E94EE0388EA95E0DF91CF911F9151
:103510000F910895CF93DF93EC0143E252E061E015
:1035200070E090E080E00E94E20D8C8190E00E94CB
:103530002C1961E872E087E295E00E94DA0D64EFF1
:1035400071E080E090E00E94EE036C818091E905DB
:1035500021E080FD22E081E090E0213011F490E054
:1035600080E00E94883440E060E08C810E948819ED
:1035700082EA95E0DF91CF910895CF93DF93C82F32
:1035800048E050E08BEA93E00E944A348091320593
:103590008823A9F088E0C89FB0011124606440E04E
:1035A00087E295E00E948609CBEAD3E0699187E241
:1035B00095E00E94C30983E0C33BD807B9F7DF91C8
:1035C000CF9108952F923F924F925F926F927F9288
:1035D0008F929F92AF92BF92CF92DF92EF92FF9223
:1035E0000F931F93CF93DF93CDB7DEB72B970FB613
:1035F000F894DEBF0FBECDBF8AE394E00E948C0436
:103600001C01892B09F4D2C6512C412C7AED672E6E
:1036100074E0772EE2EFCE2EE2E0DE2EF9EDEF2E13
:10362000F4E0FF2E421453040CF0C0C68AE394E089
:103630000E946A04082F80910F05882329F0602FCB
:1036400087ED94E00E94B305043249F40093D90455
:1036500081E08093F9049FEF491A590AE3CF9091D2
:10366000D9049432C1F7E091F904E0320CF099C624
:1036700081E08E0F0E2E000CFF0BE952FB4F809362
:10368000F9040D3009F08BC612827092FB0460922F
:10369000FA0481E080930E051091DA0404E2010F30
:1036A0001927EBEDF4E0DF0191919923A9F1903214
:1036B00021F580910E058A3064F010920E0510926B
:1036C000D9041092F9041092100580E00E94FE14B3
:1036D000C2CF005E1927DF0111971C92A0910E0541
:1036E00081E08A0F80930E05AA0FBB0BA952BB4F36
:1036F0009496FC93EE939397D6CF9A32D1F19E3560
:10370000D9F562E0B62E1C92CF010E94830521E01C
:10371000B21235C00813D1CF81E0809355031092C7
:10372000100510910E0512309CF0E12FEE0FFF0BEB
:10373000EB52FB4F83A194A1DC012C912A3341F47D
:1037400001960E94830580931005115010930E0579
:103750001092F904E091FA04F091FB04808187341F
:1037600009F429C47CF4863409F450C00FEF1FEF2C
:1037700019C3BB24B394C7CF090F192794CF1813CB
:103780009CCFCACF833509F489C18A3579F7818105
:10379000803361F780910E05833009F05AC0809123
:1037A000FC049091FD040E946305062F8091FE04A5
:1037B0009091FF040E946305162F0093E705609324
:1037C000E8051F926F931F920F9383E093E09F93FE
:1037D0008F938BEA93E09F938F930E9479356BEAE6
:1037E00073E08AE394E00E947F0D6AEB72E08AE363
:1037F00094E00E947F0D602F85E290E00E94883463
:10380000612F86E290E00E94883447C4818185342C
:1038100009F4A3C00CF03FC0813309F482C0E4F482
:10382000803309F0A3CF80910E05823009F09ECF3E
:10383000E091FC04F091FD04809135059081903376
:1038400009F46DC08F7B809335058081803309F04A
:1038500071C010E000E0A6C2823409F46FC0843465
:1038600009F084CF8091ED058F3F99F382E090E0DD
:103870000E94BD018FEF8093ED050E94680A809140
:10388000EC0587FF0E94BA0A81E00E943F1080E0A9
:103890000E944E0FDECF803509F4CAC00CF036C04E
:1038A000863409F063CF80910E05833009F05ECF36
:1038B000E091FE04F091FF0480818053823008F093
:1038C00055CFE091FC04F091FD04E081E254E53134
:1038D00008F04CCF0E2E000CFF0BEF58F34E0C945B
:1038E0002435B01CB61BC41CD81CDC1CE61CB61B43
:1038F000B61BB61BB61BB61BB61BB61BB61BB61B40
:10390000B61BFA1CB61B041DB61B0E1D823509F42E
:10391000C2C0833509F02ACF0E94A6149ACF8064D2
:1039200092CF9091ED05945081E09B3008F080E0BB
:103930000E94C21481E00E943F108BCF80910E053F
:10394000823009F013CF8091FC049091FD040E9415
:103950006305862F0E9409087CCF0E94B70279CFA9
:103960002091E9053091EA0581110CC0306830934F
:10397000EA052093E9058091E9059091EA050E9406
:10398000A82667CF3F77F3CF2091E9053091EA056C
:10399000882361F02D7F3093EA052093E90580911B
:1039A000E9059091EA050E94A82653CF2260F3CF43
:1039B00081E080930F054DCF2091E9053091EA0514
:1039C000882311F03D7FE7CF3260E5CF2091E905F4
:1039D0003091EA05882311F0277FDDCF1092E005B2
:1039E0001092DC051092DD051092DE051092DF05C5
:1039F0002860D1CF2091E9053091EA05882311F0A4
:103A00002F7EC9CF2061C7CF2091E9053091EA050B
:103A1000882311F03B7FBFCF3460BDCF2091E905F3
:103A20003091EA05882311F02B7FB5CF2460B3CF06
:103A300080910E0584300CF499CE8091EB0581FDC8
:103A400095CE8091FC049091FD040E9463054B018A
:103A50008091FE049091FF040E946305A2E0B5E00E
:103A600024E030E010E2A9012F5F3F4FE0910E0506
:103A70000E2E000CFF0B4E175F072CF4ED91FD91FD
:103A800031971083F0CF4091000550910105C4019A
:103A90000E94E20DDECE0E94B90CDBCE8181833420
:103AA00009F431C10CF064C0853309F4DEC00CF0B8
:103AB0003FC0803309F4B5C0813309F057CE8091FF
:103AC0000E05873009F052CE8091060590910705CA
:103AD0000E946305162F80910405909105050E94B0
:103AE0006305062F80910205909103050E946305EE
:103AF000B62E80910005909101050E946305A62EC7
:103B00008091FE049091FF040E946305962E80919F
:103B1000FC049091FD040E94630569839A82AB8244
:103B2000BC820D831E83CE0101960E94030991CEB3
:103B3000813409F4C6C0823409F018CE8091ED05B5
:103B400084506BE472E08B3058F08091EB059091DB
:103B5000EC059F7B9093EC058093EB056DEB72E099
:103B600089ED94E00E94723581E08093F90471CE72
:103B7000843509F453C1D4F48B3409F43AC18C343C
:103B800009F0F4CD80910E05823009F0EFCDE0917F
:103B9000FC04F091FD0480819FEC980F923008F0B6
:103BA000E5CD61E080530E94AD2653CE863509F401
:103BB00082C1893509F0DACD80910E05813009F096
:103BC0008EC191E080E020912F06223009F090E034
:103BD000092F182F0E94210460933006709331063C
:103BE000809332069093330680912F061F928F9315
:103BF00080912E061F928F9380912D068F93809136
:103C00002C068F93DF92CF92FF92EF920E9479352C
:103C100081E08093F9040FB6F894DEBF0FBECDBFEC
:103C2000C1C080910E05823009F0A0CDE091FC0466
:103C3000F091FD04108180913505103391F08E7F55
:103C40008093350581E00E943F108091E9059091B5
:103C5000EA05103341F491609093EA058093E905F9
:103C60009ECE8160EDCF9E7FF7CF80910E05823092
:103C700009F07CCDE091FC04F091FD04808181335A
:103C800099F02CF4803369F001E010E08BC08134AE
:103C900071F08D34C9F78091EB059091EC05906837
:103CA0000BC00E94BA0AD5CD0E94D70AD2CD80910E
:103CB000EB059091EC059F779093EC058093EB05D5
:103CC000C8CD80910E05833009F050CD8091FC0461
:103CD0009091FD040E946305709327066093260669
:103CE00089E090E00E949E348091FE049091FF0450
:103CF0000E94630570932506609324068BE090E094
:103D00000E949E34A6CD00910E058EEF800F82306A
:103D100008F02CCD8091FC049091FD040E94630575
:103D2000162F40E0033009F051C0E091FE04F091FD
:103D3000FF04808141E08D3409F048C08AEF810F93
:103D40008B31C8F48FEF91E00E94743481508E3F24
:103D500090F0612F8FEF91E00E9488341093FA0564
:103D60008091FB05181728F441E061E0812F0E9443
:103D7000881900E001C001E010E08091FA051F926F
:103D80008F9380E392E09F938F93FF92EF920E9434
:103D900079350F900F900F900F900F900F9081E05A
:103DA0008093F9048091F9048F3F31F081E0012B79
:103DB00009F080E00E94FE141092D9041092F904D8
:103DC0001092550380E00E944E0F45CC8091110562
:103DD00080FF04C08091FB05811740F061E0812FD6
:103DE0000E9488198C018091FB05C9CF01E010E089
:103DF000FACF8091FC049091FD040E946305AB0111
:103E0000BC01409338065093390660933A0670938C
:103E10003B068DE090E00E9496341BCD80910E050C
:103E2000853009F0A3CC8091FC049091FD040E94A0
:103E30006305062F8091FE049091FF040E946305A4
:103E4000A62E80910005909101050E946305162F12
:103E500080910205909103050E946305B62E011121
:103E600009C0A11007C0111105C0611103C00E9453
:103E7000F519EFCC00931E05A0921F05602F85E079
:103E800090E00E94883460911F0586E090E00E94D7
:103E9000883410932005B0922105612F87E090E0CF
:103EA0000E9488346091210588E090E00E94883467
:103EB0000E94DD19CECC80910E05823009F056CCDF
:103EC0008091FC049091FD040E9463056093280694
:103ED0007093290680932A0690932B06BACC8330E0
:103EE00009F04BC08091FC049091FD040E94630591
:103EF0004B018091FE049091FF040E9463056B8743
:103F000081149104B9F580912F06882399F10E94BC
:103F10009B268C0190922D0680922C06BB85B09337
:103F20002E0610922F060E94210460933006709393
:103F30003106809332069093330682E290E00E942D
:103F4000823460912C0670912D068617970721F018
:103F500082E290E00E949E3484E290E00E947434F9
:103F600060912E06861709F43FCE84E290E00E940D
:103F700088343ACE10E000E0CDCF8230C9F4809191
:103F8000FC049091FD040E946305653A89F48091D8
:103F90002F0610E000E0823009F026CE0E949B261A
:103FA0008C01892B09F020CE81E080932F061CCE56
:103FB00001E010E019CEE181E053EA3208F0D6CBFF
:103FC0000E2E000CFF0BE951F04E0C9424351120FD
:103FD000B61BB61BB61BB61B3320B61BB61BB61BD7
:103FE000B61BB61BB61BB61BB61BB61BB61BB61B49
:103FF0005520B61B64208320A320B220CA20B61B04
:10400000E720B61BB61BB61BB61BB61BB61B2B2177
:10401000B61BB61B40216F219121AE21B61BB61BEA
:10402000C1218091BA059091BB050297D1F00E9401
:10403000B90191E0811101C090E01F929F9380E34C
:1040400092E09F938F93FF92EF920E94793581E0E7
:104050008093F9040F900F900F900F900F900F9096
:10406000F8CB92E0EACF8091EC0587FF1CC08DE48D
:104070001F928F9380911006282F082E000C330B6F
:104080003F938F938FEB92E09F938F93FF92EF92EA
:104090000E94793581E08093F9040FB6F894DEBF71
:1040A0000FBECDBFD6CB81E4E3CF809125068F93A1
:1040B000809124068F93809127068F938091260606
:1040C0008F9385EF92E0E0CF8091E9050091FA05AA
:1040D00010E080FD02C008E110E00E945F191F920D
:1040E0008F938091FB051F928F931F930F931F92C5
:1040F00086E08F938FEE92E09F938F93FF92EF92E3
:104100000E947935C7CF80911D058823A1F0409189
:104110001E0580911F0590E02091200530E0609100
:10412000210570E07F936F933F932F939F938F931D
:104130001F924F93DFCF40E070E060E030E020E07E
:1041400090E080E0EFCF8091EA058F938091E905C0
:104150008F938091FB051F928F93E2E4F2E0FF932F
:10416000EF9394CF8091E6058F5F1F928F9380919C
:10417000E1058F5F1F928F938091CA058F5F1F9219
:104180008F9385EC92E09F938F93FF92EF920E9422
:10419000793580CF80912B068F9380912A068F935B
:1041A000809129068F93809128068F938091230612
:1041B0008F93809122068F93809121068F93809117
:1041C00020068F932EEC32E03F932F9397CFDE01A2
:1041D0001196EEE0F0E091E29093570084918D9378
:1041E0003196E831F105C1F780E28093D9048981E5
:1041F0008093DA048A818093DB048B818093DC04D2
:104200008C818093DD048D818093DE048E81809388
:10421000DF045E0197E0A90EB11C10E000E0D501BB
:104220008D915D011F928F93E6E2F2E0FF93EF9391
:10423000C80180529B4F9F938F930E9479350E5FE8
:104240001F4F0F900F900F900F900F900F9008300E
:10425000110529F789CC80911C058F9380911B054E
:104260008F93809118058F93809117058F9380917C
:104270001A058F93809119058F93DF92CF9285CF86
:104280008091EC058F938091EB058F938091F105E0
:104290001F928F938091040690910506A0910606C7
:1042A000B091070640910C0650910D0660910E06E4
:1042B00070910F06840F951FA61FB71FBF93AF9372
:1042C0009F938F938091ED051F928F9386ED92E0DF
:1042D0009F938F93FF92EF920E947935DBCE0E94DD
:1042E000150829833A834B835C836D837E831F92F9
:1042F0007F938D811F928F938C811F928F938B81DF
:104300001F928F938A811F928F9389811F928F931F
:1043100029EE32E03F932F93FF92EF920E9479357E
:10432000B9CE80913B068F9380913A068F9380910E
:1043300039068F93809138068F9380913F068F9333
:1043400080913E068F9380913D068F9380913C062D
:104350008F93ABEFB2E0BF93AF93D0CE6EE971E035
:1043600089ED94E00E945E3464E373E089ED94E0AB
:104370000E9467356CEC70E089ED94E00E94533444
:10438000F3CB80912F061F928F9380912E061F9260
:104390008F9380912D068F9380912C066DCF028391
:1043A0005AC91092D9041092F90455C9A895809160
:1043B00032058823C1F08091300580620E942B0273
:1043C00082E10E94A1070E94D201809130058062A3
:1043D00061E070E090E00E9491028EEA95E00E9418
:1043E0002B0780958F71982F917080FD12C080915E
:1043F0004E05823071F440914F0550915005609107
:10440000510570915205452B462B472B11F4109204
:104410004E0510914E05112309F45BC0113069F46B
:1044200040914F0550915005609151057091520592
:10443000452B462B472B09F039C2992309F47DC03F
:104440008091530590915405A0915505B091560562
:10445000892B8A2B8B2B09F470C0123009F06DC0A8
:104460000E942104C0905305D0905405E09055055A
:10447000F09056056C197D098E099F0960317742CD
:104480008105910508F459C0109253051092540506
:1044900010925505109256051F921F931F9284E2A9
:1044A0008F938DE093E09F938F938BEA93E09F939C
:1044B0008F930E9479350E940E0F6BEA73E087EDAF
:1044C00094E00E94040F0FB6F894DEBF0FBECDBF7C
:1044D00034C0992309F4ECC180914F0590915005A7
:1044E000A0915105B0915205892B8A2B8B2B51F449
:1044F0000E94210460934F057093500580935105ED
:10450000909352050E94210400914F05109150058F
:104510002091510530915205DC01CB01801B910B9C
:10452000A20BB30B20914E0521116FC0C297A105BC
:10453000B10518F081E080934E0580914E052091E1
:10454000E9053091EA0537FD6BC01091ED05145077
:10455000813009F030C180914F0590915005A091B4
:104560005105B0915205892B8A2B8B2B09F06CC019
:1045700010924E0581E01B3008F080E00E94C214CA
:10458000882309F461C080915705909158050097E0
:1045900009F458C1DC01ED91FC910480F581E02D16
:1045A00009959093580580935705009709F429C100
:1045B000B5E0883A9B0729F010E0E5E0823A9E07D3
:1045C00019F4DC0114961C91DC01ED91FC91019031
:1045D000F081E02D09958091570590915805B5E03F
:1045E000883A9B0721F0E5E0823A9E0769F511239E
:1045F00059F11150DC0114961C931497ED91FC9124
:104600000280F381E02D09951FC0213009F095CF7C
:10461000843F9140A105B10508F48FCF82E08BCF94
:10462000813009F0A6C080914F0590915005A0916E
:104630005105B0915205892B8A2B8B2B29F41092AE
:104640004E0580E00E942F0F0E9421046B017C0127
:104650008091120590911305A0911405B091150554
:10466000A7019601281B390B4A0B5B0BDA01C90124
:10467000883E9340A105B10508F462C080911605FB
:10468000882309F40DC185E00E94A6079C013F71B3
:1046900094FD306F4AE0429FC001439F900D11246A
:1046A00097FD0F9654E0959587955A95E1F790936D
:1046B00018058093170588E60E942B028EE00E9461
:1046C000A10780E20E94A1070E94D20188E60E9411
:1046D0002B0281E10E94A1070E94D20162E070E0FA
:1046E00088E690E00E949102882309F4DCC08EEAFB
:1046F00095E00E942B07182F8EEA95E00E942B0769
:1047000020E0312F282B46E0359527954A95E1F793
:104710004AE0429FC001439F900D112497FD0396EC
:10472000959587959595879590931A05809319058A
:10473000C0921205D0921305E0921405F09215056F
:104740002B960FB6F894DEBF0FBECDBFDF91CF9191
:104750001F910F91FF90EF90DF90CF90BF90AF909F
:104760009F908F907F906F905F904F903F902F9091
:104770000895823009F068CF80914F0590915005DF
:10478000A0915105B09152050097A105B10509F41A
:104790005BCF8093530590935405A0935505B09338
:1047A000560510924F051092500510925105109227
:1047B000520581E047CF823009F046CF80914F0506
:1047C00090915005A0915105B09152050097A10517
:1047D000B10509F439CF8093530590935405A09304
:1047E0005505B093560510924F0510925005109242
:1047F00051051092520580911105877F8093110514
:10480000C2CE0E94B70280913505982F9F7B2091E0
:104810005905213099F48E7B8093350581E00E9403
:104820003F1081E00E943F108091EB059091EC05D4
:10483000977F9093EC058093EB0506CF9160909362
:104840003505ECCF8091EB059091EC059860909345
:10485000EC058093EB058091350580958170809300
:10486000590587E00E94090880913505806480938E
:10487000350582EA95E01B3020F00E94A61488EAF4
:1048800095E0909358058093570580915705909136
:104890005805DC01ED91FC910190F081E02DB3CE43
:1048A00080E096EF04CF80E096EF3ECF91112ACEC4
:1048B00010924F051092500510925105109252051A
:1048C0003CCECF93C82F8091EB059091EC05826090
:1048D0009093EC058093EB0582E00E943F1080E00E
:1048E0000E944E0F0E94E21A8091BA059091BB057A
:1048F0000297C1F370E060E090E080E00E94F50A6A
:104900000E94B9018111EECFCC2361F31092ED0525
:104910008091EB059091EC058D7F9093EC05809351
:10492000EB05CF9108951F920F920FB60F921124AD
:104930002F933F938F939F93AF93BF938091A30344
:104940009091A403A091A503B091A6033091A20376
:1049500023E0230F2D3758F50196A11DB11D20939B
:10496000A2038093A3039093A403A093A503B09301
:10497000A6038091A7039091A803A091A903B091E9
:10498000AA030196A11DB11D8093A7039093A803CC
:10499000A093A903B093AA03BF91AF919F918F9168
:1049A0003F912F910F900FBE0F901F90189526E802
:1049B000230F0296A11DB11DD2CF1F920F920FB6E9
:1049C0000F9211242F933F934F935F936F937F9395
:1049D0008F939F93AF93BF93EF93FF93E091020167
:1049E000F09103010995FF91EF91BF91AF919F91D4
:1049F0008F917F916F915F914F913F912F910F9088
:104A00000FBE0F901F9018951F920F920FB60F9226
:104A100011242F933F934F935F936F937F938F93C3
:104A20009F93AF93BF93EF93FF93E0910001F091B9
:104A300001010995FF91EF91BF91AF919F918F91E6
:104A40007F916F915F914F913F912F910F900FBE8A
:104A50000F901F9018951F920F920FB60F9211246E
:104A60002F933F934F935F936F937F938F939F9376
:104A7000AF93BF93EF93FF938AE394E00E94AC045B
:104A8000FF91EF91BF91AF919F918F917F916F9126
:104A90005F914F913F912F910F900FBE0F901F90FC
:104AA00018951F920F920FB60F9211242F938F9388
:104AB0009F93EF93FF93E0914A04F0914B04808120
:104AC000E0915004F091510482FD1BC090818091CF
:104AD00053048F5F8F7320915404821741F0E0914B
:104AE0005304F0E0E65CFB4F958F80935304FF91F5
:104AF000EF919F918F912F910F900FBE0F901F906C
:104B000018958081F4CF1F920F920FB60F92112447
:104B10002F933F934F935F936F937F938F939F93C5
:104B2000AF93BF93EF93FF938091B900887F803656
:104B300009F44AC0F0F5883209F4A5C018F58031AF
:104B400009F499C0B8F4882309F4F2C0883009F454
:104B500092C0FF91EF91BF91AF919F918F917F9103
:104B60006F915F914F913F912F910F900FBE0F90DA
:104B70001F901895883109F486C0803251F78093D0
:104B8000130414C0803409F49BC040F48033B9F39B
:104B90008833F9F68093130485ECAEC0803509F4B0
:104BA00083C0883509F494C0883499F60E943B0587
:104BB000D0CF883909F48AC038F5883729F050F405
:104BC000883611F0803729F683E08093150410921F
:104BD000980355C0883809F479C0803919F08038B5
:104BE00009F0B7CF80919803803208F06FC0E09150
:104BF000980381E08E0F809398038091BB00F0E0D2
:104C0000E858FC4F80833BC0803B39F0D0F4803AB9
:104C100009F477C0883A09F09CCF84E080931504AA
:104C20001092770310927603F0E0E0E0099580910E
:104C3000760381110FC081E08093760310925603B2
:104C400009C0803C09F4A8CF883C09F4A5CF883B73
:104C500009F07FCFE091770381E08E0F8093770397
:104C6000F0E0EA5AFC4F80818093BB00909177037B
:104C70008091760329C08091F0038093BB0085EC7E
:104C80008093BC0066CF9091120480911104981714
:104C900058F5E091120481E08E0F80931204F0E049
:104CA000EF50FC4F8081E9CFE091120481E08E0F3C
:104CB000809312048091BB00F0E0EF50FC4F8083A2
:104CC00090911204809111049817C8F285E8D8CF0A
:104CD000E091120481E08E0F809312048091BB005A
:104CE000F0E0EF50FC4F80838091140481115ECF7F
:104CF00081E08093EF0384EA8093BC001092150456
:104D000028CF80919803803230F4E0919803F0E04E
:104D1000E858FC4F10820E943B056091980370E0B8
:104D200088E793E0F0E0E0E009951092980334CF33
:104D3000109213043BCF0E945F199091110590FDD2
:104D400004C041E061E00C94881981E090E008958E
:104D5000BC0182E090E00C949E34CF93C62F20914A
:104D6000E9053091EA05823019F521603093EA05B2
:104D70002093E90580E792E8A3E0B0E0809328065D
:104D800090932906A0932A06B0932B068091E905FB
:104D90009091EA050E94A8260E945F1941E060E018
:104DA0000E948819CC2371F081E0CF910C943F10C0
:104DB0002E7F3093EA052093E90580EC94EDA1E085
:104DC000B0E0DCCFCF91089510923D0410923C04E6
:104DD00088EE93E0A0E0B0E080933E0490933F041F
:104DE000A0934004B09341048CE291E090933B0483
:104DF00080933A0485EC90E09093470480934604B6
:104E000084EC90E0909349048093480480EC90E017
:104E100090934B0480934A0481EC90E090934D046E
:104E200080934C0482EC90E090934F0480934E0466
:104E300086EC90E0909351048093500410925304B8
:104E400010925404109255041092560410921005BA
:104E50008EE391E09093D8048093D70484E791E0A7
:104E60009093A9058093A80581ED92E09093AB05FE
:104E70008093AA0580E091E0980FE82FF0E0EE0F14
:104E8000FF1FE859FE4F20813181232B09F00CC10F
:104E90008093AD0582E691E09093A3058093A205EF
:104EA0008BEC92E09093A5058093A40580E091E0BF
:104EB000980FE82FF0E0EE0FFF1FE85AFE4F208119
:104EC0003181232B09F0F2C08093A70580E092E0A6
:104ED00090939C0580939B0588EF92E090939E05AC
:104EE00080939D0586EF91E09093970580939605BA
:104EF00080EF92E090939905809398058CEE91E075
:104F0000909392058093910586EE92E0909394059C
:104F10008093930522EE31E030938D0520938C052C
:104F200028ED31E0309388052093870590938A051A
:104F3000809389058EEC91E09093830580938205A0
:104F400084EC91E090937E0580937D058AEB91E05F
:104F5000909379058093780580EB91E090937405A8
:104F6000809373058AED92E09093760580937505A2
:104F700026EA31E030936F0520936E05909371051A
:104F8000809370058CE991E090936A0580936905A0
:104F900082E991E0909365058093640588E891E04B
:104FA0009093600580935F058EE791E090935B0599
:104FB00080935A0510924E0510924F05109250059D
:104FC00010925105109252051092530510925405FB
:104FD00010925505109256051092580510925705DB
:104FE00010922A051092290580E591E090932805FA
:104FF0008093270582E0809332051092310580E28C
:105000008093300510922B0580EA95E1AFEFBFEF5A
:105010008093230590932405A0932505B09326053E
:10502000109216051092B1051092B00588EE93E02B
:10503000A0E0B0E08093B2059093B305A093B405CF
:10504000B093B5058AE092E09093AF058093AE05EA
:1050500081E08093CB051092CC051092400610920F
:105060003C0610923D0610923E0610923F068DE0DF
:1050700090E00E947C346F3F7F4F8F4F9F4F39F4F9
:1050800040E050E0BA018DE090E00E9496348DE05F
:1050900090E00E947C3460933806709339068093C8
:1050A0003A0690933B060895892FE5CE892FFFCECF
:1050B000CF93DF9300D000D000D0CDB7DEB7789487
:1050C00084B5826084BD84B5816084BD85B582600D
:1050D00085BD85B5816085BD80916E0081608093BE
:1050E0006E00109281008091810082608093810027
:1050F0008091810081608093810080918000816037
:10510000809380008091B10084608093B100809191
:10511000B00081608093B00080917A0084608093B9
:105120007A0080917A00826080937A0080917A0080
:10513000816080937A0080917A00806880937A0001
:105140001092C1000FB6F894A89580916000886114
:1051500080936000109260000FBE60E971E080E013
:1051600090E00E94EE03E0914A04F0914B0482E04B
:105170008083E0914604F09147041082E091480456
:10518000F091490480E1808310925204E0914E0432
:10519000F0914F0486E08083E0914C04F0914D043F
:1051A000808180618083E0914C04F0914D04808186
:1051B00088608083E0914C04F0914D048081806888
:1051C0008083E0914C04F0914D0480818F7D808339
:1051D00086E290E090934C0580934B0588E08093A5
:1051E0004D0561E070E08BE495E00E9403061092AB
:1051F000CE031092CD03109217041092390410922E
:10520000150481E0809314041092EF0388B1806349
:1052100088B98091B9008E7F8093B9008091B900E0
:105220008D7F8093B9008CE08093B80085E48093F3
:10523000BC00A895109235058091300580620E94CF
:105240002B0280E00E94A1078FE10E94A1070E942B
:10525000D201882309F449C280913205823009F0D5
:1052600044C21092320580913205882319F087E0FC
:105270000E94C80787E00E9409086AEF70E080E09A
:105280000E94BD1A62EF70E081E00E94BD1A6AEED2
:1052900070E082E00E94BD1A62EE70E083E00E943E
:1052A000BD1A87E295E00E94330A68ED70E090E055
:1052B00080E00E948D0C40E150E062ED70E086E3FA
:1052C00095E00E9465341092460541E060E087E277
:1052D00095E00E94DF0966E375E087E295E00E94B1
:1052E000DA0D8EE991E00E94460E6CED75E080E0EB
:1052F00090E00E94D805A89510920F051092D9044D
:105300001092F90457984F9B7FC281E080931B064F
:1053100003E210E0109312060093110688E08093D8
:10532000130681E196E00E94F9051093150600939B
:10533000140680E18093160684E196E00E94F90548
:105340000E94BA0A1092ED051092EE0582E090E0FC
:105350000E9482348C018F3F980751F090FF08C063
:105360008091350581608093350581E00E943F1072
:1053700085E290E00E947434F82E8093E70586E27F
:1053800090E00E9474348093E8058FEF8F0D8E3F7C
:1053900030F084E68093E7058FEF8093E80567E1BE
:1053A00073E08AE394E00E94DA0D8091E7050E94A1
:1053B000151967E273E08AE394E00E94DA0D8091A8
:1053C000E8050E94151980911B06882309F41FC265
:1053D00085E00E94980286E00E94980283E290E0B5
:1053E0009093D4058093D30582E08093D50583ED17
:1053F00095E00E94F90529E2E22EF12CF092D70502
:10540000E092D60588E08093D80561E070E086EDF3
:1054100095E00E940306F092DA05E092D90580E15A
:105420008093DB0561E070E089ED95E00E94030662
:10543000D0901B06F092BD05E092BC0584E08093FD
:10544000BE0570E060E08CEB95E00E9403068FE9FA
:105450009AE090930101809300018091690083603C
:1054600080936900E89A86E08D8389E290E0DD20F0
:1054700019F01D8283E290E02D819093C305809303
:10548000C20581E001C0880F2A95EAF78093C40520
:1054900082EC95E00E94F9050E94700B0E94680A58
:1054A0001092800080E49FE19093870080938600B3
:1054B00081E180938100229A8091800080628093B4
:1054C000800090E080E00E94BD010F3F100709F0CE
:1054D000B9C11092EA051092E90502E08091E90550
:1054E0009091EA0580629093EA058093E9058BE04C
:1054F00090E00E9482347C019093250680932406DC
:1055000089E090E00E9482349093270680932606DB
:10551000EF20E09421F410922506109224060196C3
:1055200031F48CED90E0909327068093260610923C
:105530001C0610921D0610921E0610921F06109255
:105540002006109221061092220610922306109235
:105550001706109218061092190610921A0680E08B
:1055600092E49093EC058093EB058FEF91E00E941D
:1055700074348093FA0581508E3F18F080E2809356
:10558000FA051092C90581E190E00E94743480937D
:10559000CA051092E00582E190E00E947434809385
:1055A000E1051092E2051092E3051092E4051092D5
:1055B000E50583E190E00E9474348093E605109243
:1055C000DC051092DD051092DE051092DF0581E00A
:1055D0000E944E0F8091E9059091EA058E719670B8
:1055E000892BD1F183E00E9409088091E90581FFB0
:1055F00004C081E691E00E94AE0C8091E90582FF33
:1056000004C080E591E00E94AE0C8091E90583FF23
:1056100004C083E491E00E94AE0C8091E90584FF10
:1056200004C083E391E00E94AE0C8091E905909163
:10563000EA0591FF04C085E291E00E94AE0C8091E2
:10564000E9059091EA0592FF04C085E191E00E948E
:10565000AE0C87E00E940908A89590E080E00E94C7
:10566000BD0162E071E08CE091E00E949F0C8091AE
:10567000E90584FDF2C00E94E90B2091E905309113
:10568000EA0534FFE7C081FDE8C06EE372E08EE119
:1056900092E00E949F0C14E08DEF810F833018F48C
:1056A00081E00E94090890E080E00E94BD01A89579
:1056B0002091E9053091EA0524FDE3C0143009F09A
:1056C000E0C088E08093ED0581E031FDDCC015305D
:1056D00009F0D9C089E08093ED050E94111081E0A6
:1056E0000E944E0F0E94E21AFDCF80913005806229
:1056F0000E942B028CE00E94A1078FE10E94A1076B
:105700000E94D201882329F080913205823009F469
:10571000A8CD8091300580620E942B0281E00E941A
:10572000A10780E00E94A1070E94D201909132055A
:10573000882319F0923009F494CD923019F481E065
:105740008093320580912B05886080932B0582E041
:1057500080932E0510922F05109234051092330578
:1057600013E068E387E295E00E94730968E187E24D
:1057700095E00E9473091150A1F768E287E295E075
:105780000E94730968E087E295E00E94730965E072
:1057900070E080E090E00E94EE0360912B05606273
:1057A00040E087E295E00E94860965E070E080E0D5
:1057B00090E00E94EE0360912B05606240E087E27A
:1057C00095E00E94860965E070E080E090E00E942C
:1057D000EE038CE080932C0580913205882331F014
:1057E00040E06CE087E295E00E94860987E295E060
:1057F0000E94330A82E080932D0540E066E087E254
:1058000095E00E9486092FCD10921B0681CD83E280
:1058100090E09093CE058093CD0581E08093CF05F5
:105820008DEC95E00E94F90589E290E09093D10516
:105830008093D00580E88093D20580ED95E00E94AA
:10584000F905CCCD1093EA050093E90500FD45CE9E
:1058500001E044CE833009F018CF8091E9059091A2
:10586000EA0591FF02C010E017CF0E94820B882347
:10587000D1F369E172E08EE192E00E949F0C15E0A5
:105880000BCF80E022CF811128CF60E0802F0E94D3
:10589000AD2680911D0581110E94A6140E94111051
:1058A00082E290E00E9482348C0190932D068093D6
:1058B0002C0684E290E00E94743480932E060F3F01
:1058C0001F4F31F410922D0610922C0610922E06C6
:1058D0000E94210460933006709331068093320653
:1058E0009093330684E090E00E9474348F3F09F077
:1058F00080C010921D0560E084E090E00E94883432
:105900008091EB059091EC0520911D05222309F46F
:1059100073C090619093EC058093EB0585E090E077
:105920000E9474348F3F09F069C010921E0560E038
:1059300085E090E00E94883486E090E00E94743414
:105940008F3F09F05EC085E080931F0565E086E02B
:1059500090E00E94883487E090E00E9474348F3F8A
:1059600009F052C086E08093200566E087E090E071
:105970000E94883488E090E00E9474348F3F09F0E0
:1059800046C087E38093210567E388E090E00E94AA
:105990008834109222051092110580E096EF9093C2
:1059A00018058093170590931A0580931905909315
:1059B0001C0580931B0586E00E94A607843591058F
:1059C00049F587E00E94A6078115944019F581E00A
:1059D000809316056DE671E08EE791E00E949F0CC2
:1059E0008091EB059091EC0596FF17C00E94E21A9A
:1059F000F7CF80931D0584CF9F7E8CCF80931E05AB
:105A00009BCF80931F05A7CF80932005B3CF8093B2
:105A10002105BFCF10921605DDCF88E19FE00FB6BC
:105A2000F894A895809360000FBE9093600098EE64
:105A3000C92E93E0D92EE12CF12C22242A94322C69
:105A4000A8953A8229820E9421042B013C01809171
:105A5000ED058F3FE1F58093EE050E94B901182F07
:105A60008091400681FD98C61123C9F00E94240C44
:105A700010923C0610923D0610923E0610923F0690
:105A80000E94210460933406709335068093360695
:105A90009093370680914006816080934006809104
:105AA000400680FF81C69091EB0596FF7AC682FD85
:105AB000F7C50E94210460933406709335068093E5
:105AC0003606909337068091400684606BC6BE010F
:105AD0006F5F7F4FCE0103960E94F50AA090EB0501
